:10000000021388008F828E83E0540100000070F894
:100010002278FFE4F6D8FD0213E60203DBE86480F1
:10002000F8E933E83360110460F0ED33EC33700924
:10003000E8FCE9FDEAFEEBFF220460DED3EB9FEA79
:100040009EE99DE8C2E78CF0C2F795F0400CE8CC41
:10005000F8E9CDF9EACEFAEBCFFB1203A685D0F092
:100060005804700320D5B3E80470075002B2D502DB
:1000700003E592D5EC0460F7E4CCC0E0C398F860E7
:100080003B94186008400DD0E0FB0203BDE4FBFA8E
:10009000C9FC8028E830E406E4C9FBE4CAFCE83087
:1000A000E305E4C9CACBFCE854076010F8C3E913C0
:1000B000F9EA13FAEB13FBEC13FCD8F130F52FC37C
:1000C000E49CFCEF9BFFEE9AFEED99FDD0E0FBEF88
:1000D0004E4D4C701222DB030203E2EC2CFCEF339A
:1000E000FFEE33FEED33FDED30E7EB0203BDEF2B0A
:1000F000FFEE3AFEED39FDD0E0FB50130BBB0003E1
:100100000203E5ED13FDEE13FEEF13FFEC13FC020B
:1001100003BDEC4D6011E8497017ED33EC3304601A
:100120000DE4FCFFFEFD22E933E8330470F802031E
:10013000DB1203A658046009E4CC24815006285041
:10014000090203E52840030203E2C0E0EB4A7044E1
:10015000B98006D0E0FB0203D1EF4E701CBD8008D1
:10016000EBFFEAFEE9FD80EBE98DF0A4FEE5F0028D
:1001700001FBE9CDF9EAFEEBFFEF89F0A4FCE5F025
:10018000CE89F0A42EFFE435F0CD89F0A42DFEE455
:1001900035F08067EF4E7005BD80D780C3EF8BF0E0
:1001A000A4ACF0EE8BF0A42CFCE435F0F8EF8AF070
:1001B000A42CE5F038FCE433CB8DF0A42CFCE5F066
:1001C0003BF8EE8AF0A42CFCE5F038F8E433CF8954
:1001D000F0A42CFCE5F038CF3400CE89F0A42FFF3A
:1001E000E5F03EFEE433C98DF0A42EFEE5F039CDF6
:1001F0008AF0A42FFFE5F03EFEE43DFD33D0E0FBA6
:1002000050070BBB000F0203E5EC2CFCEF33FFEEB5
:1002100033FEED33FD0203BD0203E5EC5D04600532
:10022000E8590470030203DB1203A6580460F6ECDD
:100230004860F2EC7004FDFEFF22C860DB2481C838
:100240005009C398600250060203E29850CAF58232
:10025000E9294B4A7005AB820203D175F0007C1A84
:100260007880C3EF9BEE9AED99400DC3EF9BFFEEB4
:100270009AFEED99FDE842F0DC23ACF0D0E0FFD02F
:10028000E0FED0E0FDAB8220E7101BEB60BAEC2C67
:10029000FCEF33FFEE33FEED33FD0203BDE803F860
:1002A00030E705C0F075F000EF2FFFEE33FEED33C1
:1002B000FD40B830E7C280AA74F8CC6480CCC86432
:1002C00080C8F58204604FC3EB9FF5F0EA9E42F0D0
:1002D000E99D42F0E89C45F0603C501DE5825FFFDF
:1002E000E582D313CB5BCBF42B5582FB50280ABAA3
:1002F000002409B9002008801DE5825BFBE582D35C
:1003000013CF5FCFF4C3132F5582FF50090EBE00E9
:10031000050DBD00010CC3EB9FF5F0EA9E42F0E92C
:100320009D42F0E89C45F06007CC4820E701B3EC23
:100330002275F020800E75F010800575F0087D00A4
:100340007E007F003392D530D5031205AFEC3340E9
:1003500010EF33FFEE33FEED33FDEC33FCD5F0ED63
:1003600022E5F0247EA2D513CC92E7CDCEFF22ED7C
:10037000D2E7CD33EC3392D524814006E4FFFEFD75
:10038000FC22FCE4CFCECDCC24E0501174FF80EDF4
:10039000C3CC13CCCD13CDCE13CECF13CF0470F07E
:1003A00030D5DE0205AFE9D2E7C933E833F892D59C
:1003B000EDD2E7CD33EC33FC5002B2D522EC30E77E
:1003C000100FBF000C0EBE00080DBD00040BEB604B
:1003D00014A2D5EB13FCED92E7FD2274FFFCFDFEA9
:1003E000FF22E480F8A2D574FF13FC7D80E480EF47
:1003F000BB010689828A83E0225002E722BBFE020B
:10040000E32289828A83E49322BB010689828A835C
:10041000F0225002F722BBFE01F322C5F0F8A3E060
:1004200028F0C5F0F8E582158270021583E038F0F7
:1004300022BB010A89828A83F0E5F0A3F0225006EC
:10044000F709A7F01922BBFE06F3E5F009F319221C
:10045000EF2BFFEE3AFEED39FDEC38FC22C3EF9BAB
:10046000FFEE9AFEED99FDEC98FC22E88FF0A4CC0B
:100470008BF0A42CFCE98EF0A42CFC8AF0EDA42CCB
:10048000FCEA8EF0A4CDA8F08BF0A42DCC3825F09A
:10049000FDE98FF0A42CCD35F0FCEB8EF0A4FEA985
:1004A000F0EB8FF0A4CFC5F02ECD39FEE43CFCEA92
:1004B000A42DCE35F0FDE43CFC2275F008758200D9
:1004C000EF2FFFEE33FECD33CDCC33CCC58233C519
:1004D000829BED9AEC99E58298400CF582EE9BFEAA
:1004E000ED9AFDEC99FC0FD5F0D6E4CEFBE4CDFA05
:1004F000E4CCF9A88222B800C1B90059BA002DECA9
:100500008BF084CFCECDFCE5F0CBF97818EF2FFF40
:10051000EE33FEED33FDEC33FCEB33FB10D70399E8
:100520004004EB99FB0FD8E5E4F9FA227818EF2F95
:10053000FFEE33FEED33FDEC33FCC933C910D705B4
:100540009BE99A4007EC9BFCE99AF90FD8E0E4C9D3
:10055000FAE4CCFB2275F010EF2FFFEE33FEED3303
:10056000FDCC33CCC833C810D7079BEC9AE8994030
:100570000AED9BFDEC9AFCE899F80FD5F0DAE4CD92
:10058000FBE4CCFAE4C8F922EF5BFFEE5AFEED592A
:10059000FDEC58FC22EF4BFFEE4AFEED49FDEC4826
:1005A000FC22CFF4CFCEF4CECDF4CDCCF4CC22C30C
:1005B000E49FFFE49EFEE49DFDE49CFC22EB9FF59E
:1005C000F0EA9E42F0E99D42F0E89C45F022E860A6
:1005D0000FECC313FCED13FDEE13FEEF13FFD8F188
:1005E00022E86010ECA2E713FCED13FDEE13FEEF22
:1005F00013FFD8F022E8600FEFC333FFEE33FEEDB8
:1006000033FDEC33FCD8F122E0FCA3E0FDA3E0FED7
:10061000A3E0FF22E0F8A3E0F9A3E0FAA3E0FB22C5
:10062000ECF0A3EDF0A3EEF0A3EFF022A42582F509
:1006300082E5F03583F58322E0FBA3E0FAA3E0F93D
:1006400022EBF0A3EAF0A3E9F022E493FB74019318
:10065000FA740293F922D083D082F8E49370127472
:100660000193700DA3A393F8740193F5828883E43A
:10067000737402936860EFA3A3A380DFE50C258267
:10068000F582E50B3583F583B50B0485820C2210CA
:10069000AF0685820CF50B2285820CF50BD2AF22BA
:1006A000EC8EF0A4CCC5F0CCCDF8EFA4CEC5F02DE7
:1006B000FDE43CFCE8A42EC8C5F03DFDE43CFCEFA5
:1006C000A4FFE5F028FEE43DFDE43CFC22E709F64A
:1006D00008DFFA8046E709F208DFFA803E88828C5C
:1006E00083E709F0A3DFFA8032E309F608DFFA8036
:1006F0006EE309F208DFFA806688828C83E309F0F2
:10070000A3DFFA805A89828A83E0A3F608DFFA80A1
:100710004E89828A83E0A3F208DFFA804280D28089
:10072000FA80C680D4805580F28029801080A6800F
:10073000EA809A80A880DA80E280CA802988848C46
:100740008589828A83E493A30586F0A30586DFF575
:10075000DEF3800B89828A83E493A3F608DFF9EC49
:10076000FAA9F0EDFB2288848C8589828A83E0A334
:100770000586F0A30586DFF6DEF480E389828A83AE
:10078000E493A3F208DFF980D688F0EF60010E4E03
:1007900060CD88F0ED2402B4040050C3F582EB2450
:1007A00002B4040050B9232345822390071D73909F
:1007B0000069EFF090006AECF0A3EDF090006CEAB5
:1007C000F0A3EBF090006FE0FFEFD3940050030232
:1007D00009AE90006FE0FFEFD3940140030209AE31
:1007E000900069E0FFEF12065607FC0107FC0408C1
:1007F0002907085408087F0A000008AA90006EE044
:10080000FFEFD3940F40117B0C7A0179181225EB7E
:10081000900070EFF00208AF7B0C7A01791C122572
:10082000EB900070EFF00208AF90006EE0FFEFD3A6
:10083000940F40107B0C7A0179191225EB9000700F
:10084000EFF0806B7B0C7A01791D1225EB90007024
:10085000EFF0805B90006EE0FFEFD3940F40107BD1
:100860000C7A01791A1225EB900070EFF080407B32
:100870000C7A01791E1225EB900070EFF080309019
:10088000006EE0FFEFD3940F40107B0C7A01791BD0
:100890001225EB900070EFF080157B0C7A01791F28
:1008A0001225EB900070EFF08005900070E4F0905E
:1008B0000070E0FFEF3395E0FEFDFC7B207A0079CD
:1008C00000780012046BA804A905AA06AB079000E3
:1008D0006AE0FEA3E0FFE4FCFD12045090007112F8
:1008E0000620900071120608AB07AA06A905A80405
:1008F000A804A905AA06AB0790006CE0FEA3E0FFE0
:10090000E4FCFD12046B9000771206207B007A80D5
:10091000790078009000771206081204F6900075AE
:10092000EEF0A3EFF090006EE0FFEFC3940E50479F
:10093000900075E0FEA3E0FF90006EE0FDC3740E32
:100940009DFDEFA805088005CEC313CE13D8F9FF8F
:10095000900075EEF0A3EFF090006EE0FFEF04FF63
:1009600090006FE0FEEE75F003A4247AF582E43483
:1009700000F583EFF0801690006FE0FFEF75F00355
:10098000A4247AF582E43400F583740FF0900075A6
:10099000E0FEA3E0FF90006FE0FDED75F003A424FE
:1009A00078F582E43400F583EEF0A3EFF0227F00C7
:1009B00012258A227B007A4679E81225EBEF44055E
:1009C000FD7B007A4679E81225F7750A00E50AC32F
:1009D0009409503AAF0AEF75F005A42484F582E437
:1009E000342CF583AF82AE838E088F09AE08AF0931
:1009F0008F828E8312064AAE08AF098F828E83746F
:100A00000393FC740493FD1224D7050A80BF7B086E
:100A10007A00790012232D905883740AF07B007AB3
:100A20007679507D047C001224D77B087A0079C047
:100A3000C003C002C0017B007A7679409000731237
:100A40000641D001D002D0037F047E0012223B7BFE
:100A5000017A5079031225EBEF4402FD7B017A50B5
:100A600079031225F77B017A5079131225EBEF44B5
:100A700002FD7B017A5079131225F79043A0E0FF25
:100A8000EF4440FF9043A0EFF09043C2E0FFEF44FB
:100A900010FF9043C2EFF07B087A0079A8C003C032
:100AA00002C0017B007A517942900073120641D056
:100AB00001D002D0037F087E0012223B7B087A001F
:100AC00079B0C003C002C0017B007A517960900008
:100AD00073120641D001D002D0037F0A7E00122299
:100AE0003B9044F47401F0904322E0FFEF4408FF90
:100AF000904322EFF09046ECE0FFEFC394055006E0
:100B0000904689743AF090480074F1F0120FF99011
:100B1000480074B1F0121B6A7B007A4379A0C003CD
:100B2000C002C0017B007A4379B090007312064185
:100B3000D001D002D0037F0E7E0012223B9043B042
:100B4000E0FFEF54FDFFEFF02290006AEEF0A3EF1C
:100B5000F090006CEDF012260D90006EEFF0122672
:100B60000390006FEEF0A3EFF090006FE0FEA3E0C3
:100B7000FF90006AE0FCA3E0FDED6F7002EC6E7088
:100B800003020CDD9043A1E0FFEF5401FF90006DE4
:100B9000EFF090006EE0FFEF705E90006FE0FEA35C
:100BA000E0FFEF4E600C90006AE0FEA3E0FFEF4E26
:100BB000704690006FE0FEA3E0FFEF4E701D7B02D9
:100BC0007A41790090006AE0FCA3E0FD1225D29002
:100BD0004102E0FFEF54BFFFEFF022904102E0FF3F
:100BE000EF4440FFEFF07B027A41790090006AE029
:100BF000FCA3E0FD1225D22290006DE0FFEF606CB7
:100C0000904001E4F09040147401F0904010E4F042
:100C1000904008E0FFEF547FFFEFF0904102E0FFCB
:100C2000EF5408FF7E00EF4E600C90006AE0FEA3D8
:100C3000E0FFEF4E70367B027A40790290006FE061
:100C4000FCA3E0FD1225D29040017407F090400112
:100C5000E0FFEF5401FF7E00EF4E70F19043A1E002
:100C6000FFEF54FEFFEFF0904001E4F09043A1E06D
:100C7000FFEF5401FF7E00EF4E603A7B027A40792D
:100C80000290006AE0FCA3E0FD1225D290006CE027
:100C9000FFEF60047F0280027F00EF4401FF90407D
:100CA00001EFF0904001E0FFEF5401FF7E00EF4EB6
:100CB000602B80EF227B027A41790090006AE0FC91
:100CC000A3E0FD1225D29043A1C083C082E0FF9033
:100CD000006DE0FEEF4EFFD082D083EFF022900057
:100CE0006AEEF0A3EFF090006CEDF0122621900078
:100CF0006EEFF012261790006FEEF0A3EFF0900069
:100D00006FE0FEA3E0FF90006AE0FCA3E0FDED6F62
:100D10007002EC6E7003020E729043A2E0FFEF547B
:100D200001FF90006DEFF090006EE0FFEF705E90BD
:100D3000006FE0FEA3E0FFEF4E600C90006AE0FE63
:100D4000A3E0FFEF4E704690006FE0FEA3E0FFEFE0
:100D50004E701D7B027A40798090006AE0FCA3E02F
:100D6000FD1225D2904082E0FFEF54BFFFEFF0224A
:100D7000904082E0FFEF4440FFEFF07B027A407941
:100D80008090006AE0FCA3E0FD1225D22290006D65
:100D9000E0FFEF606C904001E4F09040107401F0CF
:100DA000904014E4F0904008E0FFEF547FFFEFF034
:100DB000904082E0FFEF5408FF7E00EF4E600C9001
:100DC000006AE0FEA3E0FFEF4E70367B027A4079C6
:100DD0000290006FE0FCA3E0FD1225D29040017468
:100DE00007F0904001E0FFEF5401FF7E00EF4E70EE
:100DF000F19043A2E0FFEF54FEFFEFF0904001E4DA
:100E0000F09043A2E0FFEF5401FF7E00EF4E603A06
:100E10007B027A40790290006AE0FCA3E0FD122593
:100E2000D290006CE0FFEF60047F0280027F00EF51
:100E30004401FF904001EFF0904001E0FFEF5401CA
:100E4000FF7E00EF4E602B80EF227B027A4079809C
:100E500090006AE0FCA3E0FD1225D29043A2C0837B
:100E6000C082E0FF90006DE0FEEF4EFFD082D083A5
:100E7000EFF02212226FD2AF9044F474FDF07F00A5
:100E80007E007D007C009000431206207F007E00E3
:100E90007D007C00900047120620900057747FF080
:100EA000A374FFF09000597480F0A3E4F090005F09
:100EB000E4F0A3E4F090005FE0FEA3E0FFC3EE9453
:100EC00002501A90647B7401F090647BE0FFEF7035
:100ED000F890005FE475F00112041B80D890004385
:100EE00012060878091205E1900055EEF0A3EFF024
:100EF000900055E0FCA3E0FDEC120336C004C005F1
:100F0000C006C007900055E0FCA3E0FDEC120336DC
:100F1000A804A905AA06AB07D007D006D005D004BF
:100F20001201129000471206141202B86061405F6D
:100F3000900055E0FCA3E0FDEC120336C004C005B0
:100F4000C006C007900055E0FCA3E0FDEC1203369C
:100F5000A804A905AA06AB07D007D006D005D0047F
:100F6000120112C004C005C006C0077B007A0079D8
:100F700000784490004712060812021BD003D002EA
:100F8000D001D00012001D90005B120620800E7F61
:100F9000007E007D007C0090005B120620900055D2
:100FA000E0FEA3E0FFEE3395E0FDFC12201590007B
:100FB00051120620900057E0FEA3E0FFAB07AA06FF
:100FC000EA3395E0F9F8900059E0FEA3E0FFEE3334
:100FD00095E0FDFC12045D12201590004B120620D6
:100FE00090005B1206081217AA12036F12201590C8
:100FF0000061120620020E7E227B007A4079807DFD
:10100000007C001225D09040827450F07B087A005A
:1010100079BCC003C002C0017B007A417900900016
:1010200073120641D001D002D0037F047E00122249
:101030003B9043007402F09040007408F09042002E
:101040007403F07B0C7A0179081225EB9046A1EF2E
:10105000F07B007A4279227D087C001225D07B004B
:101060007A4279207D517C121225D090006DE4F0F7
:101070007F197E007D007C009000691206209000A0
:1010800069120608D3EF9400EE9400404E90006D74
:10109000E0FFEF64036044904225E0FFEF5401FF5E
:1010A0007E0090006DE0FEEE25E0FEEE4FFFEF5477
:1010B00003FF90006DEFF07FE07E017D007C001269
:1010C00022009000691206087BFF7AFF79FF78FF03
:1010D00012045090006912062080A3900069120645
:1010E00008EF4E70057F0312259F7B007A4079043C
:1010F0007D007C011225D09040047407F0904006DA
:10110000E4F09040087448F0904004E4F09040010E
:101110007402F090400B7404F09043A2E0FFEF449F
:1011200001FF9043A2EFF09043A1E0FFEF4401FFE5
:101130009043A1EFF09043A0E0FFEF4480FF904385
:10114000A0EFF022C0E0C0F0C083C082C085C084A0
:10115000C086758600C093759300C0D075D000C05E
:1011600000C001C002C003C004C005C006C0077FA4
:10117000011222D090647BE4F09000431206149098
:10118000004FE0FEA3E0FFEE3395E0FDFC120450BB
:10119000900043120620900047120608C004C005C4
:1011A000C006C00790004FE0FCA3E0FDEC12033640
:1011B000C004C005C006C00790004FE0FCA3E0FDDE
:1011C000EC120336A804A905AA06AB07D007D0067F
:1011D000D005D004120112A804A905AA06AB07D0B5
:1011E00007D006D005D00412002190004712062037
:1011F000900057E0FEA3E0FF90004FE0FCA3E0FD6D
:10120000C3ED9FEE6480F8EC648098501090004F1E
:10121000E0FEA3E0FF900057EEF0A3EFF09000593E
:10122000E0FEA3E0FF90004FE0FCA3E0FDD3ED9FC4
:10123000EE6480F8EC648098401090004FE0FEA3CC
:10124000E0FF900059EEF0A3EFF07F001222D0D023
:1012500007D006D005D004D003D002D001D000D0F2
:10126000D0D093D086D084D085D082D083D0F0D017
:10127000E0329043A6E0FFEF4410FFEFF090C7800C
:10128000E0FFEF54FEFFEFF090C788743FF090C787
:101290008C743FF07BFF7A267944C003C002C00102
:1012A0007B017AC47900A801AC02AD03D001D00261
:1012B000D0037E017F001207897BFF7A267944C024
:1012C00003C002C0017B017AC57900A801AC02AD60
:1012D00003D001D002D0037E017F001207897BFF7B
:1012E0007A2B7984C003C002C0017B017AC67900E1
:1012F000A801AC02AD03D001D002D0037E017F0073
:101300001207897BFF7A277944C003C002C0017BA2
:10131000017AC07900A801AC02AD03D001D002D09F
:10132000037E027F001207897BFF7A297944C0037C
:10133000C002C0017B017AC27900A801AC02AD03F2
:10134000D001D002D0037E027F001207897BFF7A92
:101350002B7944C003C002C0017B017AC77900A881
:1013600001AC02AD03D001D002D0037E007F401259
:10137000078990C78CE4F07F001224647F01122457
:101380008290C78474F8F0227593007800758346C4
:101390007582E8E04401F0009046ECE0F99046FAEE
:1013A000E0FAB903225420B40012B8001AEA901FE0
:1013B000FFF07401901FFEF09046F6F0901FFEE0E3
:1013C0006005901FFFE0FA90480074C0F075810C32
:1013D00090000078007920E4F0A3D8FCD9FAEA90D4
:1013E0000094F0020011750B1F750CFD1209B41268
:1013F0002064021430020E73E493A3F8E493A34034
:1014000003F68001F208DFF48029E493A3F854077F
:10141000240CC8C333C4540F4420C8834004F4567A
:10142000800146F6DFE4800B0102040810204080B2
:10143000901AD5E47E019360BCA3FF543F30E509C8
:10144000541FFEE493A360010ECF54C025E060A8B2
:1014500040B8E493A3FAE493A3F8E493A3C8C58245
:10146000C8CAC583CAF0A3C8C582C8CAC583CADFB3
:10147000E9DEE780BE900069EFF0900089E4F0902B
:101480000069E0FFEF64016003021554904E0074A0
:1014900038F0904E027404F0904E037407F0904EB2
:1014A00004E4F0904E05E4F0904E06743FF0904E48
:1014B00008E4F0904E09E4F0904E0AE4F0904E14E7
:1014C0007401F09058847450F09058857427F0900F
:1014D0005886742CF0905887E4F090588A7455F030
:1014E00090588B745AF090588C7405F090588E7404
:1014F00002F090588F7412F09058907428F0905821
:101500009174EBF07F44121FC29058947458F0907D
:101510005895E4F090589A7405F090589B7401F037
:1015200090589CE4F090589D740AF07F007E7D7D79
:10153000007C0090007F1206207D017F017E00125A
:101540000CDE7D017F077E00120B497C267D407FEB
:101550001D121BF52212257590006AEFF090008392
:10156000E0FF900069EFF09043AAE0FFEF4401FF35
:10157000EFF09043AAE0FFEF4410FFEFF09043BA82
:10158000E0FFEF4401FFEFF09043BAE0FFEF4410BB
:10159000FFEFF09046F8E0FFEF4402FFEFF09046D7
:1015A000F9E0FFEF4402FFEFF0905891E0FFEF44C5
:1015B00003FFEFF07F037E001223009046F8E0FF68
:1015C000EF54FDFFEFF09046F9E0FFEF54FDFFEF21
:1015D000F0905877E0FFEF4406FFEFF090588274E8
:1015E0007AF09043A1E0FFEF4401FFEFF09043B1A8
:1015F000E0FFEF4401FFEFF09043A2E0FFEF440172
:10160000FFEFF09043B2E0FFEF4401FFEFF09044B2
:10161000DB7420F09044C37420F090006AE0FF1265
:1016200024F0229000837401F090007EE4F07F109B
:101630001223C97F101223A87D077F1D121F079058
:1016400058967407F0905897E4F090589EE4F09004
:101650005B07E0FFEF4418FFEFF0905893E4F09041
:101660005B88E4F0905B89E4F0905880740AF09015
:101670005881E4F0905883E4F0905888745BF090BF
:101680005889745EF090588DE4F0904E017414F017
:1016900090006E7410F090006F7401F07B007A80FF
:1016A0007DDA7C907F041207AF900083E0FFEF7536
:1016B000F003A4247AF582E43400F583E0FF904E31
:1016C0000EEFF0900083E0FFEF75F003A42478F5AF
:1016D00082E43400F583E0FCA3E0FD7B027A4E79DE
:1016E0000C1225D2900083E0FF1214752290007135
:1016F000EFF0900072EDF0900073EBF090007774D3
:1017000001F0900071E0FFEFC3941840030217A0AE
:10171000900073E0FFEF5401FF7E00EF75F080A4AE
:10172000FFAEF0900072E0FEEE547FFEEE4FFF90B1
:101730000071E0FE75F008EE90760012062CEFF0D6
:10174000900075E0FFEF540FFF7E00EF75F010A4DE
:10175000FFAEF0900074E0FEEE540FFEEE4FFF90EF
:101760000071E0FE75F008EE90760112062CEFF0A5
:10177000900076E0FFEF540FFF900071E0FE75F0EF
:1017800008EE90760212062CEFF0900071E0FF75E3
:10179000F008EF90760312062CE4F0900077E4F066
:1017A000900077E0FF220203DB22EDA2E7D2E7F907
:1017B000EC3340F260F3B4FF08ED547F70E80203AD
:1017C000E5F82481C2E0C0E0F40428FAC313FCED7C
:1017D00092E7FD900069120620EEA2E7E9BA7F02C7
:1017E000C31334009400FA75F091A4E5F013F49457
:1017F000FE8AF0A433E5F033248CD313FDE492E7A2
:10180000FE7F007C3F758302ECC0E0F8EDC0E0F99C
:10181000EEC0E0FAEFC0E0FB8583F09000691206AD
:101820000885F08312021BD0E0FBD0E0FAD0E0F98B
:10183000D0E0F8120021ED6480FD30E7011CD58373
:10184000C7ED33CC33F8D0E0A2E71328C313CC1391
:10185000FD2290006BEFF090006CECF0A3EDF090A7
:10186000006EEBF09000707401F090006BE0FFEF01
:10187000C39480507A90006CE0FEA3E0FFEE54F039
:10188000FE7F00EF4E706890006BE0FF7E08EF8EE9
:10189000F0A4FFAEF0EF2400FFEE3478FE9000716C
:1018A000EEF0A3EFF0900071E0FEA3E0FFAA06A91E
:1018B000077B0190006CE0FCA3E0FD1225D29000B4
:1018C0006EE0FF90006BE0FE75F008EE907802127B
:1018D000062CEFF090006FE0FF90006BE0FE75F0DB
:1018E00008EE90780312062CEFF0900070E4F09070
:1018F0000070E0FF22900069EFF090006AEDF09038
:101900000069E0FFEF703F90C7B0E0FFEF54CCFFFD
:10191000EFF090C7B0C083C082E0FF90006AE0FEA5
:10192000EF4EFFD082D083EFF090C7B0C083C0826B
:10193000E0FF90006AE0FEEEC454F0FEEF4EFFD0F0
:1019400082D083EFF022900069E0FFEF64017046DF
:1019500090C7B0E0FFEF5433FFEFF090C7B0C08303
:10196000C082E0FF90006AE0FEEE25E025E0FEEF99
:101970004EFFD082D083EFF090C7B0C083C082E02A
:10198000FF90006AE0FEEEC4333354C0FEEF4EFF1A
:10199000D082D083EFF022900071EFF0900072ECD3
:1019A000F0A3EDF0900074EAF0A3EBF090007674F1
:1019B00001F0900071E0FFEFC39418507390007134
:1019C000E0FF7E08EF8EF0A4FFAEF0EF2404FFEE00
:1019D0003476FE900077EEF0A3EFF0900077E0FE13
:1019E000A3E0FFAA06A9077B01900072E0FCA3E038
:1019F000FD1225D2900071E0FF7E08EF8EF0A4FF6B
:101A0000AEF0EF2406FFEE3476FE900077EEF0A302
:101A1000EFF0900077E0FEA3E0FFAA06A9077B01A4
:101A2000900074E0FCA3E0FD1225D2900076E4F073
:101A3000900076E0FF2290006BEFF090006CECF0ED
:101A4000A3EDF090006EEAF0A3EBF090007074014B
:101A5000F090006BE0FFEFC39480507390006BE058
:101A6000FF7E08EF8EF0A4FFAEF0EF2404FFEE340B
:101A700078FE900071EEF0A3EFF0900071E0FEA30D
:101A8000E0FFAA06A9077B0190006CE0FCA3E0FD43
:101A90001225D290006BE0FF7E08EF8EF0A4FFAE1F
:101AA000F0EF2406FFEE3478FE900071EEF0A3EF25
:101AB000F0900071E0FEA3E0FFAA06A9077B019069
:101AC000006EE0FCA3E0FD1225D2900070E4F090DF
:101AD0000070E0FF22440043000000004400470083
:101AE000000000420057000042005900004200552B
:101AF000000044005B0000000044005100000000B2
:101B000044004B000000004400610000000042005F
:101B10005F000041009E8041009D7F4400990000CD
:101B2000050041007E004100890041008400410021
:101B30008A00410083014100A4FF4100A50041004B
:101B4000A6004100A7FF440090016E360044008BC0
:101B500000005DC041008F184400952EE000004356
:101B6000009F0000004100A800007B0C7A0179CFA3
:101B70001225EB900069EFF0900069E0FFEF540749
:101B8000FF90586EEFF0900069E0FFEFC4540FFF34
:101B9000EF540FFF90586FEFF090513D7480F07B41
:101BA000027A51794C7D087CA01225D290586C7431
:101BB00009F0905A207420F0905A247480F0905AC2
:101BC000287440F0905A937401F0905ADB7440F0FE
:101BD000905ADC7420F0905B007440F0905B0474C9
:101BE00080F0905B467422F0905B587480F09058BF
:101BF000767444F02290006AEFF090006BECF0A352
:101C0000EDF090006AE0FFEFD3941F5003D3800102
:101C1000C340057F0012258A90006AE0FFEF541F41
:101C2000FF7E00EF25E0FFEE33FEEF2400FFEE34F1
:101C300044FEAA06A9077B011225C390006DEEF0B1
:101C4000A3EFF090006AE0FF7E02EF8EF0A4FFAEFB
:101C5000F0EF2400FFEE3444FEAA06A9077B0190B2
:101C6000006BE0FEA3E0FFAD07AC061225D29000AA
:101C70006DE0FEA3E0FF2290006FE4F0A3E4F07BB0
:101C8000007A007D017F02121E44900069EFF0127D
:101C900020B190006AEFF090006AE0FF90006F744E
:101CA00087F07BFF7D027C0012185290006AE0FFF3
:101CB000C0077B017A00794FAF01AE02AD037C0013
:101CC000EF54FFFFEE54FFFEED5400FDEC5400FC1A
:101CD000AB07AA06D0077DA97CC7121A3690006907
:101CE000E0FF90006AE0FD122189900069E0FF7D2D
:101CF00001121CF52290006BEFF090006CEDF0905B
:101D0000006D7401F090006BE0FFEFC39418505425
:101D100090006CE0FFEF601990006BE0FF75F01031
:101D2000EF90701012062CE0FFEF4420FFEFF080E0
:101D30001790006BE0FF75F010EF90701012062CFA
:101D4000E0FFEF54DFFFEFF090006BE0FF75F01065
:101D5000EF90701012062CE0FFEF4401FFEFF090BF
:101D6000006DE4F090006DE0FF22C0E0C0F0C083A1
:101D7000C082C085C084C086758600C093759300FC
:101D8000C0D075D000C000C001C002C003C004C0F4
:101D900005C006C0077F011222D090004FE0FEA3CD
:101DA000E0FFEEFF3395E0FEEF2480FF905B82EFD3
:101DB000F07F001222D0D007D006D005D004D00387
:101DC000D002D001D000D0D0D093D086D084D0859E
:101DD000D082D083D0F0D0E032900071EFF090004C
:101DE00072EDF09000747401F0900071E0FFEFC3A9
:101DF0009418504A900071E0FF75F010EF90701049
:101E000012062CE0FFEF54F1FF900073EFF090000A
:101E100072E0FFEF5407FF7E00EF25E0FFEE33FE98
:101E2000900073E0FEEF4EFF900071E0FE75F01041
:101E3000EE90701012062CEFF0900074E4F0900019
:101E400074E0FF2290006BEFF090006CEDF09000DA
:101E50006DEAF0A3EBF09000A77408F09000A7E003
:101E6000FF90006BE0FD90006CE0FB900074740844
:101E7000F0900075E4F0900076E4F01216ED90001A
:101E8000A7E0FF90006DE0FCA3E0FD90006FE0FA9A
:101E9000A3E0FB1219979000A7E0FF7D02121DD965
:101EA0009000A7E0FF2290006BEFF090006CEDF047
:101EB00090006DEAF0A3EBF09000A4740AF090009B
:101EC000A4E0FF90006BE0FD90006CE0FB900074DC
:101ED000E4F0900075E4F0900076E4F01216ED90D6
:101EE00000A4E0FF90006DE0FCA3E0FD90006FE037
:101EF000FAA3E0FB1219979000A4E0FF7D02121DE7
:101F0000D99000A4E0FF22900069EFF090006AED04
:101F1000F090006AE0FFEFD394075003D38001C331
:101F200040057F0012258A900069E0FFEFD3941FDF
:101F30005003D38001C340057F0012258A90006AB8
:101F4000E0FFEF5407FF7E00EF75F020A4FFAEF036
:101F5000900069E0FEEE541FFE74802EF582E4349A
:101F600044F583EFF02290006FE4F0A3E4F07B00EF
:101F70007A007D017F02121EA6900069EFF0122008
:101F8000B190006AEFF090006AE0FF90006F740279
:101F9000F07BFF7D027C0012185290006AE0FF7B0C
:101FA000A17AC77D107C4E121A36900069E0FF902E
:101FB000006AE0FD122189900069E0FF7D01121C9A
:101FC000F52290006AEFF012257590006BEFF0900B
:101FD00046F8E0FFEF4403FFEFF09046F9E0FFEF33
:101FE0004403FFEFF090006AE0FF905892EFF07F1B
:101FF000037E001223009046F8E0FFEF54FCFFEF51
:10200000F09046F9E0FFEF54FCFFEFF090006BE03A
:10201000FF1224F022900069120620900069120637
:102020000890008512061412045D900069120620C3
:1020300090007F120608EC120331C004C005C006F0
:10204000C007900069120608EC120331D003D002D9
:10205000D001D00012021B90006D12062090006D7E
:102060001206082290009D747FF090009E7480F00C
:10207000900069747FF0900069E0FFEF60219000AC
:1020800069E0FFEF14FF900069E0FE75F008EE9044
:10209000780012062CEFF0900069E014F080D790E1
:1020A0000069E0FF75F008EF90780012062CE4F06C
:1020B0002290006C74FFF012257590006BEFF09089
:1020C000009EE0FFEFD39418402690009DE0FF9023
:1020D000006CEFF090009EE014F090006CE0FF7553
:1020E000F008EF90780012062CE0FF90009DEFF0D2
:1020F00090006BE0FF1224F090006CE0FF229058FB
:1021000028E0FFEF540CFF7E00EF7802CEC313CE21
:1021100013D8F9FFEF2406FF90006AEFF090006AF1
:10212000E0FFE4FCFDFEEF2428FFEE3401FEED3479
:102130000CFDEC3400FCA907AA06AB051225EB90B8
:10214000460AEFF022C2D5E830E70FB2D5E4C39BD0
:10215000FBE49AFAE499F9E498F8EC30E717B2D581
:1021600012217B1204F6E4C39BFBE49AFAE499F98A
:10217000E498F880031204F630D50DE4C39FFFE421
:102180009EFEE49DFDE49CFC2290006BEFF090002D
:102190006CEDF090006D7401F090006BE0FFEFC308
:1021A0009418501B90006CE0FF90006BE0FE75F0FF
:1021B00010EE90701912062CEFF090006DE4F09084
:1021C000006DE0FF22900069EFF0904E14E0FFEF09
:1021D00054FCFF90006AEFF090006AE0FF90006905
:1021E000E0FEEE5403FEEF4EFF90006AEFF0900029
:1021F0006AE0FF904E14EFF0229044C07401F02288
:10220000EC4D4E700D78FCEF24E950032840FD2280
:1022100000007BF178DA0000EF28FF78FFEE38FE4F
:10222000ED38FDEC38FC50E7EF2BFFEE38FEED38D3
:10223000FDEC38FC40F22205020304758600EF4EE7
:102240006027EF60010E759300900073E0F595A391
:10225000E0F585A3E0F5848B938A838982E0A3056A
:1022600086F0A31586DFF6DEF4E4F593F5952212E9
:1022700024A07F021221C51225DF121F66122560DD
:102280007D027F001218F5121C777E1D7F6A1223D3
:10229000EA1224BD7E117F4412240990647BE4F08D
:1022A00022900069EFF0905828E0FFEF54F3FFEF21
:1022B000F0905828C083C082E0FF900069E0FEEEF5
:1022C000540CFEEF4EFFD082D083EFF01220FE229E
:1022D000900067EFF0905160E0FFEF54FDFF900039
:1022E00068EFF0900067E0FFEF25E0FFEF5402FF9A
:1022F000900068E0FEEF4EFF905160EFF022323226
:10230000EEFA90008FE0F88FF0A4FFAEF0E88AF0CC
:10231000A42EFEE5F03400FDEF24C9FF78FFEE386F
:10232000FEED38FDE438FC500302220022ACEAAD99
:10233000A08B938A838982E0F96017A3E0F5EAA372
:10234000E0F5A0A3E060F4FAA3E0F8A3E0F2DAF885
:10235000D9E98DA08CEAE4F59322900069EFF09022
:102360005828E0FFEF54FDFFEFF0905828C083C0DD
:1023700082E0FF900069E0FEEE5402FEEF4EFFD0D7
:1023800082D083EFF0229043A6E0FFEF4410FFEFEE
:10239000F09043B6E0FFEF4410FFEFF090C780E00D
:1023A000FFEF4401FFEFF022900069EFF09041024F
:1023B000C083C082E0FF900069E0FEEE54F8FEEFBB
:1023C0004EFFD082D083EFF022900069EFF0904072
:1023D00082C083C082E0FF900069E0FEEE54F8FE08
:1023E000EF4EFFD082D083EFF022900069EEF0A391
:1023F000EFF012262B900069E0FEA3E0FF122428E4
:102400007F0612251F1221F922900069EEF0A3EF3A
:10241000F0122639900069E0FEA3E0FF1224467F07
:10242000071225351226322290006BEEF0A3EFF052
:102430007B027A44790090006BE0FEA3E0FFAD07D9
:10244000AC061225D22290006BEEF0A3EFF07B02D7
:102450007A44790290006BE0FEA3E0FFAD07AC0682
:102460001225D222900069EFF0900069E0FFEF544E
:102470001FFF900069EFF0900069E0FF90C798EFB0
:10248000F022900069EFF0900069E0FFEF540FFF39
:10249000900069EFF0900069E0FF90C79CEFF02298
:1024A000900084E0FFEF701190008AE0FFEF70036E
:1024B0001216239000847401F0121555229000A585
:1024C000E0FFEF700912254B9000A57401F0122572
:1024D000087F641225B122EC4D6011ED60010C8B78
:1024E000938A838982E4F0A3DDFCDCFA75930022F1
:1024F000EF54016004D2AF8002C2AFEF5402FF90EC
:1025000044F4E054FD4FF0229043A8E0FFEF440470
:10251000FFEFF09043B8E0FFEF4404FFEFF02290AC
:10252000006BEFF090006BE0FFEFC43354E0FF90DE
:102530004480EFF02290006BEFF090006BE0FFEF33
:10254000C43354E0FF904481EFF022905828E4F027
:10255000905829E4F07F041222A17F0012235A220E
:102560009000A6E0FFEF70091212729000A67401AD
:10257000F0122386229044F4E0F84402F0E854027A
:10258000FF10AF012274014FFF2290FFFF12067C63
:10259000EFF09046EA7401F090000112067C229060
:1025A000006EEFF090006EE0FF90006EEFF080FEA6
:1025B00022900069EFF0900069E0FF905B82EFF0FD
:1025C000228B938A838982E0FFA3E0FE7593002229
:1025D0008B938A838982EDF0A3ECF07593002290AF
:1025E0004E00E0FFEF4401FFEFF0228B938A8389D6
:1025F00082E0759300FF228B938A838982EDF075C8
:102600009300227B027A4179001225C32290410275
:10261000E0FFEF5407FF227B027A4079801225C346
:1026200022904082E0FFEF5407FF229044C87401DB
:10263000F0229044C07402F0229044C87402F02248
:1026400032323232201300256117802601008026A5
:10265000E00E8026C20C8026020080066587186D79
:102660006409183E00008026032080262102187F7E
:10267000000000000000000000000000000000005A
:10268000000000000000000000000000000000004A
:10269000000000000000000000000000000000003A
:1026A000000000000000000000000000000000002A
:10294000000000006EE6FF006A4A0000A96D00006A
:102950003E88FF00237BFE003D1A00001A99030009
:10296000972E02006EC2F9008BF4F600947D0800E9
:10297000BE002700CA8D3600BE002700947D0800E7
:102980008BF4F6006EC2F900972E02001A9903002C
:102990003D1A0000237BFE003E88FF00A96D000069
:1029A0006A4A00006EE6FF00000000000000000020
:1029B0000000000000000000000000000000000017
:1029C0000000000000000000000000000000000007
:1029D00000000000000000000000000000000000F7
:1029E00000000000000000000000000000000000E7
:1029F00000000000000000000000000000000000D7
:102A000000000000000000000000000000000000C6
:102A100000000000000000000000000000000000B6
:102A200000000000000000000000000000000000A6
:102A30000000000000000000000000000000000096
:102A40000000000000000000000000000000000086
:102A50000000000000000000000000000000000076
:102A60000000000000000000000000000000000066
:102A70000000000000000000000000000000000056
:102A80000000000000000000000000000000000046
:102A90000000000000000000000000000000000036
:102AA0000000000000000000000000000000000026
:102AB0000000000000000000000000000000000016
:102AC0000000000000000000000000000000000006
:102AD00000000000000000000000000000000000F6
:102AE00000000000000000000000000000000000E6
:102AF00000000000000000000000000000000000D6
:102B000000000000000000000000000000000000C5
:102B100000000000000000000000000000000000B5
:102B200000000000000000000000000000000000A5
:102B30000000000000000000000000000000000095
:102B400000000000180C0000000000000000000061
:102B50000000000000000000000000000000000075
:102B60000000000000000000000000000000000065
:102B70000000000000000000000000000000000055
:102B80000000000021F805014210864064F815019C
:102B900081F8050143518E21000000000000000073
:102BA0000000000000000000000000000000000025
:102BB0000000000000000000000000000000000015
:102BC0000000000000000000000000000000000005
:102BD00000000000000000000000000000000000F5
:102BE00000000000000000000000000000000000E5
:102BF00000000000000000000000000000000000D5
:102C000000000000000000000000000000000000C4
:102C100000000000000000000000000000000000B4
:102C200000000000000000000000000000000000A4
:102C30000000000000000000000000000000000094
:102C40000000000000000000000000000000000084
:102C50000000000000000000000000000000000074
:102C60000000000000000000000000000000000064
:102C70000000000000000000000000000000000054
:102C800000000000005100003000515000100051C1
:102C9000C000100051F000100100001000011400ED
:102CA00008000140000A00014C0002000150000031
:012CB0002003
:00000001FF
