:100000000219C4008F828E83E0540100000070F852
:100010002278FFE4F6D8FD021A22EC4D6011E8497F
:100020007017ED33EC3304600DE4FCFFFEFD22E9B4
:1000300033E8330470F80202E31202AE5804600998
:10004000E4CC248150062850090202ED2840030226
:1000500002EAC0E0EB4A7044B98006D0E0FB02023D
:10006000D9EF4E701CBD8008EBFFEAFEE9FD80EB86
:10007000E98DF0A4FEE5F0020103E9CDF9EAFEEB1B
:10008000FFEF89F0A4FCE5F0CE89F0A42EFFE43563
:10009000F0CD89F0A42DFEE435F08067EF4E7005B9
:1000A000BD80D780C3EF8BF0A4ACF0EE8BF0A42C16
:1000B000FCE435F0F8EF8AF0A42CE5F038FCE433EA
:1000C000CB8DF0A42CFCE5F03BF8EE8AF0A42CFCE0
:1000D000E5F038F8E433CF89F0A42CFCE5F038CF14
:1000E0003400CE89F0A42FFFE5F03EFEE433C98D45
:1000F000F0A42EFEE5F039CD8AF0A42FFFE5F03E06
:10010000FEE43DFD33D0E0FB50070BBB000F0202C5
:10011000EDEC2CFCEF33FFEE33FEED33FD0202C5B8
:100120000202EDEC5D046005E8590470030202E38D
:100130001202AE580460F6EC4860F2EC7004FDFE6A
:10014000FF22C860DB2481C85009C39860025006B2
:100150000202EA9850CAF582E9294B4A7005AB823F
:100160000202D975F0007C1A7880C3EF9BEE9AEDFD
:1001700099400DC3EF9BFFEE9AFEED99FDE842F02A
:10018000DC23ACF0D0E0FFD0E0FED0E0FDAB82207D
:10019000E7101BEB60BAEC2CFCEF33FFEE33FEED07
:1001A00033FD0202C5E803F830E705C0F075F00042
:1001B000EF2FFFEE33FEED33FD40B830E7C280AAEB
:1001C00074F8CC6480CCC86480C8F58204604FC3E6
:1001D000EB9FF5F0EA9E42F0E99D42F0E89C45F085
:1001E000603C501DE5825FFFE582D313CB5BCBF40F
:1001F0002B5582FB50280ABA002409B90020088038
:100200001DE5825BFBE582D313CF5FCFF4C3132FD1
:100210005582FF50090EBE00050DBD00010CC3EB59
:100220009FF5F0EA9E42F0E99D42F0E89C45F060BF
:1002300007CC4820E701B3EC2275F020800E75F062
:1002400010800575F0087D007E007F003392D53068
:10025000D50312078EEC334010EF33FFEE33FEED83
:1002600033FDEC33FCD5F0ED22E5F0247EA2D5136E
:10027000CC92E7CDCEFF22EDD2E7CD33EC3392D551
:1002800024814006E4FFFEFDFC22FCE4CFCECDCC71
:1002900024E0501174FF80EDC3CC13CCCD13CDCE30
:1002A00013CECF13CF0470F030D5DE02078EE9D223
:1002B000E7C933E833F892D5EDD2E7CD33EC33FC20
:1002C0005002B2D522EC30E7100FBF000C0EBE007A
:1002D000080DBD00040BEB6014A2D5EB13FCED92EE
:1002E000E7FD2274FFFCFDFEFF22E480F8A2D57436
:1002F000FF13FC7D80E480EFF920E73624F95003FA
:100300007907E4F42402FBE582158270021583DB91
:10031000F6E024FB501BE96014E4F0E582158270DE
:10032000021583E004F0B40A08E4F0D9EE7401F099
:100330000A22C2D522ED33EC3392D5FA602AB4FFFB
:1003400033EDC2E77BFF60067A03795AE4227A0331
:10035000796320D5047A03795E224E614E002B49E1
:100360004E46002D494E4600E47A08F0A3DAFC7BA5
:1003700000740722C083C082ECC0E0EDC0E0EEC094
:10038000E0EFC0E0EA75F010A4CAABF075F04DA440
:100390002BFBE435F0FCEA2410FAEB34C5FBEC341B
:1003A000D9FCEDC2E7FF75F056A4F42411C5F0F4B2
:1003B00034C58FF0A42AE5F03BE43CF020E71412AA
:1003C0000562D0E0FFD0E0FED0E0FDD0E0FC1201FD
:1003D000238014F404120562D0E0FFD0E0FED0E0E8
:1003E000FDD0E0FC12001AD082D083E0FAEDD2E713
:1003F000CD33EC332482FBE4C3CF33CFCE33CECD29
:1004000033CD33DBF37B0775F00A846004F0A31B64
:100410000AE5F0F0A38FF0740AA4FFACF08EF0743C
:100420000AA42CFEACF050010C8DF0740AA42CFD33
:10043000E435F0F0A3DBDE7407220202E3E8648017
:10044000F8E933E83360110460F0ED33EC33700900
:10045000E8FCE9FDEAFEEBFF220460DED3EB9FEA55
:100460009EE99DE8C2E78CF0C2F795F0400CE8CC1D
:10047000F8E9CDF9EACEFAEBCFFB1202AE85D0F067
:100480005804700320D5B3E80470075002B2D502B7
:1004900002ED92D5EC0460F7E4CCC0E0C398F860BC
:1004A0003B94186008400DD0E0FB0202C5E4FBFA63
:1004B000C9FC8028E830E406E4C9FBE4CAFCE83063
:1004C000E305E4C9CACBFCE854076010F8C3E9139C
:1004D000F9EA13FAEB13FBEC13FCD8F130F52FC358
:1004E000E49CFCEF9BFFEE9AFEED99FDD0E0FBEF64
:1004F0004E4D4C701222DB030202EAEC2CFCEF336F
:10050000FFEE33FEED33FDED30E7EB0202C5EF2BDE
:10051000FFEE3AFEED39FDD0E0FB50130BBB0003BC
:100520000202EDED13FDEE13FEEF13FFEC13FC02E0
:1005300002C53F8000004120000042C80000447A0C
:100540000000461C400047C35000497424004B186B
:1005500096804CBEBC205A0E1BCA6753C21C749DA9
:10056000C5AEFB60065407601C2323120590EB54B4
:1005700038600912057C12058B12001AECF8EDF9AF
:10058000EEFAEFCB22EB12058B80F1543803241CDA
:10059000900532FE93FC0EEE93FD0EEE930ECE937D
:1005A000FF22BB010689828A83E0225002E722BB38
:1005B000FE02E32289828A83E49322BB010CE58256
:1005C00029F582E5833AF583E0225006E92582F891
:1005D000E622BBFE06E92582F8E222E58229F582C1
:1005E000E5833AF583E49322BB010689828A83F08E
:1005F000225002F722BBFE01F322C5F0F8A3E02847
:10060000F0C5F0F8E582158270021583E038F0221B
:10061000BB010A89828A83F0E5F0A3F0225006F735
:1006200009A7F01922BBFE06F3E5F009F31922EF42
:100630002BFFEE3AFEED39FDEC38FC22C3EF9BFFB9
:10064000EE9AFEED99FDEC98FC22E88FF0A4CC8B9D
:10065000F0A42CFCE98EF0A42CFC8AF0EDA42CFC78
:10066000EA8EF0A4CDA8F08BF0A42DCC3825F0FDB7
:10067000E98FF0A42CCD35F0FCEB8EF0A4FEA9F0B0
:10068000EB8FF0A4CFC5F02ECD39FEE43CFCEAA4FC
:100690002DCE35F0FDE43CFC2275F008758200EFAC
:1006A0002FFFEE33FECD33CDCC33CCC58233C582A4
:1006B0009BED9AEC99E58298400CF582EE9BFEED5D
:1006C0009AFDEC99FC0FD5F0D6E4CEFBE4CDFAE42C
:1006D000CCF9A88222B800C1B90059BA002DEC8B20
:1006E000F084CFCECDFCE5F0CBF97818EF2FFFEEFC
:1006F00033FEED33FDEC33FCEB33FB10D7039940B5
:1007000004EB99FB0FD8E5E4F9FA227818EF2FFFF4
:10071000EE33FEED33FDEC33FCC933C910D7059B36
:10072000E99A4007EC9BFCE99AF90FD8E0E4C9FA92
:10073000E4CCFB2275F010EF2FFFEE33FEED33FD1E
:10074000CC33CCC833C810D7079BEC9AE899400A41
:10075000ED9BFDEC9AFCE899F80FD5F0DAE4CDFBBF
:10076000E4CCFAE4C8F922EF5BFFEE5AFEED59FD46
:10077000EC58FC22EF4BFFEE4AFEED49FDEC48FC45
:1007800022CFF4CFCEF4CECDF4CDCCF4CC22C3E442
:100790009FFFE49EFEE49DFDE49CFC22EB9FF5F0B0
:1007A000EA9E42F0E99D42F0E89C45F022E8600FA5
:1007B000ECC313FCED13FDEE13FEEF13FFD8F12293
:1007C000E8600FEFC333FFEE33FEED33FDEC33FC97
:1007D000D8F122BB010789828A830207F35005E919
:1007E000F80209B1BBFE05E9F80209BD89828A83D6
:1007F0000209C9E0FCA3E0FDA3E0FEA3E0FF22E0C4
:10080000F8A3E0F9A3E0FAA3E0FB22ECF0A3EDF0FB
:10081000A3EEF0A3EFF022A42582F582E5F0358364
:10082000F58322E0FBA3E0FAA3E0F922F8E0FBA3C2
:10083000A3E0F925F0F0E582158270021583E0FA55
:1008400038F022EBF0A3EAF0A3E9F022E493FB7482
:100850000193FA740293F922D083D082F8E4937062
:1008600012740193700DA3A393F8740193F5828819
:1008700083E4737402936860EFA3A3A380DFE50EA3
:100880002582F582E50D3583F583B50D0485820E4D
:100890002210AF0685820EF50D2285820EF50DD24F
:1008A000AF22EC8EF0A4CCC5F0CCCDF8EFA4CEC531
:1008B000F02DFDE43CFCE8A42EC8C5F03DFDE43C71
:1008C000FCEFA4FFE5F028FEE43DFDE43CFC22E75C
:1008D00009F608DFFA8046E709F208DFFA803E8869
:1008E000828C83E709F0A3DFFA8032E309F608DFA0
:1008F000FA806EE309F208DFFA806688828C83E36F
:1009000009F0A3DFFA805A89828A83E0A3F608DF20
:10091000FA804E89828A83E0A3F208DFFA8042805F
:10092000D280FA80C680D4805580F28029801080E1
:10093000A680EA809A80A880DA80E280CA8029882E
:10094000848C8589828A83E493A30586F0A3058637
:10095000DFF5DEF3800B89828A83E493A3F608DF58
:10096000F9ECFAA9F0EDFB2288848C8589828A83D0
:10097000E0A30586F0A30586DFF6DEF480E3898236
:100980008A83E493A3F208DFF980D688F0EF600150
:100990000E4E60CD88F0ED2402B4040050C3F58201
:1009A000EB2402B4040050B9232345822390091F8D
:1009B00073E6FC08E6FD08E6FE08E6FF22E2FC0816
:1009C000E2FD08E2FE08E2FF22E493FC740193FDDD
:1009D000740293FE740393FF22E508243CF582E43D
:1009E0003402F583E00508229002393007039002B3
:1009F0003CE475F00112082C0205A22000E97F2ECC
:100A0000D2008018EF540F2490D43440D4FF300427
:100A10000BEF24BFB41A0050032461FFE509600204
:100A20001509050CE50C7002050B30070E90023914
:100A3000E475F00112082CEF0205E8022C8674031D
:100A4000D2078003E4C207F508900239120843E494
:100A5000F509F50BF50CE50960077F20120A1C80EB
:100A6000F5750AFFC201C200C202C203C205C20676
:100A7000C2081209E8FF700D3007057F00120A2D29
:100A8000AF0CAE0B22B4255FC2D5C2041209E8FF39
:100A900024D0B40A00501A75F00A780930D5050838
:100AA000B6FF0106C6A426F620D5047002D2038044
:100AB000D924CFB41A00EF5004C2E5D204020D1FAE
:100AC000D20180C6D20080C0D20280BCD2D580BA0A
:100AD000D20580B47F20120A1C2002077401B509D8
:100AE0000040F11209D9FF120A1C020A56D208D29C
:100AF0000680951209D9FB1209D9FA1209D9F94AC7
:100B00004B7006791D7A0E7BFF20022EE509602AC4
:100B10007E008E827583001205BB60060EEE650AAC
:100B200070F0C2D5EBC0E0EAC0E0E9C0E0EE120D23
:100B300080D0E0F9D0E0FAD0E0FB1205A2FF60AA75
:100B4000EBC0E0EAC0E0E9C0E0120A1CD0E02401FA
:100B5000F9D0E03400FAD0E0FBE50A0460DCD50A05
:100B6000D98087D20280A2120D6260F7E50A700177
:100B7000041202F8A90A600DE50A600914F50A12C8
:100B80000E0AEF60F3EA30E702F404C3995079EA01
:100B9000F4250A0430E701E404F50A800D120D6221
:100BA00060C1EA050A250A1202F8EA900268F030EC
:100BB000E701E4250A04D50A0420050114120D807A
:100BC000E4C0E0120E0A900268E0601320E7071408
:100BD000F0120A04802204F0D0E014C0E07F00127A
:100BE0000A04E50A60071209FB150A800B300503A9
:100BF0001209FBD0E0020A56D0E00480C4120D6254
:100C0000609EE50A041202F8900268EAF0E50A2004
:100C100005026001042404120D8074FF04C0E01278
:100C20000E0A120A04E50A20050260031209FBD02D
:100C3000E0B50AE87F45120A0E900268E07F2B308B
:100C4000E7047F2DF404C0E0120A1CD0E075F00A1E
:100C500084C0F0120A05D0E0120A05020A56791083
:100C600080027908C206C2088008D2D5790A8004B9
:100C7000790AC2D5E50A047002F50AE4FAFDFEFF1E
:100C80001209D9FC7B082001131209D9FD7B103011
:100C9000000A1209D9FE1209D9FF7B20EC3382D554
:100CA00092D55013C3E43000069FFFE49EFEE4207B
:100CB00001039DFDE49CFCE4CBF8C201EC700CCF79
:100CC000CECDCCE824F8F870F38017C3EF33FFEEF5
:100CD00033FEED33FDEC33FCEB33FB994002FB0FAD
:100CE000D8E9EB300105F8D0E0C448B201C0E00A11
:100CF000EC4D4E4F78207B0070C2EAB50A0040BC34
:100D0000C0E0120D82D0F0D0E0200104C4C0E0C4E5
:100D1000B201C0F0120A05D0F0D5F0EB020A56126B
:100D200008580AF3530C5E580AC44C0AC0420C62BD
:100D30004F0C6A440C6A490AD9430C70550B9D4606
:100D40000BFD450B67470E3D500AC82D0ACC2E0AF5
:100D5000EF2B0AD0230AED200E262A0A884800002D
:100D60000AE7E50AB4FF03750A061209D9FC12095D
:100D7000D9FD1209D9FE1209D9FF9002610203358B
:100D8000790AA2D5200314300509B910020404B968
:100D9000080104A2D5200602500104200268920234
:100DA000B509005034C0E07F203003197F30A20223
:100DB00072067205500F120DD9C202C206C205C2D8
:100DC000087F30800F300503E9C0E0120A1C3005AF
:100DD00003D0E0F9D0E0B509CC3005177F30B91069
:100DE0000C120A1C7F583004077F788003B908036F
:100DF000120A1C3002057F2D020A1C7F202008F8F1
:100E00007F2B2006F322920280CF7F00B407005090
:100E10000B2461F582E43402F583E0FF22286E752D
:100E20006C6C2900D2011209D93001F8C20178098D
:100E300030D50108F6020A882D504349581209D9C5
:100E40002403B405004001E4900E3893120A0D7497
:100E50003A120A0DD203750904020C5E900239EFB2
:100E6000F090023AECF0A3EDF090023CEAF0A3EB34
:100E7000F090023FE0FFEFD39400500302105B902C
:100E8000023FE0FFEFD39401400302105B90023970
:100E9000E0FFEF1208580EA9010EA9040ED6070FA5
:100EA00001080F2C0A00000F5790023EE0FFEFD31D
:100EB000940F40117B0C7A0179181230A5900240F2
:100EC000EFF0020F5C7B0C7A01791C1230A59002C6
:100ED00040EFF0020F5C90023EE0FFEFD3940F4032
:100EE000107B0C7A0179191230A5900240EFF08046
:100EF0006B7B0C7A01791D1230A5900240EFF080D7
:100F00005B90023EE0FFEFD3940F40107B0C7A0120
:100F1000791A1230A5900240EFF080407B0C7A01E4
:100F2000791E1230A5900240EFF0803090023EE032
:100F3000FFEFD3940F40107B0C7A01791B1230A580
:100F4000900240EFF080157B0C7A01791F1230A5DA
:100F5000900240EFF08005900240E4F0900240E003
:100F6000FFEF3395E0FEFDFC7B207A0079007800EE
:100F700012064AA804A905AA06AB0790023AE0FEA9
:100F8000A3E0FFE4FCFD12062F90024112080B9033
:100F900002411207F3AB07AA06A905A804A804A9F1
:100FA00005AA06AB0790023CE0FEA3E0FFE4FCFDCF
:100FB00012064A90024712080B7B007A807900786B
:100FC000009002471207F31206D5900245EEF0A3F7
:100FD000EFF090023EE0FFEFC3940E5047900245C1
:100FE000E0FEA3E0FF90023EE0FDC3740E9DFDEF26
:100FF000A805088005CEC313CE13D8F9FF9002458B
:10100000EEF0A3EFF090023EE0FFEF04FF90023F0E
:10101000E0FEEE75F003A42468F582E43402F58363
:10102000EFF0801690023FE0FFEF75F003A4246814
:10103000F582E43402F583740FF0900245E0FEA3DC
:10104000E0FF90023FE0FDED75F003A42466F58219
:10105000E43402F583EEF0A3EFF0227F00122F2696
:10106000227B007A4679E81230A5EF4405FD7B002B
:101070007A4679E81230B1750A00E50AC39409503E
:101080003AAF0AEF75F005A4244EF582E43437F543
:1010900083AF82AE838E088F09AE08AF098F828E30
:1010A0008312084CAE08AF098F828E83740393FCC1
:1010B000740493FD122E9B050A80BF7B087A007989
:1010C00000122C01905883740AF07B007A767950D4
:1010D0007D047C00122E9B7B087A0279E0C003C05D
:1010E00002C0017B007A767940900243120843D017
:1010F00001D002D0037F047E00122B6F7B017A5057
:1011000079031230A5EF4402FD7B017A5079031276
:1011100030B17B017A5079131230A5EF4402FD7B88
:10112000017A5079131230B19043A0E0FFEF4440B0
:10113000FF9043A0EFF09043C2E0FFEF4410FF9018
:1011400043C2EFF07B087A0279B8C003C002C00145
:101150007B007A517902900243120843D001D002F9
:10116000D0037F087E00122B6F7B087A0279C0C003
:1011700003C002C0017B007A517922900243120819
:1011800043D001D002D0037F087E00122B6F7B0872
:101190007A0279C8C003C002C0017B007A5179424B
:1011A000900243120843D001D002D0037F087E0092
:1011B000122B6F7B087A0279D0C003C002C0017B7A
:1011C000007A517960900243120843D001D002D0D6
:1011D000037F0A7E00122B6F9044F47401F0904359
:1011E00022E0FFEF4408FF904322EFF09046ECE04E
:1011F000FFEFC394055006904689743AF09048007A
:1012000074F1F012173D90480074B1F01222747B13
:10121000007A4379A0C003C002C0017B007A437901
:10122000B0900243120843D001D002D0037F0E7E5B
:1012300000122B6F9043B0E0FFEF54FDFFEFF02260
:10124000122A037B017A007907C003C002C0017B28
:10125000FF7A29792790023C120843D001D002D0AE
:1012600003120A3E7B017A0079071227929000024E
:10127000E0FFEF640160030213469001F0747FF019
:10128000A374FFF09001F27480F0A3E4F09001F4F5
:10129000E4F0A3E4F09001F4E0FEA3E0FFC3EE94D9
:1012A00002501A9064727401F0906472E0FFEF7063
:1012B000F89001F4E475F0011205FA80D89001F07D
:1012C000E0FEA3E0FFAB07AA06EA3395E0F9F89049
:1012D00001F2E0FEA3E0FFEE3395E0FDFC12063CD8
:1012E00012283E90000312080B9000031207F3C06F
:1012F00004C005C006C007900000E0FEA3E0FFEFB9
:101300007802C333CE33CED8F9FF745A2FF58274E6
:10131000003EF583D007D006D005D00412080B900C
:101320000000E475F0011205FA900000E0FEA3E071
:10133000FFC3EF9464EE9400500302126D9000021C
:101340007402F002126D7B017A00795A7D641224D6
:1013500073EF60237B017A007907C003C002C001EC
:101360007BFF7A29793D90023C120843D001D002DC
:10137000D003120A3E80217B017A007907C003C0A6
:1013800002C0017BFF7A29795590023C120843D0B4
:1013900001D002D003120A3E7B017A00790712279E
:1013A000927FC87E007D007C0012254F900059E49A
:1013B000F0900059E0FFEFC3946440030212437BB6
:1013C000017A007907C003C002C0017BFF7A297946
:1013D0006B90023C120843900059E0FF75F004EF57
:1013E00090005A1208171207F390023F12080BD010
:1013F00001D002D003120A3E7B017A00790712273E
:10140000929001EC1207F312254F900059E004F07E
:10141000809F2290023AEEF0A3EFF090023CEDF0B4
:101420001230C790023EEFF01230BD90023FEEF056
:10143000A3EFF090023FE0FEA3E0FF90023AE0FC51
:10144000A3E0FDED6F7002EC6E70030215A79043F0
:10145000A1E0FFEF5401FF90023DEFF090023EE06B
:10146000FFEF705E90023FE0FEA3E0FFEF4E600CE6
:1014700090023AE0FEA3E0FFEF4E704690023FE09C
:10148000FEA3E0FFEF4E701D7B027A4179009002CF
:101490003AE0FCA3E0FD123073904102E0FFEF540C
:1014A000BFFFEFF022904102E0FFEF4440FFEFF07A
:1014B0007B027A41790090023AE0FCA3E0FD123011
:1014C000732290023DE0FFEF606C904001E4F090E9
:1014D00040147401F0904010E4F0904008E0FFEFF9
:1014E000547FFFEFF0904102E0FFEF5408FF7E00D1
:1014F000EF4E600C90023AE0FEA3E0FFEF4E703634
:101500007B027A40790290023FE0FCA3E0FD1230BA
:10151000739040017407F0904001E0FFEF5401FF29
:101520007E00EF4E70F19043A1E0FFEF54FEFFEF1D
:10153000F0904001E4F09043A1E0FFEF5401FF7E02
:1015400000EF4E603A7B027A40790290023AE0FC6A
:10155000A3E0FD12307390023CE0FFEF60047F02D5
:1015600080027F00EF4401FF904001EFF0904001C6
:10157000E0FFEF5401FF7E00EF4E602B80EF227BF7
:10158000027A41790090023AE0FCA3E0FD12307348
:101590009043A1C083C082E0FF90023DE0FEEF4E89
:1015A000FFD082D083EFF02290023AEEF0A3EFF06A
:1015B00090023CEDF01230DB90023EEFF01230D1A1
:1015C00090023FEEF0A3EFF090023FE0FEA3E0FFB9
:1015D00090023AE0FCA3E0FDED6F7002EC6E700348
:1015E00002173C9043A2E0FFEF5401FF90023DEF51
:1015F000F090023EE0FFEF705E90023FE0FEA3E05D
:10160000FFEF4E600C90023AE0FEA3E0FFEF4E7059
:101610004690023FE0FEA3E0FFEF4E701D7B027A92
:1016200040798090023AE0FCA3E0FD1230739040D4
:1016300082E0FFEF54BFFFEFF022904082E0FFEF27
:101640004440FFEFF07B027A40798090023AE0FC60
:10165000A3E0FD1230732290023DE0FFEF606C903A
:101660004001E4F09040107401F0904014E4F090D8
:101670004008E0FFEF547FFFEFF0904082E0FFEF83
:101680005408FF7E00EF4E600C90023AE0FEA3E0AB
:10169000FFEF4E70367B027A40790290023FE0FC09
:1016A000A3E0FD1230739040017407F0904001E018
:1016B000FFEF5401FF7E00EF4E70F19043A2E0FF78
:1016C000EF54FEFFEFF0904001E4F09043A2E0FF02
:1016D000EF5401FF7E00EF4E603A7B027A407902C0
:1016E00090023AE0FCA3E0FD12307390023CE0FF70
:1016F000EF60047F0280027F00EF4401FF90400111
:10170000EFF0904001E0FFEF5401FF7E00EF4E60EC
:101710002B80EF227B027A40798090023AE0FCA392
:10172000E0FD1230739043A2C083C082E0FF9002BC
:101730003DE0FEEF4EFFD082D083EFF0227B007AB7
:101740004079807D007C001230719040827450F0AE
:101750007B007A4079847D387C011230719040861C
:101760007418F07B007A4079887D767C04123071A1
:1017700090408A7418F07B087A0279DCC003C002BA
:10178000C0017B007A417900900243120843D001E6
:10179000D002D0037F047E00122B6F9043007402AE
:1017A000F09040007408F09042007403F07B0C7AD3
:1017B0000179081230A59046A1EFF07B007A4279BA
:1017C000227D087C001230717B007A4279207D51A5
:1017D0007C1212307190023DE4F07F197E007D0092
:1017E0007C0090023912080B9002391207F3D3EFF4
:1017F0009400EE9400404E90023DE0FFEF640360E1
:1018000044904225E0FFEF5401FF7E0090023DE04E
:10181000FEEE25E0FEEE4FFFEF5403FF90023DEF9A
:10182000F07FE07E017D007C00122B0090023912D7
:1018300007F37BFF7AFF79FF78FF12062F900239BA
:1018400012080B80A39002391207F3EF4E70057F48
:1018500003122FE07B007A4079047D007C01123076
:10186000719040047407F0904006E4F090400874D2
:1018700048F0904004E4F09040017402F090400B76
:101880007404F09043A2E0FFEF4407FF9043A2EFFF
:10189000F09043A1E0FFEF4401FF9043A1EFF090EF
:1018A00043A0E0FFEF4480FF9043A0EFF02290437D
:1018B000A6E0FFEF4410FFEFF090C780E0FFEF5489
:1018C000FEFFEFF090C788743FF090C78C743FF034
:1018D0007BFF7A31790EC003C002C0017B017AC45C
:1018E0007900A801AC02AD03D001D002D0037E0183
:1018F0007F0012098B7BFF7A31790EC003C002C0D2
:10190000017B017AC57900A801AC02AD03D001D0FA
:1019100002D0037E017F0012098B7BFF7A36794E5D
:10192000C003C002C0017B017AC67900A801AC02E5
:10193000AD03D001D002D0037E017F0012098B7B62
:10194000FF7A32790EC003C002C0017B017AC079F0
:1019500000A801AC02AD03D001D002D0037E027F0B
:101960000012098B7BFF7A34790EC003C002C001DC
:101970007B017AC27900A801AC02AD03D001D0028C
:10198000D0037E027F0012098B7BFF7A36790EC06E
:1019900003C002C0017B017AC77900A801AC02AD87
:1019A00003D001D002D0037E007F4012098B90C784
:1019B0008CE4F07F00122E0F7F01122E2D90C78431
:1019C00074F8F02275930078007583467582E8E01C
:1019D0004401F0009046ECE0F99046FAE0FAB903D1
:1019E000225420B40012B8001AEA901FFFF07401CC
:1019F000901FFEF09046F6F0901FFEE06005901FED
:101A0000FFE0FA90480074C0F075812190000078E2
:101A1000007920E4F0A3D8FCD9FAEA900282F0021F
:101A20000011750D1F750EFD12106112288D021A1E
:101A30006C021240E493A3F8E493A34003F6800100
:101A4000F208DFF48029E493A3F85407240CC8C3F8
:101A500033C4540F4420C8834004F456800146F632
:101A6000DFE4800B01020408102040809021DBE4B9
:101A70007E019360BCA3FF543F30E509541FFEE490
:101A800093A360010ECF54C025E060A840B8E49352
:101A9000A3FAE493A3F8E493A3C8C582C8CAC58394
:101AA000CAF0A3C8C582C8CAC583CADFE9DEE78019
:101AB000BE900239EFF0900277E4F0900239E0FF37
:101AC000EF64016003021B90904E007438F0904E5A
:101AD000027404F0904E037407F0904E04E4F0900A
:101AE0004E05E4F0904E06743FF0904E08E4F090FE
:101AF0004E09E4F0904E0AE4F0904E147401F09018
:101B000058847450F09058857427F0905886742C3F
:101B1000F0905887E4F090588A7455F090588B7480
:101B20005AF090588C7405F090588E7401F09058CB
:101B30008F7411F09058907419F09058917497F038
:101B40007F441227EB9058947458F0905895E4F025
:101B500090589A7405F090589B7401F090589CE44A
:101B6000F090589D740AF07F007E7D7D007C00908F
:101B7000026D12080B7D017F087E001215A87D0101
:101B80007F257E001214137C2A7DFF7F1D1222FE0A
:101B900022900239EFF07BFF7A37797BC003C002D5
:101BA000C0017B017A02793AA801AC02AD03D001F1
:101BB000D002D0037E007F0912098B7BFF7A377930
:101BC00084C003C002C0017B017A027943A801AC42
:101BD00002AD03D001D002D0037E007F0912098B31
:101BE000900239E0FFEFD39408507E90580AE0FF4E
:101BF000EF5480FFEFF090580AC083C082E0FF905E
:101C00000239E0FE74432EF582E43402F583E0FEEF
:101C1000EE25E025E0FEEE540CFE900239E0FD7466
:101C20003A2DF582E43402F583E0FDEE4DFEEF4EF1
:101C3000FFD082D083EFF0905809E0FFEF54F3FF1C
:101C4000EFF0905809C083C082E0FF900239E0FEB7
:101C500074432EF582E43402F583E0FEEE440CFE7C
:101C6000EF4EFFD082D083EFF022122FB990023ACC
:101C7000EFF0900271E0FF900239EFF09043AAE09C
:101C8000FFEF4401FFEFF09043AAE0FFEF4410FFA5
:101C9000EFF09043BAE0FFEF4401FFEFF09043BA5A
:101CA000E0FFEF4410FFEFF09046F8E0FFEF440252
:101CB000FFEFF09046F9E0FFEF4402FFEFF090589D
:101CC00091E0FFEF4403FFEFF07F037E00122BD47F
:101CD0009046F8E0FFEF54FDFFEFF09046F9E0FF8B
:101CE000EF54FDFFEFF0905877E0FFEF4406FFEF71
:101CF000F0905882747AF09043A1E0FFEF4401FF26
:101D0000EFF09043B1E0FFEF4401FFEFF09043A20A
:101D1000E0FFEF4401FFEFF09043B2E0FFEF44013A
:101D2000FFEFF09044DB7420F09044C37420F090F7
:101D3000023AE0FF122EB4229002717401F0900278
:101D40006CE4F07F10122D557F10122D347D077F2B
:101D50001D1226789058967407F0905897E4F090EA
:101D6000589EE4F0905B07E0FFEF4418FFEFF0901F
:101D70005893E4F0905B88E4F0905B89E4F090582D
:101D800080740AF0905881E4F0905883E4F0905801
:101D900088745BF0905889745EF090588DE4F090F0
:101DA0004E017414F090023E7410F090023F7401E2
:101DB000F07B007A807DDA7C907F04120E5C9002CA
:101DC00071E0FFEF75F003A42468F582E43402F5B6
:101DD00083E0FF904E0EEFF0900271E0FFEF75F0A0
:101DE00003A42466F582E43402F583E0FCA3E0FD5D
:101DF0007B027A4E790C123073900271E0FF121A56
:101E0000B122900241EFF0900242EDF0900243EBDC
:101E1000F09002477401F0900241E0FFEFC3941884
:101E20004003021EB5900243E0FFEF5401FF7E0025
:101E3000EF75F080A4FFAEF0900242E0FEEE547F1A
:101E4000FEEE4FFF900241E0FE75F008EE90760046
:101E5000120817EFF0900245E0FFEF540FFF7E00ED
:101E6000EF75F010A4FFAEF0900244E0FEEE540FC8
:101E7000FEEE4FFF900241E0FE75F008EE90760115
:101E8000120817EFF0900246E0FFEF540FFF9002A8
:101E900041E0FE75F008EE907602120817EFF09020
:101EA0000241E0FF75F008EF907603120817E4F0A6
:101EB000900247E4F0900247E0FF2290023BEFF0EF
:101EC00090023CECF0A3EDF090023EEBF09002406B
:101ED0007401F090023BE0FFEFC39480507A9002CF
:101EE0003CE0FEA3E0FFEE54F0FE7F00EF4E706892
:101EF00090023BE0FF7E08EF8EF0A4FFAEF0EF24EF
:101F000000FFEE3478FE900241EEF0A3EFF0900275
:101F100041E0FEA3E0FFAA06A9077B0190023CE096
:101F2000FCA3E0FD12307390023EE0FF90023BE024
:101F3000FE75F008EE907802120817EFF090023F5D
:101F4000E0FF90023BE0FE75F008EE907803120887
:101F500017EFF0900240E4F0900240E0FF22900280
:101F600039EFF090023AEDF0900239E0FFEF703F68
:101F700090C7B0E0FFEF54CCFFEFF090C7B0C08344
:101F8000C082E0FF90023AE0FEEF4EFFD082D083A5
:101F9000EFF090C7B0C083C082E0FF90023AE0FE4D
:101FA000EEC454F0FEEF4EFFD082D083EFF02290CB
:101FB0000239E0FFEF6401704690C7B0E0FFEF54D4
:101FC00033FFEFF090C7B0C083C082E0FF90023AC9
:101FD000E0FEEE25E025E0FEEF4EFFD082D083EF5D
:101FE000F090C7B0C083C082E0FF90023AE0FEEEFE
:101FF000C4333354C0FEEF4EFFD082D083EFF022C3
:10200000900241EFF0900242ECF0A3EDF090024418
:10201000EAF0A3EBF09002467401F0900241E0FF79
:10202000EFC394185073900241E0FF7E08EF8EF0EA
:10203000A4FFAEF0EF2404FFEE3476FE900247EEEC
:10204000F0A3EFF0900247E0FEA3E0FFAA06A90785
:102050007B01900242E0FCA3E0FD1230739002414C
:10206000E0FF7E08EF8EF0A4FFAEF0EF2406FFEE57
:102070003476FE900247EEF0A3EFF0900247E0FEC8
:10208000A3E0FFAA06A9077B01900244E0FCA3E0BD
:10209000FD123073900246E4F0900246E0FF229079
:1020A000023BEFF090023CECF0A3EDF090023EEA30
:1020B000F0A3EBF09002407401F090023BE0FFEFE0
:1020C000C39480507390023BE0FF7E08EF8EF0A433
:1020D000FFAEF0EF2404FFEE3478FE900241EEF004
:1020E000A3EFF0900241E0FEA3E0FFAA06A9077B60
:1020F0000190023CE0FCA3E0FD12307390023BE053
:10210000FF7E08EF8EF0A4FFAEF0EF2406FFEE3462
:1021100078FE900241EEF0A3EFF0900241E0FEA3C2
:10212000E0FFAA06A9077B0190023EE0FCA3E0FDC8
:10213000123073900240E4F0900240E0FF22C0E0D1
:10214000C083C082C085C084C086758600C0937578
:102150009300C0D075D000C000C004C005C006C048
:1021600007906472E4F09001F0E0FEA3E0FF9000BD
:1021700057E0FCA3E0FDC3ED9FEE6480F8EC6480C3
:10218000985010900057E0FEA3E0FF9001F0EEF0B1
:10219000A3EFF09001F2E0FEA3E0FF900057E0FC17
:1021A000A3E0FDD3ED9FEE6480F8EC6480984010CE
:1021B000900057E0FEA3E0FF9001F2EEF0A3EFF0F5
:1021C000D007D006D005D004D000D0D0D093D08690
:1021D000D084D085D082D083D0E0324201F000009C
:1021E0004201F20000440003000000004201F4003C
:1021F000004401EC000000C8410002014100590008
:102200004101EA004101EB00420000000041028C64
:102210008041028B7F4402870000050044027E015A
:102220006E360044027900005DC041027D18440210
:10223000832EE0000041026C0041027700410272EF
:10224000004102780041027101410294FF41029570
:102250000041029600410297FF4102980041029915
:10226000004102930041029A0043028D00000041A8
:10227000029B00007B0C7A0179CF1230A5900239C5
:10228000EFF0900239E0FFEF5407FF90586EEFF047
:10229000900239E0FFEFC4540FFFEF540FFF905846
:1022A0006FEFF090510D7482F090512C7440F090CB
:1022B000513D7480F090586C7409F0905A2074204D
:1022C000F0905A247480F0905A287440F0905A8309
:1022D0007401F0905ACB7440F0905ACC7410F09086
:1022E0005B007440F0905B047480F0905B46742156
:1022F000F0905B587480F09058767444F02290020D
:102300003AEFF090023BECF0A3EDF090023AE0FFE0
:10231000EFD3941F5003D38001C340057F00122FD9
:102320002690023AE0FFEF541FFF7E00EF25E0FF0A
:10233000EE33FEEF2400FFEE3444FEAA06A9077B2D
:102340000112306490023DEEF0A3EFF090023AE00B
:10235000FF7E02EF8EF0A4FFAEF0EF2400FFEE341C
:1023600044FEAA06A9077B0190023BE0FEA3E0FF22
:10237000AD07AC0612307390023DE0FEA3E0FF22F1
:1023800090023FE4F0A3E4F07B007A007D017F023D
:102390001225B5900239EFF01228DA90023AEFF0E8
:1023A00090023AE0FF90023F7487F07BFF7D027C51
:1023B00000121EBB90023AE0FFC0077B017A007951
:1023C00057AF01AE02AD037C00EF54FFFFEE54FFA8
:1023D000FEED5400FDEC5400FCAB07AA06D0077DCF
:1023E000A97CC712209F900239E0FF90023AE0FDDD
:1023F000122A8D900239E0FF7D011223FE22900205
:102400003BEFF090023CEDF090023D7401F0900241
:102410003BE0FFEFC39418505490023CE0FFEF60A4
:102420001990023BE0FF75F010EF90701012081742
:10243000E0FFEF4420FFEFF0801790023BE0FF75D4
:10244000F010EF907010120817E0FFEF54DFFFEF6D
:10245000F090023BE0FF75F010EF9070101208173B
:10246000E0FFEF4401FFEFF090023DE4F090023D09
:10247000E0FF2290023912084390023CEDF09002F6
:102480003DE4F0A37401F090023CE0FF7E00900276
:102490003DE0FCA3E0FDC3ED9FEE6480F8EC6480BA
:1024A00098503E90023DE0FEA3E0FFEF7802C33378
:1024B000CE33CED8F9FF900239120823E92FF9EA7A
:1024C0003EFA1207D37BCD7ACC79CC783D1201C08D
:1024D00050037F012290023DE475F0011205FA805D
:1024E000A67F0022900241EFF0900242EDF09002B0
:1024F000447401F0900241E0FFEFC39418504A90F9
:102500000241E0FF75F010EF907010120817E0FF25
:10251000EF54F1FF900243EFF0900242E0FFEF54DE
:1025200007FF7E00EF25E0FFEE33FE900243E0FE62
:10253000EF4EFF900241E0FE75F010EE9070101229
:102540000817EFF0900244E4F0900244E0FF22907C
:10255000FFFC12087E12080B850D83850E82120780
:10256000F3D3EF9400EE9480402F9002831207F390
:10257000122B00850D83850E82C083C0821207F363
:10258000EF2400FFEE3480FEED34FFFDEC34FFFC61
:10259000D082D08312080B80BF9002791207F38596
:1025A0000D83850E821207FF12064A122B0090003F
:1025B0000412087E2290023BEFF090023CEDF09076
:1025C000023DEAF0A3EBF09002977408F0900297B6
:1025D000E0FF90023BE0FD90023CE0FB900244747F
:1025E00008F0900245E4F0900246E4F0121E0290DA
:1025F0000297E0FF90023DE0FCA3E0FD90023FE087
:10260000FAA3E0FB122000900297E0FF7D02122463
:10261000E4900297E0FF2290023BEFF090023CED45
:10262000F090023DEAF0A3EBF0900294740AF0906F
:102630000294E0FF90023BE0FD90023CE0FB900240
:1026400044E4F0900245E4F0900246E4F0121E02E9
:10265000900294E0FF90023DE0FCA3E0FD90023F79
:10266000E0FAA3E0FB122000900294E0FF7D02124A
:1026700024E4900294E0FF22900239EFF090023AB5
:10268000EDF090023AE0FFEFD394075003D38001BE
:10269000C340057F00122F26900239E0FFEFD3944C
:1026A0001F5003D38001C340057F00122F269002E4
:1026B0003AE0FFEF5407FF7E00EF75F020A4FFAE75
:1026C000F0900239E0FEEE541FFE74802EF582E495
:1026D0003444F583EFF022906470E0FFEF54C0FFC4
:1026E000900239EFF0900239E0FFEF4409FF906467
:1026F00070EFF0906493E0FFEF4401FFEFF07FFF95
:102700001230027FFF1230127F7F1230227F7F1241
:1027100030327F00123042122FB990023AEFF0901F
:102720006493E0FFEF4410FFEFF090023AE0FF12F5
:102730002EB41230802290023FE4F0A3E4F07B003C
:102740007A007D017F02122617900239EFF01228DD
:10275000DA90023AEFF090023AE0FF90023F740202
:10276000F07BFF7D027C00121EBB90023AE0FF7BF3
:10277000A17AC77D107C4E12209F900239E0FF9015
:10278000023AE0FD122A8D900239E0FF7D0112230A
:10279000FE2290023912084390023CE4F0A3E4F0D8
:1027A000900293E0FFEF60429002391208239002FA
:1027B0003CE0FEA3E0FFE92FF9EA3EFA1205A2FF92
:1027C000EF602790023912082390023CE0FEA3E05C
:1027D000FFE92FF9EA3EFA1205A2FF122E829002BB
:1027E0003CE475F0011205FA80BE2290023AEFF047
:1027F000122FB990023BEFF09046F8E0FFEF440350
:10280000FFEFF09046F9E0FFEF4403FFEFF0900296
:102810003AE0FF905892EFF07F037E00122BD490A5
:1028200046F8E0FFEF54FCFFEFF09046F9E0FFEFD1
:1028300054FCFFEFF090023BE0FF122EB422900216
:102840003912080B9002391207F39002731207FF36
:1028500012063C90023912080B90026D1207F3EC3D
:10286000120239C004C005C006C007900239120721
:10287000F3EC120239D003D002D001D000120123B0
:1028800090023D12080B90023D1207F32290028B3A
:10289000747FF090028C7480F0900239747FF09015
:1028A0000239E0FFEF6021900239E0FFEF14FF9062
:1028B0000239E0FE75F008EE907800120817EFF08C
:1028C000900239E014F080D7900239E0FF75F008EB
:1028D000EF907800120817E4F02290023C74FFF0A9
:1028E000122FB990023BEFF090028CE0FFEFD394EF
:1028F00018402690028BE0FF90023CEFF090028C93
:10290000E014F090023CE0FF75F008EF90780012C0
:102910000817E0FF90028BEFF090023BE0FF122ED1
:10292000B490023CE0FF2250686173652031206959
:102930006E697469616C697A65640A0D00536F751C
:102940006E642076616C7565206F76657220302E1E
:1029500031210A0D00536F756E642076616C7565C8
:10296000206973206F6B2E2E0A0D0025362E3366DC
:102970000A0D00C0E0C083C082C085C084C08675D7
:102980008600C093759300C0D075D000C006C00704
:10299000900057E0FEA3E0FFEEFF3395E0FEEF244A
:1029A00080FF905B80EFF0D007D006D0D0D093D0DE
:1029B00086D084D085D082D083D0E032905820E079
:1029C000FFEF540CFF7E00EF7802CEC313CE13D876
:1029D000F9FFEF2406FF90023AEFF090023AE0FF91
:1029E000E4FCFDFEEF2420FFEE3401FEED340CFD8F
:1029F000EC3400FCA907AA06AB051230A5904608E6
:102A0000EFF022122F65122F7A122E4B7F02122A1C
:102A1000C912308D122736122F507D027F00121FEF
:102A20005E1223807E297F73122D76122E687E21FE
:102A30007F3E122D95906472E4F0122FA4122F8F16
:102A4000D2AF9044F474FDF022C2D5E830E70FB263
:102A5000D5E4C39BFBE49AFAE499F9E498F8EC30E6
:102A6000E717B2D5122A7F1206D5E4C39BFBE49A7E
:102A7000FAE499F9E498F880031206D530D50DE40C
:102A8000C39FFFE49EFEE49DFDE49CFC2290023B7C
:102A9000EFF090023CEDF090023D7401F090023BAB
:102AA000E0FFEFC39418501B90023CE0FF90023B04
:102AB000E0FE75F010EE907019120817EFF090021A
:102AC0003DE4F090023DE0FF22900239EFF0904E9D
:102AD00014E0FFEF54FCFF90023AEFF090023AE06E
:102AE000FF900239E0FEEE5403FEEF4EFF90023AF3
:102AF000EFF090023AE0FF904E14EFF022323232C3
:102B0000EC4D4E700D78FCEF24E950032840FD2277
:102B100000007BF178DA0000EF28FF78FFEE38FE46
:102B2000ED38FDEC38FC50E7EF2BFFEE38FEED38CA
:102B3000FDEC38FC40F22205020304900239EFF06C
:102B4000905809E0FFEF54FCFF90023AEFF090023A
:102B50003AE0FF900239E0FEEE5403FEEF4EFF90A4
:102B6000023AEFF090023AE0FF905809EFF0227538
:102B70008600EF4E6027EF60010E759300900243D0
:102B8000E0F595A3E0F585A3E0F5848B938A83892E
:102B900082E0A30586F0A31586DFF6DEF4E4F59364
:102BA000F59522900239EFF0905820E0FFEF54F3B2
:102BB000FFEFF0905820C083C082E0FF900239E020
:102BC000FEEE540CFEEF4EFFD082D083EFF01229C0
:102BD000BC223232EEFA90027DE0F88FF0A4FFAE14
:102BE000F0E88AF0A42EFEE5F03400FDEF24C9FFE2
:102BF00078FFEE38FEED38FDE438FC5003022B0080
:102C000022ACEAADA08B938A838982E0F96017A396
:102C1000E0F5EAA3E0F5A0A3E060F4FAA3E0F8A3EE
:102C2000E0F2DAF8D9E98DA08CEAE4F5932290027B
:102C300039EFF0905820E0FFEF54FDFFEFF090588F
:102C400020C083C082E0FF900239E0FEEE5402FE15
:102C5000EF4EFFD082D083EFF022900239EFF09058
:102C6000585EE0FFEF54FCFFEFF090585EC083C069
:102C700082E0FF900239E0FEEE5403FEEF4EFFD0FB
:102C800082D083EFF022EFB40A07740D122C9174F6
:102C90000A309811A899B8130CC2983098FDA899D9
:102CA000C298B811F63099FDC299F599229043A6C1
:102CB000E0FFEF4410FFEFF09043B6E0FFEF441069
:102CC000FFEFF090C780E0FFEF4401FFEFF02290AC
:102CD0005877E0FFEF4460FFEFF09043A4E0FFEF90
:102CE0004408FFEFF09043B4E0FFEF4408FFEFF03B
:102CF000229043A9E0FFEF4404FFEFF09043B9E0D6
:102D0000FFEF4404FFEFF0905877E0FFEF4480FFBF
:102D1000EFF022905808740CF0905809E0FFEF444F
:102D200020FFEFF090580AE4F07F08121B917F0318
:102D3000122B3B22900239EFF0904102C083C082F7
:102D4000E0FF900239E0FEEE54F8FEEF4EFFD08235
:102D5000D083EFF022900239EFF0904082C083C020
:102D600082E0FF900239E0FEEE54F8FEEF4EFFD015
:102D700082D083EFF022900239EEF0A3EFF0123010
:102D8000EC900239E0FEA3E0FF122DD37F06122E55
:102D9000FA1230E522900239EEF0A3EFF01230FA89
:102DA000900239E0FEA3E0FF122DF17F07122F10F1
:102DB0001230F322122FB9900239EFF0906491E0B3
:102DC000FFEF4410FFEFF0122EE3900239E0FF1204
:102DD0002EB42290023BEEF0A3EFF07B027A44790E
:102DE0000090023BE0FEA3E0FFAD07AC061230739B
:102DF0002290023BEEF0A3EFF07B027A447902903E
:102E0000023BE0FEA3E0FFAD07AC06123073229058
:102E10000239EFF0900239E0FFEF541FFF900239C2
:102E2000EFF0900239E0FF90C798EFF0229002395E
:102E3000EFF0900239E0FFEF540FFF900239EFF00E
:102E4000900239E0FF90C79CEFF022900272E0FF01
:102E5000EF7011900278E0FFEF7003121D389002BE
:102E6000727401F0121C6A22900295E0FFEF700963
:102E7000122F3B9002957401F0122ECC7F64122F1A
:102E8000F22290023EEFF0906461E0FFEF20E2F763
:102E900090023EE0FF906442EFF022EC4D6011EDB5
:102EA00060010C8B938A838982E4F0A3DDFCDCFA59
:102EB00075930022EF54016004D2AF8002C2AFEFDD
:102EC0005402FF9044F4E054FD4FF0229043A8E0F8
:102ED000FFEF4401FFEFF09043B8E0FFEF4401FF44
:102EE000EFF0229043A2E0FFEF4402FFEFF09043A7
:102EF000B2E0FFEF4402FFEFF02290023BEFF090D0
:102F0000023BE0FFEFC43354E0FF904480EFF02237
:102F100090023BEFF090023BE0FFEFC43354E0FF40
:102F2000904481EFF02290FFFF12087EEFF0904670
:102F3000EA7401F090000112087E22905820E4F01B
:102F4000905821E4F07F04122BA37F02122C2E2232
:102F5000900296E0FFEF70091218AE90029674018D
:102F6000F0122CAD22900298E0FFEF7009900298C9
:102F70007401F0123101122CCF22900299E0FFEF80
:102F80007009122D139002997401F0122CF1229005
:102F90000293E0FFEF7009122FCE9002937401F0BC
:102FA000122DB42290029AE0FFEF70091226D790FA
:102FB000029A7401F0123099229044F4E0F844022D
:102FC000F0E85402FF10AF012274014FFF22906419
:102FD000217407F09064317448F0906481E4F02229
:102FE00090023EEFF090023EE0FF90023EEFF08054
:102FF000FE22900239EFF0900239E0FF905B80EF03
:10300000F02290023BEFF090023BE0FF906403EF70
:10301000F02290023BEFF090023BE0FF906443EF20
:10302000F02290023BEFF090023BE0FF906423EF30
:10303000F02290023BEFF090023BE0FF906433EF10
:10304000F02290023BEFF090023BE0FF906483EFB0
:10305000F022906463E0FF90023BEFF090023BE0CF
:10306000FF228B938A838982E0FFA3E0FE759300A1
:10307000228B938A838982EDF0A3ECF07593002272
:10308000123052EF30E40512310780F422904E00E6
:10309000E0FFEF4401FFEFF022906470E0FFEF44A7
:1030A00080FFEFF0228B938A838982E0759300FF83
:1030B000228B938A838982EDF0759300227B027ABA
:1030C00041790012306422904102E0FFEF5407FF83
:1030D000227B027A40798012306422904082E0FFA5
:1030E000EF5407FF229044C07401F0229044C8744A
:1030F00001F0229044C07402F0229044C87402F09F
:10310000227F03122C5A22906453E0FF22322013B4
:1031100000256117802601008026E00E8026C20C63
:103120008026020080066587186D6409183E00003D
:103130008026032080262102187F00000000000066
:10314000000000000000000000000000000000007F
:10315000000000000000000000000000000000006F
:10316000000000000000000000000000000000005F
:10317000000000000000000000000000000000004F
:1034000000000000000000000000000000006EE668
:10341000FF006A4A0000A96D00003E88FF00237B80
:10342000FE003D1A00001A990300972E02006EC29A
:10343000F9008BF4F600947D0800BE002700CA8DC9
:103440003600BE002700947D08008BF4F6006EC2A3
:10345000F900972E02001A9903003D1A0000237B01
:10346000FE003E88FF00A96D00006A4A00006EE67B
:10347000FF0000000000000000000000000000004D
:10348000000000000000000000000000000000003C
:10349000000000000000000000000000000000002C
:1034A000000000000000000000000000000000001C
:1034B000000000000000000000000000000000000C
:1034C00000000000000000000000000000000000FC
:1034D00000000000000000000000000000000000EC
:1034E00000000000000000000000000000000000DC
:1034F00000000000000000000000000000000000CC
:1035000000000000000000000000000000000000BB
:1035100000000000000000000000000000000000AB
:10352000000000000000000000000000000000009B
:10353000000000000000000000000000000000008B
:10354000000000000000000000000000000000007B
:10355000000000000000000000000000000000006B
:10356000000000000000000000000000000000005B
:10357000000000000000000000000000000000004B
:10358000000000000000000000000000000000003B
:10359000000000000000000000000000000000002B
:1035A000000000000000000000000000000000001B
:1035B000000000000000000000000000000000000B
:1035C00000000000000000000000000000000000FB
:1035D00000000000000000000000000000000000EB
:1035E00000000000000000000000000000000000DB
:1035F00000000000000000000000000000000000CB
:103600000000000000000000000000000000180C96
:1036100000000000000000000000000000000000AA
:10362000000000000000000000000000000000009A
:10363000000000000000000000000000000000008A
:10364000000000000000000000000000000021F861
:1036500005014210864064F8150181F805014351C7
:103660008E210000000000000000000000000000AB
:10367000000000000000000000000000000000004A
:10368000000000000000000000000000000000003A
:10369000000000000000000000000000000000002A
:1036A000000000000000000000000000000000001A
:1036B000000000000000000000000000000000000A
:1036C00000000000000000000000000000000000FA
:1036D00000000000000000000000000000000000EA
:1036E00000000000000000000000000000000000DA
:1036F00000000000000000000000000000000000CA
:1037000000000000000000000000000000000000B9
:1037100000000000000000000000000000000000A9
:103720000000000000000000000000000000000099
:103730000000000000000000000000000000000089
:103740000000000000000000000000000000005128
:1037500010001000515000100051C000100051F036
:103760000010010000100001140008000140000AD0
:1037700000014C00020001500000200111213141E4
:0D3780006153637308090101050707040484
:00000001FF
