:10000000021A90008F828E83E0540100000070F885
:100010002278FFE4F6D8FD021AEE0203DBE86480E2
:10002000F8E933E83360110460F0ED33EC33700924
:10003000E8FCE9FDEAFEEBFF220460DED3EB9FEA79
:100040009EE99DE8C2E78CF0C2F795F0400CE8CC41
:10005000F8E9CDF9EACEFAEBCFFB1203A685D0F092
:100060005804700320D5B3E80470075002B2D502DB
:1000700003E592D5EC0460F7E4CCC0E0C398F860E7
:100080003B94186008400DD0E0FB0203BDE4FBFA8E
:10009000C9FC8028E830E406E4C9FBE4CAFCE83087
:1000A000E305E4C9CACBFCE854076010F8C3E913C0
:1000B000F9EA13FAEB13FBEC13FCD8F130F52FC37C
:1000C000E49CFCEF9BFFEE9AFEED99FDD0E0FBEF88
:1000D0004E4D4C701222DB030203E2EC2CFCEF339A
:1000E000FFEE33FEED33FDED30E7EB0203BDEF2B0A
:1000F000FFEE3AFEED39FDD0E0FB50130BBB0003E1
:100100000203E5ED13FDEE13FEEF13FFEC13FC020B
:1001100003BDEC4D6011E8497017ED33EC3304601A
:100120000DE4FCFFFEFD22E933E8330470F802031E
:10013000DB1203A658046009E4CC24815006285041
:10014000090203E52840030203E2C0E0EB4A7044E1
:10015000B98006D0E0FB0203D1EF4E701CBD8008D1
:10016000EBFFEAFEE9FD80EBE98DF0A4FEE5F0028D
:1001700001FBE9CDF9EAFEEBFFEF89F0A4FCE5F025
:10018000CE89F0A42EFFE435F0CD89F0A42DFEE455
:1001900035F08067EF4E7005BD80D780C3EF8BF0E0
:1001A000A4ACF0EE8BF0A42CFCE435F0F8EF8AF070
:1001B000A42CE5F038FCE433CB8DF0A42CFCE5F066
:1001C0003BF8EE8AF0A42CFCE5F038F8E433CF8954
:1001D000F0A42CFCE5F038CF3400CE89F0A42FFF3A
:1001E000E5F03EFEE433C98DF0A42EFEE5F039CDF6
:1001F0008AF0A42FFFE5F03EFEE43DFD33D0E0FBA6
:1002000050070BBB000F0203E5EC2CFCEF33FFEEB5
:1002100033FEED33FD0203BD0203E5EC5D04600532
:10022000E8590470030203DB1203A6580460F6ECDD
:100230004860F2EC7004FDFEFF22C860DB2481C838
:100240005009C398600250060203E29850CAF58232
:10025000E9294B4A7005AB820203D175F0007C1A84
:100260007880C3EF9BEE9AED99400DC3EF9BFFEEB4
:100270009AFEED99FDE842F0DC23ACF0D0E0FFD02F
:10028000E0FED0E0FDAB8220E7101BEB60BAEC2C67
:10029000FCEF33FFEE33FEED33FD0203BDE803F860
:1002A00030E705C0F075F000EF2FFFEE33FEED33C1
:1002B000FD40B830E7C280AA74F8CC6480CCC86432
:1002C00080C8F58204604FC3EB9FF5F0EA9E42F0D0
:1002D000E99D42F0E89C45F0603C501DE5825FFFDF
:1002E000E582D313CB5BCBF42B5582FB50280ABAA3
:1002F000002409B9002008801DE5825BFBE582D35C
:1003000013CF5FCFF4C3132F5582FF50090EBE00E9
:10031000050DBD00010CC3EB9FF5F0EA9E42F0E92C
:100320009D42F0E89C45F06007CC4820E701B3EC23
:100330002275F020800E75F010800575F0087D00A4
:100340007E007F003392D530D50312078EEC334008
:1003500010EF33FFEE33FEED33FDEC33FCD5F0ED63
:1003600022E5F0247EA2D513CC92E7CDCEFF22ED7C
:10037000D2E7CD33EC3392D524814006E4FFFEFD75
:10038000FC22FCE4CFCECDCC24E0501174FF80EDF4
:10039000C3CC13CCCD13CDCE13CECF13CF0470F07E
:1003A00030D5DE02078EE9D2E7C933E833F892D5BB
:1003B000EDD2E7CD33EC33FC5002B2D522EC30E77E
:1003C000100FBF000C0EBE00080DBD00040BEB604B
:1003D00014A2D5EB13FCED92E7FD2274FFFCFDFEA9
:1003E000FF22E480F8A2D574FF13FC7D80E480EF47
:1003F000F920E73624F950037907E4F42402FBE5F9
:1004000082158270021583DBF6E024FB501BE96045
:1004100014E4F0E582158270021583E004F0B40A5A
:1004200008E4F0D9EE7401F00A22C2D522ED33ECD3
:100430003392D5FA602AB4FF33EDC2E77BFF600642
:100440007A047952E4227A04795B20D5047A04791B
:1004500056224E614E002B494E46002D494E460015
:10046000E47A08F0A3DAFC7B00740722C083C08220
:10047000ECC0E0EDC0E0EEC0E0EFC0E0EA75F010E7
:10048000A4CAABF075F04DA42BFBE435F0FCEA24D4
:1004900010FAEB34C5FBEC34D9FCEDC2E7FF75F084
:1004A00056A4F42411C5F0F434C58FF0A42AE5F065
:1004B0003BE43CF020E714120562D0E0FFD0E0FE00
:1004C000D0E0FDD0E0FC12021B8014F4041205629F
:1004D000D0E0FFD0E0FED0E0FDD0E0FC120112D071
:1004E00082D083E0FAEDD2E7CD33EC332482FBE413
:1004F000C3CF33CFCE33CECD33CD33DBF37B0775D4
:10050000F00A846004F0A31B0AE5F0F0A38FF074F6
:100510000AA4FFACF08EF0740AA42CFEACF05001DB
:100520000C8DF0740AA42CFDE435F0F0A3DBDE742E
:1005300007223F8000004120000042C80000447AAA
:100540000000461C400047C35000497424004B186B
:1005500096804CBEBC205A0E1BCA6753C21C749DA9
:10056000C5AEFB60065407601C2323120590EB54B4
:1005700038600912057C12058B120112ECF8EDF9B6
:10058000EEFAEFCB22EB12058B80F1543803241CDA
:10059000900532FE93FC0EEE93FD0EEE930ECE937D
:1005A000FF22BB010689828A83E0225002E722BB38
:1005B000FE02E32289828A83E49322BB010CE58256
:1005C00029F582E5833AF583E0225006E92582F891
:1005D000E622BBFE06E92582F8E222E58229F582C1
:1005E000E5833AF583E49322BB010689828A83F08E
:1005F000225002F722BBFE01F322C5F0F8A3E02847
:10060000F0C5F0F8E582158270021583E038F0221B
:10061000BB010A89828A83F0E5F0A3F0225006F735
:1006200009A7F01922BBFE06F3E5F009F31922EF42
:100630002BFFEE3AFEED39FDEC38FC22C3EF9BFFB9
:10064000EE9AFEED99FDEC98FC22E88FF0A4CC8B9D
:10065000F0A42CFCE98EF0A42CFC8AF0EDA42CFC78
:10066000EA8EF0A4CDA8F08BF0A42DCC3825F0FDB7
:10067000E98FF0A42CCD35F0FCEB8EF0A4FEA9F0B0
:10068000EB8FF0A4CFC5F02ECD39FEE43CFCEAA4FC
:100690002DCE35F0FDE43CFC2275F008758200EFAC
:1006A0002FFFEE33FECD33CDCC33CCC58233C582A4
:1006B0009BED9AEC99E58298400CF582EE9BFEED5D
:1006C0009AFDEC99FC0FD5F0D6E4CEFBE4CDFAE42C
:1006D000CCF9A88222B800C1B90059BA002DEC8B20
:1006E000F084CFCECDFCE5F0CBF97818EF2FFFEEFC
:1006F00033FEED33FDEC33FCEB33FB10D7039940B5
:1007000004EB99FB0FD8E5E4F9FA227818EF2FFFF4
:10071000EE33FEED33FDEC33FCC933C910D7059B36
:10072000E99A4007EC9BFCE99AF90FD8E0E4C9FA92
:10073000E4CCFB2275F010EF2FFFEE33FEED33FD1E
:10074000CC33CCC833C810D7079BEC9AE899400A41
:10075000ED9BFDEC9AFCE899F80FD5F0DAE4CDFBBF
:10076000E4CCFAE4C8F922EF5BFFEE5AFEED59FD46
:10077000EC58FC22EF4BFFEE4AFEED49FDEC48FC45
:1007800022CFF4CFCEF4CECDF4CDCCF4CC22C3E442
:100790009FFFE49EFEE49DFDE49CFC22EB9FF5F0B0
:1007A000EA9E42F0E99D42F0E89C45F022E8600FA5
:1007B000ECC313FCED13FDEE13FEEF13FFD8F12293
:1007C000E86010ECA2E713FCED13FDEE13FEEF134F
:1007D000FFD8F022E8600FEFC333FFEE33FEED33B6
:1007E000FDEC33FCD8F122E0FCA3E0FDA3E0FEA386
:1007F000E0FF22E0F8A3E0F9A3E0FAA3E0FB22EC9B
:10080000F0A3EDF0A3EEF0A3EFF022A42582F58291
:10081000E5F03583F58322E0FBA3E0FAA3E0F922BB
:10082000F8E0FBA3A3E0F925F0F0E5821582700261
:100830001583E0FA38F022EBF0A3EAF0A3E9F02206
:10084000E493FB740193FA740293F922D083D0826B
:10085000F8E4937012740193700DA3A393F87401DC
:1008600093F5828883E4737402936860EFA3A3A373
:1008700080DFE50E2582F582E50D3583F583B50D24
:100880000485820E2210AF0685820EF50D22858228
:100890000EF50DD2AF22EC8EF0A4CCC5F0CCCDF885
:1008A000EFA4CEC5F02DFDE43CFCE8A42EC8C5F0B5
:1008B0003DFDE43CFCEFA4FFE5F028FEE43DFDE453
:1008C0003CFC22E709F608DFFA8046E709F208DF78
:1008D000FA803E88828C83E709F0A3DFFA8032E356
:1008E00009F608DFFA806EE309F208DFFA8066880D
:1008F000828C83E309F0A3DFFA805A89828A83E03D
:10090000A3F608DFFA804E89828A83E0A3F208DF2B
:10091000FA804280D280FA80C680D4805580F280EE
:1009200029801080A680EA809A80A880DA80E28000
:10093000CA802988848C8589828A83E493A305866A
:10094000F0A30586DFF5DEF3800B89828A83E493CA
:10095000A3F608DFF9ECFAA9F0EDFB2288848C8578
:1009600089828A83E0A30586F0A30586DFF6DEF49C
:1009700080E389828A83E493A3F208DFF980D68832
:10098000F0EF60010E4E60CD88F0ED2402B404005B
:1009900050C3F582EB2402B4040050B923234582EE
:1009A0002390091373E50824C0F582E43400F5832D
:1009B000E00508229000BD3007039000C0E475F008
:1009C000011208200205A22000E97F2ED200801823
:1009D000EF540F2490D43440D4FF30040BEF24BFE5
:1009E000B41A0050032461FFE50960021509050CE3
:1009F000E50C7002050B30070E9000BDE475F001A8
:100A0000120820EF0205E8022CB27403D20780031B
:100A1000E4C207F5089000BD120837E4F509F50BAC
:100A2000F50CE50960077F201209E880F5750AFFDB
:100A3000C201C200C202C203C205C206C208120934
:100A4000B4FF700D3007057F001209F9AF0CAE0B33
:100A500022B4255FC2D5C2041209B4FF24D0B40A5F
:100A600000501A75F00A780930D50508B6FF01065E
:100A7000C6A426F620D5047002D20380D924CFB4B0
:100A80001A00EF5004C2E5D204020CEBD20180C67A
:100A9000D20080C0D20280BCD2D580BAD20580B448
:100AA0007F201209E82002077401B5090040F11205
:100AB00009A5FF1209E8020A22D208D2068095127F
:100AC00009A5FB1209A5FA1209A5F94A4B70067986
:100AD000E97A0D7BFF20022EE509602A7E008E82D6
:100AE0007583001205BB60060EEE650A70F0C2D574
:100AF000EBC0E0EAC0E0E9C0E0EE120D4CD0E0F956
:100B0000D0E0FAD0E0FB1205A2FF60AAEBC0E0EA59
:100B1000C0E0E9C0E01209E8D0E02401F9D0E034F7
:100B200000FAD0E0FBE50A0460DCD50AD98087D260
:100B30000280A2120D2E60F7E50A7001041203F084
:100B4000A90A600DE50A600914F50A120DD6EF60D6
:100B5000F3EA30E702F404C3995079EAF4250A0471
:100B600030E701E404F50A800D120D2E60C1EA059C
:100B70000A250A1203F0EA9000ECF030E701E425C0
:100B80000A04D50A0420050114120D4CE4C0E01239
:100B90000DD69000ECE0601320E70714F01209D0A6
:100BA000802204F0D0E014C0E07F001209D0E50AF2
:100BB00060071209C7150A800B3005031209C7D058
:100BC000E0020A22D0E00480C4120D2E609EE50AE5
:100BD000041203F09000ECEAF0E50A20050260013F
:100BE000042404120D4C74FF04C0E0120DD6120947
:100BF000D0E50A20050260031209C7D0E0B50AE873
:100C00007F451209DA9000ECE07F2B30E7047F2D5E
:100C1000F404C0E01209E8D0E075F00A84C0F012D4
:100C200009D1D0E01209D1020A2279108002790894
:100C3000C206C2088008D2D5790A8004790AC2D5D2
:100C4000E50A047002F50AE4FAFDFEFF1209A5FCAC
:100C50007B082001131209A5FD7B1030000A120940
:100C6000A5FE1209A5FF7B20EC3382D592D5501347
:100C7000C3E43000069FFFE49EFEE42001039DFDD7
:100C8000E49CFCE4CBF8C201EC700CCFCECDCCE8F8
:100C900024F8F870F38017C3EF33FFEE33FEED3323
:100CA000FDEC33FCEB33FB994002FB0FD8E9EB3052
:100CB0000105F8D0E0C448B201C0E00AEC4D4E4F47
:100CC00078207B0070C2EAB50A0040BCC0E0120D7B
:100CD0004ED0F0D0E0200104C4C0E0C4B201C0F0A6
:100CE0001209D1D0F0D5F0EB020A2212084C0ABF4B
:100CF000530C2A580A904C0A8C420C2E4F0C364446
:100D00000C36490AA5430C3C550B69460BC9450BEB
:100D100033470E09500A942D0A982E0ABB2B0A9CC1
:100D2000230AB9200DF22A0A544800000AB3E50A42
:100D3000B4FF03750A061209A5FC1209A5FD1209E4
:100D4000A5FE1209A5FF9000E502042D790AA2D59F
:100D5000200314300509B910020404B9080104A2E3
:100D6000D52006025001042002689202B509005005
:100D700034C0E07F203003197F30A2027206720572
:100D8000500F120DA5C202C206C205C2087F3080F4
:100D90000F300503E9C0E01209E8300503D0E0F99F
:100DA000D0E0B509CC3005177F30B9100C1209E836
:100DB0007F583004077F788003B908031209E830B0
:100DC00002057F2D0209E87F202008F87F2B2006EE
:100DD000F322920280CF7F00B40700500B24E5F588
:100DE00082E43400F583E0FF22286E756C6C2900E4
:100DF000D2011209A53001F8C201780930D50108E5
:100E0000F6020A542D504349581209A52403B4058B
:100E1000004001E4900E04931209D9743A1209D9E2
:100E2000D203750904020C2A9000BDEFF09000BEB9
:100E3000ECF0A3EDF09000C0EAF0A3EBF09000C35B
:100E4000E0FFEFD3940050030210279000C3E0FFAF
:100E5000EFD3940140030210279000BDE0FFEF1292
:100E6000084C0E75010E75040EA2070ECD080EF883
:100E70000A00000F239000C2E0FFEFD3940F40114F
:100E80007B0C7A0179181230489000C4EFF0020F01
:100E9000287B0C7A01791C1230489000C4EFF002D4
:100EA0000F289000C2E0FFEFD3940F40107B0C7A24
:100EB0000179191230489000C4EFF0806B7B0C7AF6
:100EC00001791D1230489000C4EFF0805B9000C2A1
:100ED000E0FFEFD3940F40107B0C7A01791A1230A7
:100EE000489000C4EFF080407B0C7A01791E1230EC
:100EF000489000C4EFF080309000C2E0FFEFD39440
:100F00000F40107B0C7A01791B1230489000C4EF1F
:100F1000F080157B0C7A01791F1230489000C4EFE5
:100F2000F080059000C4E4F09000C4E0FFEF33953A
:100F3000E0FEFDFC7B207A007900780012064AA8CA
:100F400004A905AA06AB079000BEE0FEA3E0FFE4FB
:100F5000FCFD12062F9000C51207FF9000C5120776
:100F6000E7AB07AA06A905A804A804A905AA06AB29
:100F7000079000C0E0FEA3E0FFE4FCFD12064A90EB
:100F800000CB1207FF7B007A80790078009000CBBD
:100F90001207E71206D59000C9EEF0A3EFF090001B
:100FA000C2E0FFEFC3940E50479000C9E0FEA3E0FB
:100FB000FF9000C2E0FDC3740E9DFDEFA805088000
:100FC00005CEC313CE13D8F9FF9000C9EEF0A3EFFE
:100FD000F09000C2E0FFEF04FF9000C3E0FEEE756A
:100FE000F003A424ECF582E43400F583EFF08016DE
:100FF0009000C3E0FFEF75F003A424ECF582E43425
:1010000000F583740FF09000C9E0FEA3E0FF9000AC
:10101000C3E0FDED75F003A424EAF582E43400F5A5
:1010200083EEF0A3EFF0227F00122F5722122A71D5
:10103000D2AF9044F474FDF07F007E007D007C0010
:101040009000001207FF7F007E007D007C00900072
:10105000041207FF900068747FF0A374FFF0900003
:101060006A7480F0A3E4F0900070E4F0A3E4F090E0
:101070000070E0FEA3E0FFC3EE9402501A90647D7E
:101080007401F090647DE0FFEF70F8900070E475FB
:10109000F0011205FA80D89000001207E7780912D3
:1010A00007C0900066EEF0A3EFF0900066E0FCA3AE
:1010B000E0FDEC120336C004C005C006C007900076
:1010C00066E0FCA3E0FDEC120336A804A905AA061D
:1010D000AB07D007D006D005D0041201129000044F
:1010E0001207F31202B86061405F900066E0FCA353
:1010F000E0FDEC120336C004C005C006C007900036
:1011000066E0FCA3E0FDEC120336A804A905AA06DC
:10111000AB07D007D006D005D004120112C004C01E
:1011200005C006C0077B007A00790078449000046F
:101130001207E712021BD003D002D001D000120028
:101140001D90006C1207FF800E7F007E007D007CEA
:101150000090006C1207FF900066E0FEA3E0FFEE37
:101160003395E0FDFC1228C190005E1207FF90004D
:1011700068E0FEA3E0FFAB07AA06EA3395E0F9F8C2
:1011800090006AE0FEA3E0FFEE3395E0FDFC12065E
:101190003C1228C19000081207FF90006C1207E76C
:1011A000121F8B12036F1228C19000721207FF7B6F
:1011B000017A00790CC003C002C0017BFF7A2C7950
:1011C000D99000C012083790005E1207E79000C364
:1011D0001207FF9000081207E79000C71207FF9060
:1011E00000721207E79000CB1207FFD001D002D0A7
:1011F00003120A0A7B017A00790C1228159000620A
:101200001207E7122631021038227B007A4679E86D
:10121000123048EF4405FD7B007A4679E8123054DD
:10122000750A00E50AC39409503AAF0AEF75F00554
:10123000A424EFF582E43436F583AF82AE838E08C2
:101240008F09AE08AF098F828E83120840AE08AFB7
:10125000098F828E83740393FC740493FD122ECC49
:10126000050A80BF7B087A007900122C2D905883E4
:10127000740AF07B007A7679507D047C00122ECCC3
:101280007B087A0179D8C003C002C0017B007A765E
:1012900079409000C7120837D001D002D0037F04F4
:1012A0007E00122B6F7B017A507903123048EF4495
:1012B00002FD7B017A5079031230547B017A507918
:1012C00013123048EF4402FD7B017A50791312303B
:1012D000549043A0E0FFEF4440FF9043A0EFF09014
:1012E00043C2E0FFEF4410FF9043C2EFF07B087A67
:1012F0000179B8C003C002C0017B007A5179029025
:1013000000C7120837D001D002D0037F087E001238
:101310002B6F7B087A0179C0C003C002C0017B003B
:101320007A5179229000C7120837D001D002D00339
:101330007F087E00122B6F7B087A0179C8C003C03A
:1013400002C0017B007A5179609000C7120837D043
:1013500001D002D0037F0A7E00122B6F9044F474F8
:1013600001F0904322E0FFEF4408FF904322EFF0AA
:101370009046ECE0FFEFC394055006904689743A1E
:10138000F090480074F1F01216EE90480074B1F03D
:1013900012235E7B007A4379A0C003C002C0017BA8
:1013A000007A4379B09000C7120837D001D002D03C
:1013B000037F0E7E00122B6F9043B0E0FFEF54FDD1
:1013C000FFEFF0229000BEEEF0A3EFF09000C0ED32
:1013D000F012306A9000C2EFF01230609000C3EE5D
:1013E000F0A3EFF09000C3E0FEA3E0FF9000BEE0AA
:1013F000FCA3E0FDED6F7002EC6E700302155890D7
:1014000043A1E0FFEF5401FF9000C1EFF09000C254
:10141000E0FFEF705E9000C3E0FEA3E0FFEF4E60E0
:101420000C9000BEE0FEA3E0FFEF4E70469000C3BC
:10143000E0FEA3E0FFEF4E701D7B027A4179009041
:1014400000BEE0FCA3E0FD12302F904102E0FFEF70
:1014500054BFFFEFF022904102E0FFEF4440FFEF66
:10146000F07B027A4179009000BEE0FCA3E0FD121F
:10147000302F229000C1E0FFEF606C904001E4F05B
:101480009040147401F0904010E4F0904008E0FFA8
:10149000EF547FFFEFF0904102E0FFEF5408FF7E32
:1014A00000EF4E600C9000BEE0FEA3E0FFEF4E7038
:1014B000367B027A4079029000C3E0FCA3E0FD1283
:1014C000302F9040017407F0904001E0FFEF54018D
:1014D000FF7E00EF4E70F19043A1E0FFEF54FEFF5E
:1014E000EFF0904001E4F09043A1E0FFEF5401FFE2
:1014F0007E00EF4E603A7B027A4079029000BEE0B7
:10150000FCA3E0FD12302F9000C0E0FFEF60047FED
:101510000280027F00EF4401FF904001EFF0904015
:1015200001E0FFEF5401FF7E00EF4E602B80EF22C1
:101530007B027A4179009000BEE0FCA3E0FD12300E
:101540002F9043A1C083C082E0FF9000C1E0FEEF76
:101550004EFFD082D083EFF0229000BEEEF0A3EFDA
:10156000F09000C0EDF012307E9000C2EFF012302B
:10157000749000C3EEF0A3EFF09000C3E0FEA3E090
:10158000FF9000BEE0FCA3E0FDED6F7002EC6E701A
:10159000030216ED9043A2E0FFEF5401FF9000C15B
:1015A000EFF09000C2E0FFEF705E9000C3E0FEA39A
:1015B000E0FFEF4E600C9000BEE0FEA3E0FFEF4EB8
:1015C00070469000C3E0FEA3E0FFEF4E701D7B026B
:1015D0007A4079809000BEE0FCA3E0FD12302F90AD
:1015E0004082E0FFEF54BFFFEFF022904082E0FF27
:1015F000EF4440FFEFF07B027A4079809000BEE03C
:10160000FCA3E0FD12302F229000C1E0FFEF606CE0
:10161000904001E4F09040107401F0904014E4F028
:10162000904008E0FFEF547FFFEFF0904082E0FF32
:10163000EF5408FF7E00EF4E600C9000BEE0FEA36A
:10164000E0FFEF4E70367B027A4079029000C3E0F3
:10165000FCA3E0FD12302F9040017407F090400190
:10166000E0FFEF5401FF7E00EF4E70F19043A2E0E7
:10167000FFEF54FEFFEFF0904001E4F09043A2E052
:10168000FFEF5401FF7E00EF4E603A7B027A407913
:10169000029000BEE0FCA3E0FD12302F9000C0E0FD
:1016A000FFEF60047F0280027F00EF4401FF904063
:1016B00001EFF0904001E0FFEF5401FF7E00EF4E9C
:1016C000602B80EF227B027A4079809000BEE0FCA4
:1016D000A3E0FD12302F9043A2C083C082E0FF90B0
:1016E00000C1E0FEEF4EFFD082D083EFF0227B00FE
:1016F0007A4079807D007C0012302D9040827450B9
:10170000F07B007A4079847D387C0112302D904046
:10171000867418F07B087A0179D4C003C002C00136
:101720007B007A4179009000C7120837D001D002BF
:10173000D0037F047E00122B6F9043007402F09060
:1017400040007408F09042007403F07B0C7A017939
:10175000081230489046A1EFF07B007A4279227D52
:10176000087C0012302D7B007A4279207D517C125A
:1017700012302D9000C1E4F07F197E007D007C00C6
:101780009000BD1207FF9000BD1207E7D3EF940051
:10179000EE9400404E9000C1E0FFEF64036044907F
:1017A0004225E0FFEF5401FF7E009000C1E0FEEE15
:1017B00025E0FEEE4FFFEF5403FF9000C1EFF07FF6
:1017C000E07E017D007C00122B009000BD1207E737
:1017D0007BFF7AFF79FF78FF12062F9000BD12077A
:1017E000FF80A39000BD1207E7EF4E70057F031244
:1017F0002FFC7B007A4079047D007C0112302D9013
:1018000040047407F0904006E4F09040087448F0FB
:10181000904004E4F09040017402F090400B740496
:10182000F09043A2E0FFEF4403FF9043A2EFF0905B
:1018300043A1E0FFEF4401FF9043A1EFF09043A0EC
:10184000E0FFEF4480FF9043A0EFF022C0E0C0F043
:10185000C083C082C085C084C086758600C0937571
:101860009300C0D075D000C000C001C002C003C04A
:1018700004C005C006C0077F01122BD290647DE42E
:10188000F09000001207F390005CE0FEA3E0FFEE92
:101890003395E0FDFC12062F9000001207FF900028
:1018A000041207E7C004C005C006C00790005CE052
:1018B000FCA3E0FDEC120336C004C005C006C0075F
:1018C00090005CE0FCA3E0FDEC120336A804A9053F
:1018D000AA06AB07D007D006D005D004120112A883
:1018E00004A905AA06AB07D007D006D005D004127C
:1018F00000219000041207FF900068E0FEA3E0FFC3
:1019000090005CE0FCA3E0FDC3ED9FEE6480F8EC8A
:10191000648098501090005CE0FEA3E0FF900068A7
:10192000EEF0A3EFF090006AE0FEA3E0FF90005C11
:10193000E0FCA3E0FDD3ED9FEE6480F8EC648098BA
:10194000401090005CE0FEA3E0FF90006AEEF0A380
:10195000EFF07F00122BD2D007D006D005D004D0F4
:1019600003D002D001D000D0D0D093D086D084D084
:1019700085D082D083D0F0D0E0329043A6E0FFEF54
:101980004410FFEFF090C780E0FFEF54FEFFEFF050
:1019900090C788743FF090C78C743FF07BFF7A301B
:1019A00079AFC003C002C0017B017AC47900A801ED
:1019B000AC02AD03D001D002D0037E017F0012093A
:1019C0007F7BFF7A3079AFC003C002C0017B017A10
:1019D000C57900A801AC02AD03D001D002D0037ECE
:1019E000017F0012097F7BFF7A3579EFC003C002C7
:1019F000C0017B017AC67900A801AC02AD03D00119
:101A0000D002D0037E017F0012097F7BFF7A3179FB
:101A1000AFC003C002C0017B017AC07900A801AC4D
:101A200002AD03D001D002D0037E027F0012097FF5
:101A30007BFF7A3379AFC003C002C0017B017AC259
:101A40007900A801AC02AD03D001D002D0037E0220
:101A50007F0012097F7BFF7A3579AFC003C002C0D7
:101A6000017B017AC77900A801AC02AD03D001D097
:101A700002D0037E007F4012097F90C78CE4F07F84
:101A800000122E407F01122E5E90C78474F8F0225F
:101A900075930078007583467582E8E04401F00094
:101AA0009046ECE0F99046FAE0FAB903225420B4EB
:101AB0000012B8001AEA901FFFF07401901FFEF0A8
:101AC0009046F6F0901FFEE06005901FFFE0FA9050
:101AD000480074C0F075812190000078007920E4FE
:101AE000F0A3D8FCD9FAEA900106F0020011750DB6
:101AF0001F750EFD12120A122910021B3802102D3A
:101B0000E493A3F8E493A34003F68001F208DFF422
:101B10008029E493A3F85407240CC8C333C4540F9A
:101B20004420C8834004F456800146F6DFE4800B6D
:101B30000102040810204080902033E47E0193606D
:101B4000BCA3FF543F30E509541FFEE493A360019A
:101B50000ECF54C025E060A840B8E493A3FAE49304
:101B6000A3F8E493A3C8C582C8CAC583CAF0A3C8B2
:101B7000C582C8CAC583CADFE9DEE780BE9000BD62
:101B8000EFF09000FBE4F09000BDE0FFEF64016037
:101B900003021C5C904E007438F0904E027404F006
:101BA000904E037407F0904E04E4F0904E05E4F07C
:101BB000904E06743FF0904E08E4F0904E09E4F029
:101BC000904E0AE4F0904E147401F09058847450D2
:101BD000F09058857427F0905886742CF0905887B0
:101BE000E4F090588A7455F090588B745AF09058DD
:101BF0008C7405F090588E7402F090588F7412F027
:101C00009058907428F090589174EBF07F4412280B
:101C10006E9058947458F0905895E4F090589A74D7
:101C200005F090589B7401F090589CE4F090589DFA
:101C3000740AF07F007E7D7D007C009000F1120729
:101C4000FF7D017F017E001215597D017F077E0017
:101C50001213C47C307DAB7F1D1223E2229000BDA5
:101C6000EFF07BFF7A37791CC003C002C0017B0113
:101C70007A0079BEA801AC02AD03D001D002D00336
:101C80007E007F0912097F7BFF7A377925C003C068
:101C900002C0017B017A0079C7A801AC02AD03D074
:101CA00001D002D0037E007F0912097F9000BDE0C1
:101CB000FFEFD39408507E90580AE0FFEF5480FF66
:101CC000EFF090580AC083C082E0FF9000BDE0FEB4
:101CD00074C72EF582E43400F583E0FEEE25E0259E
:101CE000E0FEEE540CFE9000BDE0FD74BE2DF582CA
:101CF000E43400F583E0FDEE4DFEEF4EFFD082D0E0
:101D000083EFF0905809E0FFEF54F3FFEFF09058A5
:101D100009C083C082E0FF9000BDE0FE74C72EF5CD
:101D200082E43400F583E0FEEE440CFEEF4EFFD07B
:101D300082D083EFF022122FD59000BEEFF09000FA
:101D4000F5E0FF9000BDEFF09043AAE0FFEF440103
:101D5000FFEFF09043AAE0FFEF4410FFEFF0904355
:101D6000BAE0FFEF4401FFEFF09043BAE0FFEF4429
:101D700010FFEFF09046F8E0FFEF4402FFEFF09025
:101D800046F9E0FFEF4402FFEFF0905891E0FFEFDB
:101D90004403FFEFF07F037E00122C009046F8E032
:101DA000FFEF54FDFFEFF09046F9E0FFEF54FDFF29
:101DB000EFF0905877E0FFEF4406FFEFF090588285
:101DC000747AF09043A1E0FFEF4401FFEFF09043FD
:101DD000B1E0FFEF4401FFEFF09043A2E0FFEF44DA
:101DE00001FFEFF09043B2E0FFEF4401FFEFF0900E
:101DF00044DB7420F09044C37420F09000BEE0FFF8
:101E0000122EE5229000F57401F09000F0E4F07FCE
:101E100010122DA57F10122D847D077F1D12275AC9
:101E20009058967407F0905897E4F090589EE4F01C
:101E3000905B07E0FFEF4418FFEFF0905893E4F059
:101E4000905B88E4F0905B89E4F0905880740AF02D
:101E5000905881E4F0905883E4F0905888745BF0D7
:101E6000905889745EF090588DE4F0904E0174148F
:101E7000F09000C27410F09000C37401F07B007AFF
:101E8000807DDA7C907F04120E289000F5E0FFEF51
:101E900075F003A424ECF582E43400F583E0FF90B0
:101EA0004E0EEFF09000F5E0FFEF75F003A424EA8A
:101EB000F582E43400F583E0FCA3E0FD7B027A4E7A
:101EC000790C12302F9000F5E0FF121B7D2290005C
:101ED000C5EFF09000C6EDF09000C7EBF09000CB9E
:101EE0007401F09000C5E0FFEFC394184003021F97
:101EF000819000C7E0FFEF5401FF7E00EF75F08096
:101F0000A4FFAEF09000C6E0FEEE547FFEEE4FFF61
:101F10009000C5E0FE75F008EE90760012080BEF19
:101F2000F09000C9E0FFEF540FFF7E00EF75F01056
:101F3000A4FFAEF09000C8E0FEEE540FFEEE4FFF9F
:101F40009000C5E0FE75F008EE90760112080BEFE8
:101F5000F09000CAE0FFEF540FFF9000C5E0FE755F
:101F6000F008EE90760212080BEFF09000C5E0FF4B
:101F700075F008EF90760312080BE4F09000CBE4C4
:101F8000F09000CBE0FF220203DB22EDA2E7D2E7D4
:101F9000F9EC3340F260F3B4FF08ED547F70E802CF
:101FA00003E5F82481C2E0C0E0F40428FAC313FC7E
:101FB000ED92E7FD9000BD1207FFEEA2E7E9BA7FC0
:101FC00002C31334009400FA75F091A4E5F013F401
:101FD00094FE8AF0A433E5F033248CD313FDE4920D
:101FE000E7FE7F007C3F758302ECC0E0F8EDC0E0C7
:101FF000F9EEC0E0FAEFC0E0FB8583F09000BD127F
:1020000007E785F08312021BD0E0FBD0E0FAD0E0B6
:10201000F9D0E0F8120021ED6480FD30E7011CD515
:1020200083C7ED33CC33F8D0E0A2E71328C313CC39
:1020300013FD2244000000000000440004000000E2
:1020400000420068000042006A0000420066000092
:1020500044006C0000000044005E000000004400EA
:102060000800000000440072000000004200700000
:1020700000440062000001F44101108041010F7F23
:1020800044010B00000500440102016E36004400CB
:10209000FD00005DC0410101184401072EE0000071
:1020A0004100F0004100FB004100F6004100FC004F
:1020B0004100F501410118FF4101190041011A00D9
:1020C00041011BFF41011C0041011D00410117009E
:1020D00043011100000041011E00009000BFEFF01D
:1020E0009000C0ECF0A3EDF09000C2EBF09000C4C3
:1020F0007401F09000BFE0FFEFC39480507A90002D
:10210000C0E0FEA3E0FFEE54F0FE7F00EF4E7068EB
:102110009000BFE0FF7E08EF8EF0A4FFAEF0EF244A
:1021200000FFEE3478FE9000C5EEF0A3EFF09000D3
:10213000C5E0FEA3E0FFAA06A9077B019000C0E06E
:10214000FCA3E0FD12302F9000C2E0FF9000BFE042
:10215000FE75F008EE90780212080BEFF09000C3C5
:10216000E0FF9000BFE0FE75F008EE9078031208E3
:102170000BEFF09000C4E4F09000C4E0FF22900068
:10218000BDEFF09000BEEDF09000BDE0FFEF703FBE
:1021900090C7B0E0FFEF54CCFFEFF090C7B0C08322
:1021A000C082E0FF9000BEE0FEEF4EFFD082D08301
:1021B000EFF090C7B0C083C082E0FF9000BEE0FEA9
:1021C000EEC454F0FEEF4EFFD082D083EFF02290A9
:1021D00000BDE0FFEF6401704690C7B0E0FFEF5430
:1021E00033FFEFF090C7B0C083C082E0FF9000BE25
:1021F000E0FEEE25E025E0FEEF4EFFD082D083EF3B
:10220000F090C7B0C083C082E0FF9000BEE0FEEE59
:10221000C4333354C0FEEF4EFFD082D083EFF022A0
:102220009000C5EFF09000C6ECF0A3EDF09000C870
:10223000EAF0A3EBF09000CA7401F09000C5E0FF53
:10224000EFC3941850739000C5E0FF7E08EF8EF046
:10225000A4FFAEF0EF2404FFEE3476FE9000CBEE48
:10226000F0A3EFF09000CBE0FEA3E0FFAA06A907E1
:102270007B019000C6E0FCA3E0FD12302F9000C56A
:10228000E0FF7E08EF8EF0A4FFAEF0EF2406FFEE35
:102290003476FE9000CBEEF0A3EFF09000CBE0FEA2
:1022A000A3E0FFAA06A9077B019000C8E0FCA3E019
:1022B000FD12302F9000CAE4F09000CAE0FF229097
:1022C00000BFEFF09000C0ECF0A3EDF09000C2EA88
:1022D000F0A3EBF09000C47401F09000BFE0FFEFBA
:1022E000C3948050739000BFE0FF7E08EF8EF0A48F
:1022F000FFAEF0EF2404FFEE3478FE9000C5EEF060
:10230000A3EFF09000C5E0FEA3E0FFAA06A9077BBB
:10231000019000C0E0FCA3E0FD12302F9000BFE070
:10232000FF7E08EF8EF0A4FFAEF0EF2406FFEE3440
:1023300078FE9000C5EEF0A3EFF09000C5E0FEA39C
:10234000E0FFAA06A9077B019000C2E0FCA3E0FD24
:1023500012302F9000C4E4F09000C4E0FF227B0C08
:102360007A0179CF1230489000BDEFF09000BDE0C7
:10237000FFEF5407FF90586EEFF09000BDE0FFEFC5
:10238000C4540FFFEF540FFF90586FEFF090510DB2
:102390007482F090512C7440F090513D7480F09014
:1023A000586C740CF0905A207420F0905A24748069
:1023B000F0905A287440F0905A837401F0905B00BA
:1023C0007440F0905B047480F0905B467425F0904C
:1023D0005B587480F0905B5A7401F09058767444A6
:1023E000F0229000BEEFF09000BFECF0A3EDF09073
:1023F00000BEE0FFEFD3941F5003D38001C340051C
:102400007F00122F579000BEE0FFEF541FFF7E00A9
:10241000EF25E0FFEE33FEEF2400FFEE3444FEAA8A
:1024200006A9077B011230209000C1EEF0A3EFF067
:102430009000BEE0FF7E02EF8EF0A4FFAEF0EF242E
:1024400000FFEE3444FEAA06A9077B019000BFE01E
:10245000FEA3E0FFAD07AC0612302F9000C1E0FEF6
:10246000A3E0FF229000C3E4F0A3E4F07B007A0035
:102470007D017F021226979000BDEFF012295D903A
:1024800000BEEFF09000BEE0FF9000C37487F07BC9
:10249000FF7D027C001220DB9000BEE0FFC0077BC6
:1024A000017A00795CAF01AE02AD037C00EF54FF0E
:1024B000FFEE54FFFEED5400FDEC5400FCAB07AA08
:1024C00006D0077DA97CC71222BF9000BDE0FF9017
:1024D00000BEE0FD122A359000BDE0FF7D01122410
:1024E000E2229000BFEFF09000C0EDF09000C174C8
:1024F00001F09000BFE0FFEFC3941850549000C06B
:10250000E0FFEF60199000BFE0FF75F010EF9070F2
:102510001012080BE0FFEF4420FFEFF0801790004F
:10252000BFE0FF75F010EF90701012080BE0FFEFA6
:1025300054DFFFEFF09000BFE0FF75F010EF9070F8
:102540001012080BE0FFEF4401FFEFF09000C1E430
:10255000F09000C1E0FF22C0E0C0F0C083C082C0A4
:1025600085C084C086758600C093759300C0D07501
:10257000D000C000C001C002C003C004C005C00636
:10258000C0077F01122BD290005CE0FEA3E0FFEEBB
:10259000FF3395E0FEEF2480FF905B80EFF07F003B
:1025A000122BD2D007D006D005D004D003D002D051
:1025B00001D000D0D0D093D086D084D085D082D026
:1025C00083D0F0D0E0329000C5EFF09000C6EDF07F
:1025D0009000C87401F09000C5E0FFEFC39418505C
:1025E0004A9000C5E0FF75F010EF90701012080BD4
:1025F000E0FFEF54F1FF9000C7EFF09000C6E0FF5E
:10260000EF5407FF7E00EF25E0FFEE33FE9000C79A
:10261000E0FEEF4EFF9000C5E0FE75F010EE90700A
:102620001012080BEFF09000C8E4F09000C8E0FF33
:102630002290FFFC1208721207FF850D83850E821F
:102640001207E7D3EF9400EE9480402F9001071219
:1026500007E7122B00850D83850E82C083C082128E
:1026600007E7EF2400FFEE3480FEED34FFFDEC348D
:10267000FFFCD082D0831207FF80BF9000FD1207BD
:10268000E7850D83850E821207F312064A122B008E
:10269000900004120872229000BFEFF09000C0ED8D
:1026A000F09000C1EAF0A3EBF090011B7408F090E9
:1026B000011BE0FF9000BFE0FD9000C0E0FB900038
:1026C000C87408F09000C9E4F09000CAE4F0121E4B
:1026D000CE90011BE0FF9000C1E0FCA3E0FD900064
:1026E000C3E0FAA3E0FB12222090011BE0FF7D0271
:1026F0001225C690011BE0FF229000BFEFF0900072
:10270000C0EDF09000C1EAF0A3EBF0900118740A5C
:10271000F0900118E0FF9000BFE0FD9000C0E0FBEA
:102720009000C8E4F09000C9E4F09000CAE4F01210
:102730001ECE900118E0FF9000C1E0FCA3E0FD90E8
:1027400000C3E0FAA3E0FB122220900118E0FF7D15
:10275000021225C6900118E0FF229000BDEFF09014
:1027600000BEEDF09000BEE0FFEFD394075003D31E
:102770008001C340057F00122F579000BDE0FFEF9E
:10278000D3941F5003D38001C340057F00122F57FD
:102790009000BEE0FFEF5407FF7E00EF75F020A42D
:1027A000FFAEF09000BDE0FEEE541FFE74802EF5EB
:1027B00082E43444F583EFF0229000C3E4F0A3E414
:1027C000F07B007A007D017F021226F99000BDEFB8
:1027D000F012295D9000BEEFF09000BEE0FF900087
:1027E000C37402F07BFF7D027C001220DB9000BEF0
:1027F000E0FF7BA17AC77D107C4E1222BF9000BD06
:10280000E0FF9000BEE0FD122A359000BDE0FF7DA4
:10281000011224E2229000BD1208379000C0E4F0BB
:10282000A3E4F0900117E0FFEF60429000BD1208B2
:10283000179000C0E0FEA3E0FFE92FF9EA3EFA128C
:1028400005A2FFEF60279000BD1208179000C0E0BE
:10285000FEA3E0FFE92FF9EA3EFA1205A2FF122ECD
:10286000B39000C0E475F0011205FA80BE2290001A
:10287000BEEFF0122FD59000BFEFF09046F8E0FFCA
:10288000EF4403FFEFF09046F9E0FFEF4403FFEF62
:10289000F09000BEE0FF905892EFF07F037E0012B0
:1028A0002C009046F8E0FFEF54FCFFEFF09046F963
:1028B000E0FFEF54FCFFEFF09000BFE0FF122EE5C9
:1028C000229000BD1207FF9000BD1207E79000F7AD
:1028D0001207F312063C9000BD1207FF9000F112A0
:1028E00007E7EC120331C004C005C006C007900022
:1028F000BD1207E7EC120331D003D002D001D000A3
:1029000012021B9000C11207FF9000C11207E722BC
:1029100090010F747FF09001107480F09000BD74EE
:102920007FF09000BDE0FFEF60219000BDE0FFEF81
:1029300014FF9000BDE0FE75F008EE9078001208DC
:102940000BEFF09000BDE014F080D79000BDE0FFE9
:1029500075F008EF90780012080BE4F0229000C0A8
:1029600074FFF0122FD59000BFEFF0900110E0FF40
:10297000EFD39418402690010FE0FF9000C0EFF0D5
:10298000900110E014F09000C0E0FF75F008EF90A7
:10299000780012080BE0FF90010FEFF09000BFE00D
:1029A000FF122EE59000C0E0FF22905820E0FFEFDC
:1029B000540CFF7E00EF7802CEC313CE13D8F9FF7C
:1029C000EF2406FF9000BEEFF09000BEE0FFE4FCB5
:1029D000FDFEEF2420FFEE3401FEED340CFDEC345F
:1029E00000FCA907AA06AB05123048904608EFF094
:1029F00022C2D5E830E70FB2D5E4C39BFBE49AFAD4
:102A0000E499F9E498F8EC30E717B2D5122A2712C6
:102A100006D5E4C39BFBE49AFAE499F9E498F880BC
:102A2000031206D530D50DE4C39FFFE49EFEE49D5E
:102A3000FDE49CFC229000BFEFF09000C0EDF09010
:102A400000C17401F09000BFE0FFEFC39418501B69
:102A50009000C0E0FF9000BFE0FE75F010EE9070B7
:102A60001912080BEFF09000C1E4F09000C1E0FFF4
:102A700022122FC0122F96122FAB122E7C7F021221
:102A80002AAC12303C1227B9122F817D027F00122E
:102A9000217E1224647E257F57122AE0122E997E11
:102AA000187F4C122DC690647DE4F0229000BDEF9B
:102AB000F0904E14E0FFEF54FCFF9000BEEFF0905A
:102AC00000BEE0FF9000BDE0FEEE5403FEEF4EFFBF
:102AD0009000BEEFF09000BEE0FF904E14EFF022A9
:102AE0009000BDEEF0A3EFF012308F9000BDE0FE3D
:102AF000A3E0FF122E047F06122F2B123088223201
:102B0000EC4D4E700D78FCEF24E950032840FD2277
:102B100000007BF178DA0000EF28FF78FFEE38FE46
:102B2000ED38FDEC38FC50E7EF2BFFEE38FEED38CA
:102B3000FDEC38FC40F222050203049000BDEFF0EA
:102B4000905809E0FFEF54FCFF9000BEEFF09000BA
:102B5000BEE0FF9000BDE0FEEE5403FEEF4EFF909E
:102B600000BEEFF09000BEE0FF905809EFF0227534
:102B70008600EF4E6027EF60010E7593009000C74E
:102B8000E0F595A3E0F585A3E0F5848B938A83892E
:102B900082E0A30586F0A31586DFF6DEF4E4F59364
:102BA000F595229000BDEFF0905820E0FFEF54F330
:102BB000FFEFF0905820C083C082E0FF9000BDE09E
:102BC000FEEE540CFEEF4EFFD082D083EFF01229C0
:102BD000AA229000BBEFF0905160E0FFEF54FDFFA0
:102BE0009000BCEFF09000BBE0FFEF25E0FFEF545A
:102BF00002FF9000BCE0FEEF4EFF905160EFF0222C
:102C0000EEFA900101E0F88FF0A4FFAEF0E88AF050
:102C1000A42EFEE5F03400FDEF24C9FF78FFEE3866
:102C2000FEED38FDE438FC5003022B0022ACEAAD87
:102C3000A08B938A838982E0F96017A3E0F5EAA369
:102C4000E0F5A0A3E060F4FAA3E0F8A3E0F2DAF87C
:102C5000D9E98DA08CEAE4F593229000BDEFF090C5
:102C60005820E0FFEF54FDFFEFF0905820C083C0E4
:102C700082E0FF9000BDE0FEEE5402FEEF4EFFD07A
:102C800082D083EFF0229000BDEFF090585EE0FF1D
:102C9000EF54FCFFEFF090585EC083C082E0FF90DD
:102CA00000BDE0FEEE5403FEEF4EFFD082D083EF76
:102CB000F022EFB40A07740D122CBD740A3098117B
:102CC000A899B8130CC2983098FDA899C298B81169
:102CD000F63099FDC299F599224156473A2025369A
:102CE0002E30663B2050503A2025362E32663B204F
:102CF000524D533A2025362E31660A0D009043A6D8
:102D0000E0FFEF4410FFEFF09043B6E0FFEF441018
:102D1000FFEFF090C780E0FFEF4401FFEFF022905B
:102D20005877E0FFEF4460FFEFF09043A4E0FFEF3F
:102D30004408FFEFF09043B4E0FFEF4408FFEFF0EA
:102D4000229043A9E0FFEF4404FFEFF09043B9E085
:102D5000FFEF4404FFEFF0905877E0FFEF4480FF6F
:102D6000EFF022905808740CF0905809E0FFEF44FF
:102D700020FFEFF090580AE4F07F08121C5D7F03FB
:102D8000122B3B229000BDEFF0904102C083C08225
:102D9000E0FF9000BDE0FEEE54F8FEEF4EFFD08263
:102DA000D083EFF0229000BDEFF0904082C083C04E
:102DB00082E0FF9000BDE0FEEE54F8FEEF4EFFD043
:102DC00082D083EFF0229000BDEEF0A3EFF012303E
:102DD0009D9000BDE0FEA3E0FF122E227F07122F80
:102DE0004112309622122FD59000BDEFF090649CD6
:102DF000E0FFEF4410FFEFF0122F149000BDE0FF52
:102E0000122EE5229000BFEEF0A3EFF07B027A4491
:102E100079009000BFE0FEA3E0FFAD07AC061230E2
:102E20002F229000BFEEF0A3EFF07B027A447902EC
:102E30009000BFE0FEA3E0FFAD07AC0612302F22EA
:102E40009000BDEFF09000BDE0FFEF541FFF900039
:102E5000BDEFF09000BDE0FF90C798EFF02290002A
:102E6000BDEFF09000BDE0FFEF540FFF9000BDEF0D
:102E7000F09000BDE0FF90C79CEFF0229000F6E0DC
:102E8000FFEF70119000FCE0FFEF7003121E049042
:102E900000F67401F0121D3622900119E0FFEF7068
:102EA00009122F6C9001197401F0122EFD7F64122B
:102EB000300E229000C2EFF090646CE0FFEF20E251
:102EC000F79000C2E0FF90644DEFF022EC4D6011EE
:102ED000ED60010C8B938A838982E4F0A3DDFCDC36
:102EE000FA75930022EF54016004D2AF8002C2AFA2
:102EF000EF5402FF9044F4E054FD4FF0229043A8B9
:102F0000E0FFEF4401FFEFF09043B8E0FFEF440132
:102F1000FFEFF0229043A2E0FFEF4402FFEFF090BA
:102F200043B2E0FFEF4402FFEFF0229000BFEFF06A
:102F30009000BFE0FFEFC43354E0FF904480EFF017
:102F4000229000BFEFF09000BFE0FFEFC43354E0E9
:102F5000FF904481EFF02290FFFF120872EFF09093
:102F600046EA7401F090000112087222905820E4A1
:102F7000F0905821E4F07F04122BA37F00122C5A0A
:102F80002290011AE0FFEF700912197A90011A7469
:102F900001F0122CFD2290011CE0FFEF700990015E
:102FA0001C7401F01230A4122D1F2290011DE0FFAD
:102FB000EF7009122D6390011D7401F0122D412252
:102FC000900117E0FFEF7009122FEA9001177401CA
:102FD000F0122DE5229044F4E0F84402F0E85402A7
:102FE000FF10AF012274014FFF2290642C7407F090
:102FF00090643C7448F090648CE4F0229000C2EF3E
:10300000F09000C2E0FF9000C2EFF080FE2290003E
:10301000BDEFF09000BDE0FF905B80EFF0228B935E
:103020008A838982E0FFA3E0FE759300228B938A56
:10303000838982EDF0A3ECF075930022904E00E0BE
:10304000FFEF4401FFEFF0228B938A838982E075C2
:103050009300FF228B938A838982EDF0759300227F
:103060007B027A41790012302022904102E0FFEF8A
:103070005407FF227B027A40798012302022904050
:1030800082E0FFEF5407FF229044C07401F02290C9
:1030900044C87401F0229044C07402F0229044C8E5
:1030A0007402F0227F03122C862232323232322016
:1030B0001300256117802601008026E00E8026C2BD
:1030C0000C8026020080066587186D6409183E0092
:1030D000008026032080262102187F0000000000C7
:1030E00000000000000000000000000000000000E0
:1030F00000000000000000000000000000000000D0
:1031000000000000000000000000000000000000BF
:1031100000000000000000000000000000000000AF
:1033A0000000000000000000000000000000006EAF
:1033B000E6FF006A4A0000A96D00003E88FF002376
:1033C0007BFE003D1A00001A990300972E02006E42
:1033D000C2F9008BF4F600947D0800BE002700CAF5
:1033E0008D3600BE002700947D08008BF4F6006E39
:1033F000C2F900972E02001A9903003D1A0000231B
:103400007BFE003E88FF00A96D00006A4A00006E46
:10341000E6FF0000000000000000000000000000C7
:10342000000000000000000000000000000000009C
:10343000000000000000000000000000000000008C
:10344000000000000000000000000000000000007C
:10345000000000000000000000000000000000006C
:10346000000000000000000000000000000000005C
:10347000000000000000000000000000000000004C
:10348000000000000000000000000000000000003C
:10349000000000000000000000000000000000002C
:1034A000000000000000000000000000000000001C
:1034B000000000000000000000000000000000000C
:1034C00000000000000000000000000000000000FC
:1034D00000000000000000000000000000000000EC
:1034E00000000000000000000000000000000000DC
:1034F00000000000000000000000000000000000CC
:1035000000000000000000000000000000000000BB
:1035100000000000000000000000000000000000AB
:10352000000000000000000000000000000000009B
:10353000000000000000000000000000000000008B
:10354000000000000000000000000000000000007B
:10355000000000000000000000000000000000006B
:10356000000000000000000000000000000000005B
:10357000000000000000000000000000000000004B
:10358000000000000000000000000000000000003B
:10359000000000000000000000000000000000002B
:1035A0000000000000000000000000000000001803
:1035B0000C000000000000000000000000000000FF
:1035C00000000000000000000000000000000000FB
:1035D00000000000000000000000000000000000EB
:1035E00000000000000000000000000000000021BA
:1035F000F805014210864064F8150181F805014381
:10360000518E2100000000000000000000000000BA
:1036100000000000000000000000000000000000AA
:10362000000000000000000000000000000000009A
:10363000000000000000000000000000000000008A
:10364000000000000000000000000000000000007A
:10365000000000000000000000000000000000006A
:10366000000000000000000000000000000000005A
:10367000000000000000000000000000000000004A
:10368000000000000000000000000000000000003A
:10369000000000000000000000000000000000002A
:1036A000000000000000000000000000000000001A
:1036B000000000000000000000000000000000000A
:1036C00000000000000000000000000000000000FA
:1036D00000000000000000000000000000000000EA
:1036E00000000000000000000000000000000000DA
:1036F0005110001000514000200051C00010005136
:10370000F00010010000100001140008000140004A
:103710000A00014C0002000150000020011121317B
:0E3720004161536373080901010507070404A2
:00000001FF
