:1000000002172A008F828E83E0540100000070F8EE
:100010002278FFE4F6D8FD0217880203DBE864804B
:10002000F8E933E83360110460F0ED33EC33700924
:10003000E8FCE9FDEAFEEBFF220460DED3EB9FEA79
:100040009EE99DE8C2E78CF0C2F795F0400CE8CC41
:10005000F8E9CDF9EACEFAEBCFFB1203A685D0F092
:100060005804700320D5B3E80470075002B2D502DB
:1000700003E592D5EC0460F7E4CCC0E0C398F860E7
:100080003B94186008400DD0E0FB0203BDE4FBFA8E
:10009000C9FC8028E830E406E4C9FBE4CAFCE83087
:1000A000E305E4C9CACBFCE854076010F8C3E913C0
:1000B000F9EA13FAEB13FBEC13FCD8F130F52FC37C
:1000C000E49CFCEF9BFFEE9AFEED99FDD0E0FBEF88
:1000D0004E4D4C701222DB030203E2EC2CFCEF339A
:1000E000FFEE33FEED33FDED30E7EB0203BDEF2B0A
:1000F000FFEE3AFEED39FDD0E0FB50130BBB0003E1
:100100000203E5ED13FDEE13FEEF13FFEC13FC020B
:1001100003BDEC4D6011E8497017ED33EC3304601A
:100120000DE4FCFFFEFD22E933E8330470F802031E
:10013000DB1203A658046009E4CC24815006285041
:10014000090203E52840030203E2C0E0EB4A7044E1
:10015000B98006D0E0FB0203D1EF4E701CBD8008D1
:10016000EBFFEAFEE9FD80EBE98DF0A4FEE5F0028D
:1001700001FBE9CDF9EAFEEBFFEF89F0A4FCE5F025
:10018000CE89F0A42EFFE435F0CD89F0A42DFEE455
:1001900035F08067EF4E7005BD80D780C3EF8BF0E0
:1001A000A4ACF0EE8BF0A42CFCE435F0F8EF8AF070
:1001B000A42CE5F038FCE433CB8DF0A42CFCE5F066
:1001C0003BF8EE8AF0A42CFCE5F038F8E433CF8954
:1001D000F0A42CFCE5F038CF3400CE89F0A42FFF3A
:1001E000E5F03EFEE433C98DF0A42EFEE5F039CDF6
:1001F0008AF0A42FFFE5F03EFEE43DFD33D0E0FBA6
:1002000050070BBB000F0203E5EC2CFCEF33FFEEB5
:1002100033FEED33FD0203BD0203E5EC5D04600532
:10022000E8590470030203DB1203A6580460F6ECDD
:100230004860F2EC7004FDFEFF22C860DB2481C838
:100240005009C398600250060203E29850CAF58232
:10025000E9294B4A7005AB820203D175F0007C1A84
:100260007880C3EF9BEE9AED99400DC3EF9BFFEEB4
:100270009AFEED99FDE842F0DC23ACF0D0E0FFD02F
:10028000E0FED0E0FDAB8220E7101BEB60BAEC2C67
:10029000FCEF33FFEE33FEED33FD0203BDE803F860
:1002A00030E705C0F075F000EF2FFFEE33FEED33C1
:1002B000FD40B830E7C280AA74F8CC6480CCC86432
:1002C00080C8F58204604FC3EB9FF5F0EA9E42F0D0
:1002D000E99D42F0E89C45F0603C501DE5825FFFDF
:1002E000E582D313CB5BCBF42B5582FB50280ABAA3
:1002F000002409B9002008801DE5825BFBE582D35C
:1003000013CF5FCFF4C3132F5582FF50090EBE00E9
:10031000050DBD00010CC3EB9FF5F0EA9E42F0E92C
:100320009D42F0E89C45F06007CC4820E701B3EC23
:100330002275F020800E75F010800575F0087D00A4
:100340007E007F003392D530D5031205AFEC3340E9
:1003500010EF33FFEE33FEED33FDEC33FCD5F0ED63
:1003600022E5F0247EA2D513CC92E7CDCEFF22ED7C
:10037000D2E7CD33EC3392D524814006E4FFFEFD75
:10038000FC22FCE4CFCECDCC24E0501174FF80EDF4
:10039000C3CC13CCCD13CDCE13CECF13CF0470F07E
:1003A00030D5DE0205AFE9D2E7C933E833F892D59C
:1003B000EDD2E7CD33EC33FC5002B2D522EC30E77E
:1003C000100FBF000C0EBE00080DBD00040BEB604B
:1003D00014A2D5EB13FCED92E7FD2274FFFCFDFEA9
:1003E000FF22E480F8A2D574FF13FC7D80E480EF47
:1003F000BB010689828A83E0225002E722BBFE020B
:10040000E32289828A83E49322BB010689828A835C
:10041000F0225002F722BBFE01F322C5F0F8A3E060
:1004200028F0C5F0F8E582158270021583E038F0F7
:1004300022BB010A89828A83F0E5F0A3F0225006EC
:10044000F709A7F01922BBFE06F3E5F009F319221C
:10045000EF2BFFEE3AFEED39FDEC38FC22C3EF9BAB
:10046000FFEE9AFEED99FDEC98FC22E88FF0A4CC0B
:100470008BF0A42CFCE98EF0A42CFC8AF0EDA42CCB
:10048000FCEA8EF0A4CDA8F08BF0A42DCC3825F09A
:10049000FDE98FF0A42CCD35F0FCEB8EF0A4FEA985
:1004A000F0EB8FF0A4CFC5F02ECD39FEE43CFCEA92
:1004B000A42DCE35F0FDE43CFC2275F008758200D9
:1004C000EF2FFFEE33FECD33CDCC33CCC58233C519
:1004D000829BED9AEC99E58298400CF582EE9BFEAA
:1004E000ED9AFDEC99FC0FD5F0D6E4CEFBE4CDFA05
:1004F000E4CCF9A88222B800C1B90059BA002DECA9
:100500008BF084CFCECDFCE5F0CBF97818EF2FFF40
:10051000EE33FEED33FDEC33FCEB33FB10D70399E8
:100520004004EB99FB0FD8E5E4F9FA227818EF2F95
:10053000FFEE33FEED33FDEC33FCC933C910D705B4
:100540009BE99A4007EC9BFCE99AF90FD8E0E4C9D3
:10055000FAE4CCFB2275F010EF2FFFEE33FEED3303
:10056000FDCC33CCC833C810D7079BEC9AE8994030
:100570000AED9BFDEC9AFCE899F80FD5F0DAE4CD92
:10058000FBE4CCFAE4C8F922EF5BFFEE5AFEED592A
:10059000FDEC58FC22EF4BFFEE4AFEED49FDEC4826
:1005A000FC22CFF4CFCEF4CECDF4CDCCF4CC22C30C
:1005B000E49FFFE49EFEE49DFDE49CFC22EB9FF59E
:1005C000F0EA9E42F0E99D42F0E89C45F022E860A6
:1005D0000FECC313FCED13FDEE13FEEF13FFD8F188
:1005E00022E8600FEFC333FFEE33FEED33FDEC3353
:1005F000FCD8F122BB010789828A830206145005C8
:10060000E9F80207DBBBFE05E9F80207E789828A01
:10061000830207F3E0FCA3E0FDA3E0FEA3E0FF22DA
:10062000E0F8A3E0F9A3E0FAA3E0FB22BB0107890D
:10063000828A830206205005E9F8020803BBFE0502
:10064000E9F802081089828A8302081DECF0A3ED04
:10065000F0A3EEF0A3EFF022A42582F582E5F035B9
:1006600083F58322E0FBA3E0FAA3E0F922EBF0A3F9
:10067000EAF0A3E9F022E493FB740193FA74029385
:10068000F922D083D082F8E4937012740193700D34
:10069000A3A393F8740193F5828883E4737402939F
:1006A0006860EFA3A3A380DFE5162582F582E51538
:1006B0003583F583B515048582162210AF06858231
:1006C00016F51522858216F515D2AF22EC8EF0A410
:1006D000CCC5F0CCCDF8EFA4CEC5F02DFDE43CFCAC
:1006E000E8A42EC8C5F03DFDE43CFCEFA4FFE5F016
:1006F00028FEE43DFDE43CFC22E709F608DFFA8031
:1007000046E709F208DFFA803E88828C83E709F029
:10071000A3DFFA8032E309F608DFFA806EE309F21C
:1007200008DFFA806688828C83E309F0A3DFFA8011
:100730005A89828A83E0A3F608DFFA804E89828A8A
:1007400083E0A3F208DFFA804280D280FA80C6807C
:10075000D4805580F28029801080A680EA809A801B
:10076000A880DA80E280CA802988848C8589828A80
:1007700083E493A30586F0A30586DFF5DEF3800B03
:1007800089828A83E493A3F608DFF9ECFAA9F0EDF5
:10079000FB2288848C8589828A83E0A30586F0A366
:1007A0000586DFF6DEF480E389828A83E493A3F290
:1007B00008DFF980D688F0EF60010E4E60CD88F03A
:1007C000ED2402B4040050C3F582EB2402B404000B
:1007D00050B9232345822390074973E6FC08E6FDC0
:1007E00008E6FE08E6FF22E2FC08E2FD08E2FE0859
:1007F000E2FF22E493FC740193FD740293FE740300
:1008000093FF22E6FB08E6F908E6FA08E6CBF822B1
:10081000E2FB08E2F908E2FA08E2CBF822E493F8F6
:10082000740193F9740293FA740393FB229000C04D
:1008300012066D9000C3EDF07F007E007D007C000D
:100840009000C412064C7F007E007D007C0090006A
:10085000C812064C9000C0120664E92408F9EA3474
:1008600000FA1205F49000CC12064C9000C012065B
:1008700064E92408F9EA3400FA1205F49000D01271
:10088000064C7F007E007D007C009000D412064C58
:100890009000D8E4F0A3E4F09000DAE4F0A3E4F0F0
:1008A0009000DDE4F0A37402F09000C3E0FF7E004E
:1008B0009000DDE0FCA3E0FDC3ED9FEE6480F8EC6A
:1008C0006480984003020A349000C4120614C004E5
:1008D000C005C006C0079000DDE0FEA3E0FFEF7892
:1008E00002C333CE33CED8F9FF9000C0120664E9BC
:1008F0002FF9EA3EFA12062CD007D006D005D00414
:100900001200219000C412064C9000DDE0FEA3E02E
:10091000FFEF7802C333CE33CED8F9FF9000C01278
:100920000664E92FF9EA3EFA1205F49000D01206A7
:10093000201202B8602A40289000DDE0FEA3E0FF0C
:10094000EF7802C333CE33CED8F9FF9000C0120641
:1009500064E92FF9EA3EFA1205F49000D012064C31
:100960009000DDE0FEA3E0FFEF7802C333CE33CE8C
:10097000D8F9FF9000C0120664E92FF9EA3EFA1296
:1009800005F49000CC1206201202B850289000DD29
:10099000E0FEA3E0FFEF7802C333CE33CED8F9FFF9
:1009A0009000C0120664E92FF9EA3EFA1205F490AD
:1009B00000CC12064C9000DDE0FEA3E0FFEF7802D1
:1009C000C333CE33CED8F9FF9000C0120664E92FAE
:1009D000F9EA3EFA1205F47BEC7A5179B8783D12C7
:1009E00002B8500A9000D8E475F00112041B900080
:1009F000DDE0FEA3E0FFEF7802C333CE33CED8F9BB
:100A0000FF9000C0120664E92FF9EA3EFA1205F4DD
:100A10007B0A7AD779A3783D1202B8500A9000DA9F
:100A2000E475F00112041B9000DDE475F00112047E
:100A30001B0208A99000C3E0FFEF24FEFCE41203B0
:100A40003BA804A905AA06AB079000C4120614121D
:100A5000021B9000C812064C9000D0120620900095
:100A6000CC12061412001D9000D412064C7F0A7E90
:100A7000D77D237C3E9000C81206201202B8600A7F
:100A800040089000DC7464F080247F007E007D7A52
:100A90007C449000C81206201201127BCD7ACC79DA
:100AA000CC783F12021B12036F9000DCEFF07FCD79
:100AB0007ECC7DCC7C3D9000D41206201202B85032
:100AC0001C9000DCE0FCEC12033B7B337A3379337F
:100AD000783F12011212036F9000DCEFF09000C318
:100AE000E0FFEF24FEFCE412033B7B007A00790078
:100AF000783F120112C004C005C006C0079000D89C
:100B0000E0FEA3E0FF9000DAE0FCA3E0FDED2FFDA6
:100B1000EC3EFCEC120336A804A905AA06AB07D0EC
:100B200007D006D005D0041202B8501C9000DCE0BB
:100B3000FCEC12033B7B337A337933783F1201129A
:100B400012036F9000DCEFF09000DCE0FF227B00EE
:100B50007A4679E81238E1EF4405FD7B007A467960
:100B6000E81238ED751400E514C39409503AAF1437
:100B7000EF75F005A424AFF582E4343FF583AF822E
:100B8000AE838E088F09AE08AF098F828E8312065E
:100B900076AE08AF098F828E83740393FC7404933E
:100BA000FD12368F051480BF751400E514C394013F
:100BB0005078AF14EF75F008A424DCF582E4343FDC
:100BC000F583AF82AE838E0A8F0BAE0AAF0B8F8296
:100BD0008E831206768B0C8A0D890EAE0AAF0B8FB0
:100BE000828E83A3A3A31206768B0F8A108911AE7F
:100BF0000AAF0B8F828E83740693F512740793F5F8
:100C000013AB0FAA10A911C003C002C001AB0CAAFC
:100C10000DA90E9000CA12066DD001D002D003AF0C
:100C200013AE121231D8051480817B087A00790046
:100C30001232F5905883740AF07B007A7679507DF1
:100C4000047C0012368F7B087A04792CC003C00222
:100C5000C0017B007A7679409000CA12066DD001FF
:100C6000D002D0037F047E001231D87B017A507904
:100C7000031238E1EF4402FD7B017A507903123808
:100C8000ED7B017A5079131238E1EF4402FD7B01CC
:100C90007A5079131238ED9043A0E0FFEF4440FF03
:100CA0009043A0EFF09043C2E0FFEF4410FF904369
:100CB000C2EFF07B087A047900C003C002C0017B58
:100CC000007A5179029000CA12066DD001D002D08C
:100CD000037F087E001231D87B087A047908C003AC
:100CE000C002C0017B007A5179C29000CA12066D21
:100CF000D001D002D0037F087E001231D87B087A61
:100D0000047910C003C002C0017B007A517922909F
:100D100000CA12066DD001D002D0037F087E0012F7
:100D200031D87B087A047918C003C002C0017B0067
:100D30007A5179429000CA12066DD001D002D003D8
:100D40007F087E001231D87B087A047920C003C066
:100D500002C0017B007A5179629000CA12066DD000
:100D600001D002D0037F087E001231D89044F47481
:100D700001F0904322E0FFEF4408FF904322EFF0A0
:100D80009046ECE0FFEFC394055006904689743A14
:100D9000F090480074F1F01214A390480074B1F080
:100DA0001227237B007A4379A0C003C002C0017BD5
:100DB000007A4379B09000CA12066DD001D002D0FB
:100DC000037F0E7E001231D89043B0E0FFEF54FD58
:100DD000FFEFF0229000C0EFF09000C1ECF0A3ED27
:100DE000F09000C3EAF0A3EBF09000C6E0FFEFD371
:100DF00094005003020FD39000C6E0FFEFD394019C
:100E00004003020FD39000C0E0FFEF1206820E21D4
:100E1000010E21040E4E070E79080EA40A00000EE2
:100E2000CF9000C5E0FFEFD3940F40117B0C7A0107
:100E300079181238E19000C7EFF0020ED47B0C7ADB
:100E400001791C1238E19000C7EFF0020ED4900037
:100E5000C5E0FFEFD3940F40107B0C7A0179191293
:100E600038E19000C7EFF0806B7B0C7A01791D129E
:100E700038E19000C7EFF0805B9000C5E0FFEFD352
:100E8000940F40107B0C7A01791A1238E19000C758
:100E9000EFF080407B0C7A01791E1238E19000C798
:100EA000EFF080309000C5E0FFEFD3940F40107B4F
:100EB0000C7A01791B1238E19000C7EFF080157BA6
:100EC0000C7A01791F1238E19000C7EFF08005908D
:100ED00000C7E4F09000C7E0FFEF3395E0FEFDFCB3
:100EE0007B207A007900780012046BA804A905AA77
:100EF00006AB079000C1E0FEA3E0FFE4FCFD120496
:100F0000509000C812064C9000C8120614AB07AAF5
:100F100006A905A804A804A905AA06AB079000C362
:100F2000E0FEA3E0FFE4FCFD12046B9000CE12068D
:100F30004C7B007A80790078009000CE1206141263
:100F400004F69000CCEEF0A3EFF09000C5E0FFEFC8
:100F5000C3940E50479000CCE0FEA3E0FF9000C584
:100F6000E0FDC3740E9DFDEFA805088005CEC313F8
:100F7000CE13D8F9FF9000CCEEF0A3EFF09000C5AF
:100F8000E0FFEF04FF9000C6E0FEEE75F003A4243E
:100F9000F8F582E43400F583EFF080169000C6E0A7
:100FA000FFEF75F003A424F8F582E43400F58374B0
:100FB0000FF09000CCE0FEA3E0FF9000C6E0FDED56
:100FC00075F003A424F6F582E43400F583EEF0A373
:100FD000EFF0227F0012374522122DAF7F0112332E
:100FE000A5900067E4F090006EE4F0900067E0FFE9
:100FF00012382E90006EE0FF12383E90000BE0FF9A
:10100000EF640160030210B5900065747FF0A37473
:10101000FFF09000687480F0A3E4F090006AE4F0C0
:10102000A3E4F090006AE0FEA3E0FFC3EE94025058
:101030001A9064717401F0906471E0FFEF70F890A1
:10104000006AE475F00112041B80D8900065E0FE90
:10105000A3E0FFAB07AA06EA3395E0F9F890006831
:10106000E0FEA3E0FFEE3395E0FDFC12045D122DDF
:101070006090000C12064C90000C12061490000AAE
:10108000E0FBEB25E025E02412F582E43400F58353
:1010900012064C90000AE004F090000AE0FFEFC353
:1010A00094145003020FFB90000B7402F090000A9E
:1010B000E4F0020FFB90000BE0FFEF640270387F5A
:1010C000001233A57F057E007D007C001229BF122F
:1010D00025A890006CEEF0A3EFF090006CE0FEA36A
:1010E000E0FF123028900063EFF07F011233A590EB
:1010F000000B7403F080BE90000BE0FFEF64037000
:10110000407B017A0079127D1412082D900062EF65
:10111000F0900063E0FF900000EFF0900062E0FFCD
:10112000900001EFF07B017A0079007D02121DC171
:101130001233F6900064E004F090000B7401F0802C
:10114000B690000BE0FFEF64016003020FFB90001C
:1011500064E0FFEFC3940A5003020FFB900067E4C2
:10116000F090006EE4F0900067E0FF12382E9000DF
:101170006EE0FF12383E80C9229000C1EEF0A3EF6E
:10118000F09000C3EDF01239039000C5EFF0123873
:10119000F99000C6EEF0A3EFF09000C6E0FEA3E0E9
:1011A000FF9000C1E0FCA3E0FDED6F7002EC6E70FB
:1011B0000302130D9043A1E0FFEF5401FF9000C420
:1011C000EFF09000C5E0FFEF705E9000C6E0FEA378
:1011D000E0FFEF4E600C9000C1E0FEA3E0FFEF4E99
:1011E00070469000C6E0FEA3E0FFEF4E701D7B024C
:1011F0007A4179009000C1E0FCA3E0FD1238AF9085
:101200004102E0FFEF54BFFFEFF022904102E0FF08
:10121000EF4440FFEFF07B027A4179009000C1E09B
:10122000FCA3E0FD1238AF229000C4E0FFEF606C39
:10123000904001E4F09040147401F0904010E4F00C
:10124000904008E0FFEF547FFFEFF0904102E0FF95
:10125000EF5408FF7E00EF4E600C9000C1E0FEA34B
:10126000E0FFEF4E70367B027A4079029000C6E0D4
:10127000FCA3E0FD1238AF9040017407F0904001EC
:10128000E0FFEF5401FF7E00EF4E70F19043A1E0CC
:10129000FFEF54FEFFEFF0904001E4F09043A1E037
:1012A000FFEF5401FF7E00EF4E603A7B027A4079F7
:1012B000029000C1E0FCA3E0FD1238AF9000C3E053
:1012C000FFEF60047F0280027F00EF4401FF904047
:1012D00001EFF0904001E0FFEF5401FF7E00EF4E80
:1012E000602B80EF227B027A4179009000C1E0FC04
:1012F000A3E0FD1238AF9043A1C083C082E0FF900D
:1013000000C4E0FEEF4EFFD082D083EFF0229000C9
:10131000C1EEF0A3EFF09000C3EDF012391790008A
:10132000C5EFF012390D9000C6EEF0A3EFF090007B
:10133000C6E0FEA3E0FF9000C1E0FCA3E0FDED6F7E
:101340007002EC6E70030214A29043A2E0FFEF540F
:1013500002FF9000C4EFF09000C5E0FFEF705E90D8
:1013600000C6E0FEA3E0FFEF4E600C9000C1E0FE7F
:10137000A3E0FFEF4E70469000C6E0FEA3E0FFEF53
:101380004E701D7B027A4079849000C1E0FCA3E09E
:10139000FD1238AF904086E0FFEF54BFFFEFF02220
:1013A000904086E0FFEF4440FFEFF07B027A407907
:1013B000849000C1E0FCA3E0FD1238AF229000C48D
:1013C000E0FFEF606C904001E4F09040107402F098
:1013D000904014E4F0904008E0FFEF547FFFEFF0FE
:1013E000904086E0FFEF5408FF7E00EF4E600C90C7
:1013F00000C1E0FEA3E0FFEF4E70367B027A407939
:10140000029000C6E0FCA3E0FD1238AF90400174EA
:1014100007F0904001E0FFEF5401FF7E00EF4E70B7
:10142000F19043A2E0FFEF54FDFFEFF0904001E4A4
:10143000F09043A2E0FFEF5402FF7E00EF4E603ACF
:101440007B027A4079029000C1E0FCA3E0FD1238F3
:10145000AF9000C3E0FFEF60047F0280027F00EFE7
:101460004401FF904001EFF0904001E0FFEF540194
:10147000FF7E00EF4E602B80EF227B027A40798462
:101480009000C1E0FCA3E0FD1238AF9043A2C083FE
:10149000C082E0FF9000C4E0FEEF4EFFD082D08318
:1014A000EFF0227B007A4079807D0B7C001238AD12
:1014B000904082741CF07B007A4079847D007C002F
:1014C0001238AD9040867450F07B007A4079887D68
:1014D000037C001238AD90408A7418F07B087A04BF
:1014E0007928C003C002C0017B007A4179009000D6
:1014F000CA12066DD001D002D0037F047E001231E3
:10150000D89043007402F09040007408F0904200BC
:101510007403F07B0C7A0179081238E19046A1EF50
:10152000F07B007A4279227D087C001238AD7B0086
:101530007A4279207D517C121238AD9000C4E4F0DB
:101540007F197E007D007C009000C012064C900048
:10155000C0120614D3EF9400EE9400404E9000C4E5
:10156000E0FFEF64036044904225E0FFEF5401FF89
:101570007E009000C4E0FEEE25E0FEEE4FFFEF544B
:1015800003FF9000C4EFF07FE07E017D007C00123D
:1015900031009000C01206147BFF7AFF79FF78FFBC
:1015A0001204509000C012064C80A39000C0120696
:1015B00014EF4E70057F031237EC7B007A407904FC
:1015C0007D007C011238AD9040047407F090400615
:1015D000E4F09040087448F0904004E4F09040013A
:1015E0007402F090400B7404F09043A2E0FFEF44CB
:1015F00007FF9043A2EFF09043A1E0FFEF4401FF0B
:101600009043A1EFF09043A0E0FFEF4480FF9043B0
:10161000A0EFF0229043A6E0FFEF4410FFEFF09020
:10162000C780E0FFEF54FEFFEFF090C788743FF0F3
:1016300090C78C743FF07BFF7A397963C003C00296
:10164000C0017B017AC47900A801AC02AD03D001CE
:10165000D002D0037E017F001207B57BFF7A397973
:1016600063C003C002C0017B017AC57900A801AC48
:1016700002AD03D001D002D0037E017F001207B576
:101680007BFF7A3E79A3C003C002C0017B017AC60A
:101690007900A801AC02AD03D001D002D0037E01D5
:1016A0007F001207B57BFF7A3A7963C003C002C09E
:1016B000017B017AC07900A801AC02AD03D001D052
:1016C00002D0037E027F001207B57BFF7A3C79636C
:1016D000C003C002C0017B017AC27900A801AC023C
:1016E000AD03D001D002D0037E027F001207B57B8C
:1016F000FF7A3E7963C003C002C0017B017AC779DB
:1017000000A801AC02AD03D001D002D0037E007F5F
:10171000401207B590C78CE4F07F001235B77F0107
:101720001235D590C78474F8F0227593007800754F
:1017300083467582E8E04401F0009046ECE0F990C1
:1017400046FAE0FAB903225420B40012B8001AEAAB
:10175000901FFFF07401901FFEF09046F6F0901F6E
:10176000FEE06005901FFFE0FA90480074C0F0753D
:10177000811690000078007920E4F0A3D8FCD9FA13
:10178000EA900112F002001175151F7516FD120B7B
:101790004E122DFD0217D2020FD9E493A3F8E49361
:1017A000A34003F68001F208DFF48029E493A3F854
:1017B0005407240CC8C333C4540F4420C8834004C6
:1017C000F456800146F6DFE4800B01020408102085
:1017D0004080901817E47E019360BCA3FF543F3013
:1017E000E509541FFEE493A360010ECF54C025E029
:1017F00060A840B8E493A3FAE493A3F8E493A3C8E1
:10180000C582C8CAC583CAF0A3C8C582C8CAC58371
:10181000CADFE9DEE780BE420065000042006800E2
:101820000044000C0000000042006A000041000B70
:1018300001410064004100670041006E0041000A60
:10184000004100634242006C000042000611224247
:1018500000023344420008BBCC420004DDEE4100EC
:10186000EF004100F0004200F300004200F10000F0
:101870004800DF00000000000000004200F7000008
:101880004200F500004800E70000000000000000F2
:1018900041011C8041011B7F4401170000050044E9
:1018A000010E016E360044010900005DC041010DCA
:1018B000184401132EE000004100FC004101070024
:1018C000410102004101080041010101410125FFE0
:1018D0004101260041012700410128FF4101290063
:1018E00041012A0041012B0041012CFF410124004C
:1018F00043011D00000041012D00009000C0EFF0E9
:10190000900107E4F09000C0E0FFEF640160030283
:1019100019DA904E007434F0904E027404F0904E38
:10192000037407F0904E04E4F0904E05E4F0904EFE
:1019300006743FF0904E08E4F0904E09E4F0904EAB
:101940000AE4F0904E147401F09058847450F090B2
:1019500058857427F0905886742CF0905887E4F0DE
:1019600090588A7455F090588B745AF090588C7433
:1019700005F090588E7402F090588F7412F09058C1
:10198000907428F090589174EBF07F44122D0D90D4
:1019900058947458F0905895E4F090589A7405F063
:1019A00090589B7401F090589CE4F090589D740AF4
:1019B000F07F007E7D7D007C009000FD12064C7D56
:1019C000017F017E0012130E7D017F087E0012113F
:1019D000797C397D5F7F1D122526229000C0EFF0B3
:1019E0007BFF7A3F79E4C003C002C0017B017A002B
:1019F00079C1A801AC02AD03D001D002D0037E00B2
:101A00007F091207B57BFF7A3F79EDC003C002C0A2
:101A1000017B017A0079CAA801AC02AD03D001D0E4
:101A200002D0037E007F091207B59000C0E0FFEFEF
:101A3000D39408507E90580AE0FFEF5480FFEFF0F7
:101A400090580AC083C082E0FF9000C0E0FE74CAD4
:101A50002EF582E43400F583E0FEEE25E025E0FE7D
:101A6000EE540CFE9000C0E0FD74C12DF582E4340C
:101A700000F583E0FDEE4DFEEF4EFFD082D083EF08
:101A8000F0905809E0FFEF54F3FFEFF0905809C0D1
:101A900083C082E0FF9000C0E0FE74CA2EF582E4AD
:101AA0003400F583E0FEEE440CFEEF4EFFD082D012
:101AB00083EFF0221237309000C1EFF0900101E087
:101AC000FF9000C0EFF09043AAE0FFEF4401FFEF6A
:101AD000F09043AAE0FFEF4410FFEFF09043BAE02C
:101AE000FFEF4401FFEFF09043BAE0FFEF4410FF37
:101AF000EFF09046F8E0FFEF4402FFEFF09046F978
:101B0000E0FFEF4402FFEFF0905891E0FFEF440355
:101B1000FFEFF07F037E001232C89046F8E0FFEF3F
:101B200054FDFFEFF09046F9E0FFEF54FDFFEFF0BA
:101B3000905877E0FFEF4406FFEFF0905882747AF8
:101B4000F09043A1E0FFEF4401FFEFF09043B1E0DC
:101B5000FFEF4401FFEFF09043A2E0FFEF4402FFEC
:101B6000EFF09043B2E0FFEF4402FFEFF09044DB70
:101B70007420F09044C37420F09000C1E0FF12364E
:101B8000A8229001017401F09000FCE4F07F101293
:101B900034C17F101234A07D077F1D122B4D905849
:101BA000967407F0905897E4F090589EE4F0905B9C
:101BB00007E0FFEF4418FFEFF0905893E4F0905BDC
:101BC00088E4F0905B89E4F0905880740AF09058B3
:101BD00081E4F0905883E4F0905888745BF090585A
:101BE00089745EF090588DE4F0904E017414F0907A
:101BF00000C57410F09000C67401F07B007A807DFF
:101C0000DA7C907F04120DD4900101E0FFEF75F0B3
:101C100003A424F8F582E43400F583E0FF904E0E2F
:101C2000EFF0900101E0FFEF75F003A424F6F582D8
:101C3000E43400F583E0FCA3E0FD7B027A4E790CEE
:101C40001238AF900101E0FF1218FB229000C0EFA4
:101C5000F09000C1EDF09000C2EBF09000C0E0FF0A
:101C6000EFD39403500B9000C0E0FFEFC3940150FA
:101C7000069000C07401F09000C1E0FFEFD3940F14
:101C800040069000C1740EF09000C0E0FFEF120615
:101C9000821C9E011CB9021CDF0300001D0790007E
:101CA000C374B8F09000C3E0FD7F3A123170900029
:101CB000C2E0FD7F3F123170229000C1E0FFEF25AE
:101CC000E025E0FFEF4440FF9000C3EFF09000C339
:101CD000E0FD7F3A1231707D607F3F1231702290BB
:101CE00000C1E0FFEF25E025E0FFEF44C0FF9000DA
:101CF000C3EFF09000C3E0FD7F3A1231709000C254
:101D0000E0FD7F3F123170229000C8EFF09000C9D3
:101D1000EDF09000CAEBF09000CE7401F09000C896
:101D2000E0FFEFC394184003021DBB9000CAE0FF20
:101D3000EF5401FF7E00EF75F080A4FFAEF090003D
:101D4000C9E0FEEE547FFEEE4FFF9000C8E0FE7546
:101D5000F008EE907600120658EFF09000CCE0FF0D
:101D6000EF540FFF7E00EF75F010A4FFAEF090006F
:101D7000CBE0FEEE540FFEEE4FFF9000C8E0FE7584
:101D8000F008EE907601120658EFF09000CDE0FFDB
:101D9000EF540FFF9000C8E0FE75F008EE90760259
:101DA000120658EFF09000C8E0FF75F008EF90764B
:101DB00003120658E4F09000CEE4F09000CEE0FF6D
:101DC000229000C012066D9000C3EDF07D077F00E9
:101DD0007E001228809000C3E0FFEF2407FD7F0102
:101DE0007E001228807D017F027E001228807D08FF
:101DF0007F037E001228809000F0E0FD7F047E00CB
:101E00001228809000F7E0FD7F057E001228809068
:101E100000F8E0FD7F067E001228809000F5E0FDCE
:101E20007F077E001228809000F6E0FD7F087E008C
:101E30001228809000C4E4F09000C3E0FF9000C43A
:101E4000E0FEEEC39F502B9000C4E0FFEF2409FF9B
:101E50007E009000C01206649000C4E0FDE92DF9F8
:101E6000E43AFA1203F0FD1228809000C4E004F076
:101E700080C69000F0E004F0227D077F2A123170C6
:101E80007D987F181231707D937F2E1231707D7C8A
:101E90007F211231707D387F271231707D037F00E2
:101EA0007E021228807D027F017E021228807D80C2
:101EB0007F027E021228807D907F067E021228809B
:101EC0007D807F077E021228807D107F087E0212AF
:101ED00028807D217F207E021228807F001226A686
:101EE0007B607D0E7F01121C4C7F01122F277DF637
:101EF0007F321231707D007F117E021228807F1F99
:101F0000122FAF7F0B1224147F0012249E7B017AC4
:101F10000079F3122C677B017A0079F1122CBA7BDD
:101F2000017A0079DF1229597D017F0D123170226B
:101F30009000C2EFF09000C3ECF0A3EDF09000C56C
:101F4000EBF09000C77401F09000C2E0FFEFC39483
:101F500080507A9000C3E0FEA3E0FFEE54F0FE7FD5
:101F600000EF4E70689000C2E0FF7E08EF8EF0A494
:101F7000FFAEF0EF2400FFEE3478FE9000C8EEF0E4
:101F8000A3EFF09000C8E0FEA3E0FFAA06A9077B3C
:101F9000019000C3E0FCA3E0FD1238AF9000C5E063
:101FA000FF9000C2E0FE75F008EE9078021206582D
:101FB000EFF09000C6E0FF9000C2E0FE75F008EE82
:101FC000907803120658EFF09000C7E4F09000C735
:101FD000E0FF229000C0EFF09000C1EDF09000C053
:101FE000E0FFEF703F90C7B0E0FFEF54CCFFEFF0A1
:101FF00090C7B0C083C082E0FF9000C1E0FEEF4E0A
:10200000FFD082D083EFF090C7B0C083C082E0FFE2
:102010009000C1E0FEEEC454F0FEEF4EFFD082D03F
:1020200083EFF0229000C0E0FFEF6401704690C79C
:10203000B0E0FFEF5433FFEFF090C7B0C083C08231
:10204000E0FF9000C1E0FEEE25E025E0FEEF4EFF50
:10205000D082D083EFF090C7B0C083C082E0FF9001
:1020600000C1E0FEEEC4333354C0FEEF4EFFD08219
:10207000D083EFF022C0E0C0F0C083C082C085C032
:1020800084C086758600C093759300C0D075D0005B
:10209000C000C001C002C003C004C005C006C00724
:1020A00012394B9000B2EFF09000B2E0FFEF54080D
:1020B000FFEFD3940040377B017A0079B3122810E8
:1020C0009000B5EFF09000B3E0FF90006EEFF0905D
:1020D00000B4E0FF900067EFF0900067E0FF123877
:1020E0002E90006EE0FF12383E900064E4F012364D
:1020F000D7D007D006D005D004D003D002D001D06D
:1021000000D0D0D093D086D084D085D082D083D058
:10211000F0D0E0329000C8EFF09000C9ECF0A3EDF1
:10212000F09000CBEAF0A3EBF09000CD7401F090BA
:1021300000C8E0FFEFC3941850739000C8E0FF7E22
:1021400008EF8EF0A4FFAEF0EF2404FFEE3476FE2D
:102150009000CEEEF0A3EFF09000CEE0FEA3E0FF03
:10216000AA06A9077B019000C9E0FCA3E0FD123894
:10217000AF9000C8E0FF7E08EF8EF0A4FFAEF0EF56
:102180002406FFEE3476FE9000CEEEF0A3EFF09042
:1021900000CEE0FEA3E0FFAA06A9077B019000CBDA
:1021A000E0FCA3E0FD1238AF9000CDE4F09000CD4C
:1021B000E0FF229000C2EFF09000C3ECF0A3EDF03E
:1021C0009000C5EAF0A3EBF09000C77401F0900016
:1021D000C2E0FFEFC3948050739000C2E0FF7E081E
:1021E000EF8EF0A4FFAEF0EF2404FFEE3478FE9003
:1021F00000C8EEF0A3EFF09000C8E0FEA3E0FFAA55
:1022000006A9077B019000C3E0FCA3E0FD1238AFF4
:102210009000C2E0FF7E08EF8EF0A4FFAEF0EF2446
:1022200006FFEE3478FE9000C8EEF0A3EFF09000C9
:10223000C8E0FEA3E0FFAA06A9077B019000C5E065
:10224000FCA3E0FD1238AF9000C7E4F09000C7E0B7
:10225000FF22C0E0C083C082C085C084C08675866E
:1022600000C093759300C0D075D000C000C004C0FA
:1022700005C006C007906471E4F0900065E0FEA31D
:10228000E0FF900010E0FCA3E0FDC3ED9FEE648052
:10229000F8EC6480985010900010E0FEA3E0FF90EE
:1022A0000065EEF0A3EFF0900068E0FEA3E0FF9081
:1022B0000010E0FCA3E0FDD3ED9FEE6480F8EC6439
:1022C00080984010900010E0FEA3E0FF900068EEC0
:1022D000F0A3EFF0D007D006D005D004D000D0D0C6
:1022E000D093D086D084D085D082D083D0E0329075
:1022F00000C1EFF09000C1E0FFEFC3940240030281
:1023000023859000C1E0FF9000C1E02FF09000C154
:10231000E0FFEF25E024A3F582E4343FF583E49366
:10232000FE740193FF8F828E83C083C082E0FF9092
:1023300000C1E0FEEE903FAB93FEEEF4FEEF5EFFD9
:10234000D082D083EFF09000C1E004F09000C1E0B3
:10235000FFEF25E024A3F582E4343FF583E493FE08
:10236000740193FF8F828E83C083C082E0FF900050
:10237000C1E0FEEE903FAB93FEEEF4FEEF5EFFD0C9
:1023800082D083EFF0229000C1EFF09000C1E0FF17
:10239000EFC39402507D9000C1E0FF9000C1E02F98
:1023A000F09000C1E0FFEF25E024A3F582E4343F84
:1023B000F583E493FE740193FF8F828E83C083C004
:1023C00082E0FF9000C1E0FEEE903FAB93FEEF4E47
:1023D000FFD082D083EFF09000C1E004F09000C104
:1023E000E0FFEF25E024A3F582E4343FF583E49396
:1023F000FE740193FF8F828E83C083C082E0FF90C2
:1024000000C1E0FEEE903FAB93FEEF4EFFD082D0D6
:1024100083EFF0229000C0EFF09000C0E0FFEFC328
:10242000940B400B9000C0E0FFEFD3941A4006904D
:1024300000C0740BF09000C0E0FFEF24F5FFEFC484
:1024400054F0FFEF4403FF9000C0EFF09000C0E0B5
:10245000FD7F007E021228807F3612337A9000C101
:10246000EFF09000C1E0FFEF54F8FFEF4404FF905D
:1024700000C1EFF09000C1E0FD7F36123170900096
:10248000C1E0FFEF54F8FF9000C1EFF09000C1E011
:10249000FD7F361231707FC87E001237D82290003F
:1024A000C0EFF09000C0E0FFEFD394024005900031
:1024B000C0E4F07F0012337A9000C1EFF09000C0CA
:1024C000E0FFEF12068224D30024EC01250902006C
:1024D0000025259000C1E0FFEF54FCFF9000C1EF04
:1024E000F09000C1E0FD7F00123170229000C1E049
:1024F000FFEF54FCFFEF4401FF9000C1EFF09000AC
:10250000C1E0FD7F00123170229000C1E0FFEF5466
:10251000FCFFEF4402FF9000C1EFF09000C1E0FD2E
:102520007F00123170229000C1EFF09000C2ECF0F9
:10253000A3EDF09000C1E0FFEFD3941F5003D380D0
:1025400001C340057F001237459000C1E0FFEF5402
:102550001FFF7E00EF25E0FFEE33FEEF2400FFEECD
:102560003444FEAA06A9077B011238A09000C4EEED
:10257000F0A3EFF09000C1E0FF7E02EF8EF0A4FF29
:10258000AEF0EF2400FFEE3444FEAA06A9077B015B
:102590009000C2E0FEA3E0FFAD07AC061238AF909A
:1025A00000C4E0FEA3E0FF22904E14E0FFEF5403CE
:1025B000FF9000C2EFF09000C2E0FFEFD394015013
:1025C00032904E11E0FF7E009000C0EEF0A3EFF0DD
:1025D0009000C0E0FEA3E0FFEF7F00FE904E10E011
:1025E000FD7C00EE4CFEEF4DFF9000C0EEF0A3EF3F
:1025F000F0801F7B027A4E79101238A09000C0EE56
:10260000F0A3EFF09000C2E0FFEFB40305904E128C
:10261000E0FF900107E0FFEF60059000FCE4F09020
:1026200000C0E0FEA3E0FF229000C6E4F0A3E4F0C7
:102630007B007A007D017F02122A8A9000C0EFF0B1
:10264000122E4A9000C1EFF09000C1E0FF9000C64A
:102650007487F07BFF7D027C00121F309000C1E088
:10266000FFC0077B017A007910AF01AE02AD037C99
:1026700000EF54FFFFEE54FFFEED5400FDEC54005C
:10268000FCAB07AA06D0077DA97CC71221B3900036
:10269000C0E0FF9000C1E0FD122FEC9000C0E0FF11
:1026A0007D0112279B229000C0EFF09000C0E0FF58
:1026B000EFD3940140059000C0E4F07F0012337A1C
:1026C0009000C1EFF09000C0E0FFEF12068226D824
:1026D0000026F801000027229000C1E0FFEF54031C
:1026E000FF9000C1EFF09000C1E0FD7F001231705B
:1026F0007D1C7F11123170229000C1E0FFEF540366
:10270000FFEF4480FF9000C1EFF09000C1E0FD7F3B
:10271000001231707D1C7F111231707DFF7F10120D
:102720003170227B0C7A0179CF1238E19000C0EF32
:10273000F09000C0E0FFEF5407FF90586EEFF0906C
:1027400000C0E0FFEFC4540FFFEF540FFF90586F2D
:10275000EFF090510D7483F090513D7480F09058DB
:102760006C7409F0905A207420F0905A247480F010
:10277000905A907410F0905ACB7440F0905ACC74E8
:1027800010F0905B047480F0905B467421F0905BD5
:10279000587480F09058767444F0229000C2EFF0A4
:1027A0009000C3EDF09000C47401F09000C2E0FF0F
:1027B000EFC3941850549000C3E0FFEF60199000ED
:1027C000C2E0FF75F010EF907010120658E0FFEFB6
:1027D0004420FFEFF080179000C2E0FF75F010EF8B
:1027E000907010120658E0FFEF54DFFFEFF09000FA
:1027F000C2E0FF75F010EF907010120658E0FFEF86
:102800004401FFEFF09000C4E4F09000C4E0FF2228
:102810009000B612066D7D047F391231707F007E04
:1028200003122A259000B9EFF09000B9E024F7F0E8
:102830009000BAE4F09000B9E0FF9000BAE0FEEE3C
:10284000C39F502F9000BAE0FF7E00EF2408FFEEF8
:102850003403FE122A259000B61206649000BAE0F6
:10286000FEE92EF9E43AFAEF1204099000BAE00406
:10287000F080C27D007F391231709000B9E0FF22F4
:102880009000C5EEF0A3EFF09000C7EDF09000C50A
:10289000E0FEA3E0FFEF7805C333CE33CED8F9FFD7
:1028A000EE4480FEEF4410FF9000C5EEF0A3EFF081
:1028B0009000C5E0FEA3E0FFEEFF7E009000C8EFB1
:1028C000F09000C5E0FEA3E0FF9000C9EFF090009B
:1028D000C8E0FF1236769000C9E0FF12367690000D
:1028E000C7E0FF12367612386EEF30E0F922900022
:1028F000C8EFF09000C9EDF09000CB7401F09000AB
:10290000C8E0FFEFC39418504A9000C8E0FF75F08C
:1029100010EF907010120658E0FFEF54F1FF900096
:10292000CAEFF09000C9E0FFEF5407FF7E00EF25EB
:10293000E0FFEE33FE9000CAE0FEEF4EFF9000C8CD
:10294000E0FE75F010EE907010120658EFF0900057
:10295000CBE4F09000CBE0FF229000C012066D9017
:1029600000C3E4F09000C3E0FFEFC39408504F9021
:1029700000C3E0FFEF2405FF9000C0120664900042
:10298000C3E0FEE92EF9E43AFA1203F0FD123170C9
:102990009000C01206649000C3E0FFE92FF9E43A0A
:1029A000FA1203F0FF9000C3E0FE74DF2EF582E41C
:1029B0003400F583EFF09000C3E004F080A622908D
:1029C000FFFC1206A812064C851583851682120696
:1029D00014D3EF9400EE9480402F9001131206144C
:1029E000123100851583851682C083C082120614B9
:1029F000EF2400FFEE3480FEED34FFFDEC34FFFCED
:102A0000D082D08312064C80BF9001091206148533
:102A1000158385168212062012046B123100900075
:102A2000041206A8229000BBEEF0A3EFF09000BBCA
:102A3000E0FEA3E0FFEF7805C333CE33CED8F9FF35
:102A4000EE4480FE9000BBEEF0A3EFF09000BBE000
:102A5000FEA3E0FFEEFF7E009000BDEFF09000BB14
:102A6000E0FEA3E0FF9000BEEFF09000BDE0FF129B
:102A700036769000BEE0FF1236767F001236761270
:102A8000386EEF30E0F912388E229000C2EFF090ED
:102A900000C3EDF09000C4EAF0A3EBF090012874BD
:102AA00008F0900128E0FF9000C2E0FD9000C3E034
:102AB000FB9000CB7408F09000CCE4F09000CDE4E3
:102AC000F0121D08900128E0FF9000C4E0FCA3E094
:102AD000FD9000C6E0FAA3E0FB122114900128E06B
:102AE000FF7D021228EE900128E0FF229000C2EF45
:102AF000F09000C3EDF09000C4EAF0A3EBF0900179
:102B000025740AF0900125E0FF9000C2E0FD9000DE
:102B1000C3E0FB9000CBE4F09000CCE4F09000CD5B
:102B2000E4F0121D08900125E0FF9000C4E0FCA332
:102B3000E0FD9000C6E0FAA3E0FB1221149001250D
:102B4000E0FF7D021228EE900125E0FF229000C0F8
:102B5000EFF09000C1EDF09000C1E0FFEFD39407DB
:102B60005003D38001C340057F001237459000C059
:102B7000E0FFEFD3941F5003D38001C340057F00D3
:102B80001237459000C1E0FFEF5407FF7E00EF755C
:102B9000F020A4FFAEF09000C0E0FEEE541FFE74E3
:102BA000802EF582E43444F583EFF022906472E0E5
:102BB000FFEF54C0FF9000C0EFF09000C0E0FFEFC7
:102BC0004409FF906472EFF0906492E0FFEF4401DB
:102BD000FFEFF07FFF12380E7FFF12381E7F7F124B
:102BE000382E7F7F12383E7F0012384E12373090D9
:102BF00000C1EFF0906492E0FFEF4410FFEFF0901F
:102C000000C1E0FF1236A81238BC229000C6E4F0E2
:102C1000A3E4F07B007A007D017F02122AEC900091
:102C2000C0EFF0122E4A9000C1EFF09000C1E0FF1B
:102C30009000C67402F07BFF7D027C00121F309072
:102C400000C1E0FF7BA17AC77D107C4E1221B390BA
:102C500000C0E0FF9000C1E0FD122FEC9000C0E04A
:102C6000FF7D0112279B229000C012066D9000C0CC
:102C70001206641203F0FD7F011231709000C01241
:102C80000664E92401F9EA3400FA1203F0FD7F0238
:102C90001231709000C01206641203F0FF9000F32E
:102CA000EFF09000C0120664E92401F9EA3400FA5A
:102CB0001203F0FF9000F4EFF0229000C012066DB6
:102CC0009000C01206641203F0FD7F031231709071
:102CD00000C0120664E92401F9EA3400FA1203F094
:102CE000FD7F041231709000C01206641203F0FFE1
:102CF0009000F1EFF09000C0120664E92401F9EAB7
:102D00003400FA1203F0FF9000F2EFF0229000C1BD
:102D1000EFF01237309000C2EFF09046F8E0FFEF8E
:102D20004403FFEFF09046F9E0FFEF4403FFEFF0BC
:102D30009000C1E0FF905892EFF07F037E001232C6
:102D4000C89046F8E0FFEF54FCFFEFF09046F9E042
:102D5000FFEF54FCFFEFF09000C2E0FF1236A82214
:102D60009000C012064C9000C0120614900103128D
:102D7000062012045D9000C012064C9000FD120661
:102D800014EC120331C004C005C006C0079000C097
:102D9000120614EC120331D003D002D001D000127D
:102DA000021B9000C412064C9000C412061422129A
:102DB00037AE1233CF1237841237991235F31238E7
:102DC000C91236101237C3122C0B12262812376F75
:102DD0007D027F00121FD3906471E4F012313B7EBC
:102DE000207F751235207E2E7F971234E27E227F5F
:102DF00052123501D2AF9044F474FDF02290011BC1
:102E0000747FF090011C7480F09000C0747FF0908B
:102E100000C0E0FFEF60219000C0E0FFEF14FF90E2
:102E200000C0E0FE75F008EE907800120658EFF052
:102E30009000C0E014F080D79000C0E0FF75F0086B
:102E4000EF907800120658E4F0229000C374FFF06F
:102E50001237309000C2EFF090011CE0FFEFD394E6
:102E600018402690011BE0FF9000C3EFF090011C7A
:102E7000E014F09000C3E0FF75F008EF90780012C6
:102E80000658E0FF90011BEFF09000C2E0FF123601
:102E9000A89000C3E0FF22C0E0C083C082C085C00C
:102EA00084C086758600C093759300C0D075D0002D
:102EB000C006C007900010E0FEA3E0FFEEFF3395D0
:102EC000E0FEEF2480FF905B82EFF0D007D006D0C9
:102ED000D0D093D086D084D085D082D083D0E03239
:102EE000905828E0FFEF540CFF7E00EF7802CEC32D
:102EF00013CE13D8F9FFEF2406FF9000C1EFF09036
:102F000000C1E0FFE4FCFDFEEF2428FFEE3401FEEB
:102F1000ED340CFDEC3400FCA907AA06AB05123811
:102F2000E190460AEFF0229000C0EFF09000C0E080
:102F3000FFEFD3940140069000C07401F09000C0F0
:102F4000E0FFEF1206822F50002F5D0100002F6A74
:102F50007D007F3E1231709000EFE4F0227D407FD3
:102F60003E1231709000EF7401F022C2D5E830E7D4
:102F70000FB2D5E4C39BFBE49AFAE499F9E498F81C
:102F8000EC30E717B2D5122FA11204F6E4C39BFB75
:102F9000E49AFAE499F9E498F880031204F630D53B
:102FA0000DE4C39FFFE49EFEE49DFDE49CFC2290A3
:102FB00000C0EFF09000C0E0FFEFD3941F400690F8
:102FC00000C0741FF09000C0E0FFEF70047F01802C
:102FD000027F00EF33333354F8FF9000C0EFF090DE
:102FE00000C0E0FD7F037E02122880229000C2EF25
:102FF000F09000C3EDF09000C47401F09000C2E0C6
:10300000FFEFC39418501B9000C3E0FF9000C2E094
:10301000FE75F010EE907019120658EFF09000C493
:10302000E4F09000C4E0FF229000C0EEF0A3EFF0C7
:103030009000C0E0FCA3E0FDEC1203367BB87A3EC2
:10304000793B784412021B7BD77AA379B978411275
:10305000002112036F9000C2EFF09000C2E0FF2247
:103060001237309000C0EFF0906493E0FFEF4420FF
:10307000FFEFF090649FE0FFEF4410FFEFF09064EB
:1030800090E0FFEF4410FFEFF09000C0E0FF123639
:10309000A81232C712395D22906460E0FFEF30E57C
:1030A0000790645FE0FF80F01237309000C0EFF0CF
:1030B00090649FE0FFEF4401FFEFF090649FE0FF1A
:1030C000EF54FEFFEFF09000C0E0FF1236A8229010
:1030D00000C1EFF0905120E0FFEF54BFFF9000C21D
:1030E000EFF09000C1E0FFEFC4333354C0FFEF5462
:1030F00040FF9000C2E0FEEF4EFF905120EFF02223
:10310000EC4D4E700D78FCEF24E950032840FD2271
:1031100000007BF178DA0000EF28FF78FFEE38FE40
:10312000ED38FDEC38FC50E7EF2BFFEE38FEED38C4
:10313000FDEC38FC40F2220502030412353F121E5A
:10314000797F161224147F1F122FAF7B017A00792A
:1031500008122C677B017A007904122CBA7B017A61
:1031600000790612326B7B017A00790212329822C2
:103170009000C4EFF09000C5EDF09000C4E0FFEFC8
:1031800025E0FFEF4401FF9000C4EFF09000C4E0A1
:10319000FF1236769000C5E0FF12367612386EEFD9
:1031A00030E0F9229000C0EFF0905809E0FFEF54B2
:1031B000FCFF9000C1EFF09000C1E0FF9000C0E084
:1031C000FEEE5403FEEF4EFF9000C1EFF09000C101
:1031D000E0FF905809EFF022758600EF4E6027EF70
:1031E00060010E7593009000CAE0F595A3E0F585A7
:1031F000A3E0F5848B938A838982E0A30586F0A3FC
:103200001586DFF6DEF4E4F593F595229000C1EF24
:10321000F09051C0E0FFEF54FBFF9000C2EFF09040
:1032200000C1E0FFEF25E025E0FFEF5404FF900030
:10323000C2E0FEEF4EFF9051C0EFF0229000C0EFD1
:10324000F0905828E0FFEF54F3FFEFF0905828C0BB
:1032500083C082E0FF9000C0E0FEEE540CFEEF4E13
:10326000FFD082D083EFF0122EE0229000C0120631
:103270006D9000C01206641203F0FF9000F7EFF0AB
:103280009000C0120664E92401F9EA3400FA12033E
:10329000F0FF9000F8EFF0229000C012066D900051
:1032A000C01206641203F0FF9000F5EFF09000C02A
:1032B000120664E92401F9EA3400FA1203F0FF90DF
:1032C00000F6EFF022323222EEFA90010DE0F88F94
:1032D000F0A4FFAEF0E88AF0A42EFEE5F03400FD85
:1032E000EF24C9FF78FFEE38FEED38FDE438FC50DE
:1032F0000302310022ACEAADA08B938A838982E07D
:10330000F96017A3E0F5EAA3E0F5A0A3E060F4FA02
:10331000A3E0F8A3E0F2DAF8D9E98DA08CEAE4F5AD
:1033200093229000C0EFF0905828E0FFEF54FDFF8B
:10333000EFF0905828C083C082E0FF9000C0E0FE0C
:10334000EE5402FEEF4EFFD082D083EFF0229000C9
:10335000C0EFF090585EE0FFEF54FCFFEFF09058A4
:103360005EC083C082E0FF9000C0E0FEEE5403FE2A
:10337000EF4EFFD082D083EFF0229000C2EFF090AA
:1033800000C2E0FFEF25E0FF9000C2EFF09000C226
:10339000E0FF1236767F0012367612386EEF30E09C
:1033A000F912388E229000C0EFF090012CE0FFEF70
:1033B00064FF600890012CE0FF1222EF9000C0E053
:1033C000FF1223869000C0E0FF90012CEFF02290C6
:1033D00000C0E4F09000C0E0FFEFC39402501090F2
:1033E00000C0E0FF1222EF9000C0E004F080E59002
:1033F000012C74FFF0227F1B12337A9000C0EFF093
:103400009000C0E0FFEF4401FF9000C0EFF090009B
:10341000C0E0FD7F1B123170229043A6E0FFEF4415
:1034200010FFEFF09043B6E0FFEF4410FFEFF09095
:10343000C780E0FFEF4401FFEFF022905877E0FFF4
:10344000EF4460FFEFF09043A4E0FFEF4408FFEF8C
:10345000F09043B4E0FFEF4408FFEFF0229043A95F
:10346000E0FFEF4404FFEFF09043B9E0FFEF4404C6
:10347000FFEFF0905877E0FFEF4480FFEFF02290ED
:103480005808740CF0905809E0FFEF4420FFEFF06B
:1034900090580AE4F07F081219DB7F031231A4224E
:1034A0009000C0EFF0904102C083C082E0FF900026
:1034B000C0E0FEEE54F8FEEF4EFFD082D083EFF076
:1034C000229000C0EFF0904086C083C082E0FF9061
:1034D00000C0E0FEEE54F8FEEF4EFFD082D083EF46
:1034E000F0229000C0EEF0A3EFF01239289000C057
:1034F000E0FEA3E0FF12355D7F061236EE123921A1
:10350000229000C0EEF0A3EFF01239369000C0E038
:10351000FEA3E0FF12357B7F0712370412392F22FA
:103520009000C0EEF0A3EFF01239449000C0E0FE2E
:10353000A3E0FF1235997F0712371A12393D227F17
:10354000001236447F0012365D7FFA7E001237D8B3
:103550007F011236447FCA7E081237D8229000C2FB
:10356000EEF0A3EFF07B027A4479009000C2E0FE17
:10357000A3E0FFAD07AC061238AF229000C2EEF018
:10358000A3EFF07B027A4479029000C2E0FEA3E050
:10359000FFAD07AC061238AF229000C2EEF0A3EFE9
:1035A000F07B027A4479149000C2E0FEA3E0FFAD04
:1035B00007AC061238AF229000C0EFF09000C0E0D8
:1035C000FFEF541FFF9000C0EFF09000C0E0FF90AD
:1035D000C798EFF0229000C0EFF09000C0E0FFEF3E
:1035E000540FFF9000C0EFF09000C0E0FF90C79C28
:1035F000EFF022900102E0FFEF7011900108E0FF70
:10360000EF7003121B829001027401F0121AB422AF
:10361000900126E0FFEF700912375A9001267401DD
:10362000F01236C07F641237FE22906483740FF06C
:1036300012309812386E12387E90648FE4F09064E5
:1036400080E4F0229000C0EFF09000C0E0FFEF7047
:10365000067F001230CF227F011230CF229000C0AF
:10366000EFF09000C0E0FFEF70067F0012320C22F6
:103670007F0112320C229000CAEFF090646FE0FFDD
:10368000EF30E2F79000CAE0FF90644FEFF022ECD9
:103690004D6011ED60010C8B938A838982E4F0A365
:1036A000DDFCDCFA75930022EF54016004D2AF8098
:1036B00002C2AFEF5402FF9044F4E054FD4FF022F9
:1036C0009043A8E0FFEF4404FFEFF09043B8E0FF21
:1036D000EF4404FFEFF022904586E0FFEF5440FFF7
:1036E0007E00EF7806CEC313CE13D8F9FF229000E8
:1036F000C2EFF09000C2E0FFEFC43354E0FF90440B
:1037000080EFF0229000C2EFF09000C2E0FFEFC423
:103710003354E0FF904481EFF0229000C2EFF0902C
:1037200000C2E0FFEFC43354E0FF90448AEFF02280
:103730009044F4E0F84402F0E85402FF10AF012294
:1037400074014FFF2290FFFF1206A8EFF09046EAA7
:103750007401F09000011206A822905828E4F0901D
:103760005829E4F07F0412323C7F02123322229067
:103770000127E0FFEF70091216149001277401F081
:1037800012341922900129E0FFEF70099001297489
:1037900001F012395112343B2290012AE0FFEF7000
:1037A0000912347F90012A7401F012345D229001D5
:1037B0002BE0FFEF7009122BAC90012B7401F0127B
:1037C00038D522900124E0FFEF700912362A9001CB
:1037D000247401F0123060229000C2EEF0A3EFF0EA
:1037E0009000C2E0FEA3E0FF1232C8229000C5EFB5
:1037F000F09000C5E0FF9000C5EFF080FE22900041
:10380000C0EFF09000C0E0FF905B82EFF0229000EC
:10381000C2EFF09000C2E0FF906402EFF02290004F
:10382000C2EFF09000C2E0FF906442EFF0229000FF
:10383000C2EFF09000C2E0FF906422EFF02290000F
:10384000C2EFF09000C2E0FF906432EFF0229000EF
:10385000C2EFF09000C2E0FF906482EFF02290642B
:1038600062E0FF9000C2EFF09000C2E0FF2290649F
:103870006FE0FF9000CAEFF09000CAE0FF22906472
:1038800060E0FF9000C0EFF09000C0E0FF22906485
:103890005FE0FF9000C3EFF09000C3E0FF228B9346
:1038A0008A838982E0FFA3E0FE759300228B938ACE
:1038B000838982EDF0A3ECF07593002212385EEF5D
:1038C00030E40512395780F422904E00E0FFEF44B7
:1038D00001FFEFF022906472E0FFEF4480FFEFF011
:1038E000228B938A838982E0759300FF228B938ACF
:1038F000838982EDF0759300227B027A4179001270
:1039000038A022904102E0FFEF5407FF227B027AA9
:103910004079841238A022904086E0FFEF5407FFE0
:10392000229044C07401F0229044C87401F02290A7
:1039300044C07402F0229044C87402F0229044C142
:103940007404F0229044C97404F0227F3112337A57
:10395000227F0312334E22906452E0FF2222323241
:10396000323232201300256117802601008026E0C4
:103970000E8026C20C8026020080066587186D64C2
:1039800009183E00008026032080262102187F00AF
:103990000000000000000000000000000000000027
:1039A0000000000000000000000000000000000017
:1039B0000000000000000000000000000000000007
:1039C00000000000000000000000000000000000F7
:103C60000000006EE6FF006A4A0000A96D00003EF9
:103C700088FF00237BFE003D1A00001A990300977D
:103C80002E02006EC2F9008BF4F600947D0800BE8F
:103C9000002700CA8D3600BE002700947D08008BE7
:103CA000F4F6006EC2F900972E02001A9903003D47
:103CB0001A0000237BFE003E88FF00A96D00006A09
:103CC0004A00006EE6FF0000000000000000000057
:103CD00000000000000000000000000000000000E4
:103CE00000000000000000000000000000000000D4
:103CF00000000000000000000000000000000000C4
:103D000000000000000000000000000000000000B3
:103D100000000000000000000000000000000000A3
:103D20000000000000000000000000000000000093
:103D30000000000000000000000000000000000083
:103D40000000000000000000000000000000000073
:103D50000000000000000000000000000000000063
:103D60000000000000000000000000000000000053
:103D70000000000000000000000000000000000043
:103D80000000000000000000000000000000000033
:103D90000000000000000000000000000000000023
:103DA0000000000000000000000000000000000013
:103DB0000000000000000000000000000000000003
:103DC00000000000000000000000000000000000F3
:103DD00000000000000000000000000000000000E3
:103DE00000000000000000000000000000000000D3
:103DF00000000000000000000000000000000000C3
:103E000000000000000000000000000000000000B2
:103E100000000000000000000000000000000000A2
:103E20000000000000000000000000000000000092
:103E30000000000000000000000000000000000082
:103E40000000000000000000000000000000000072
:103E50000000000000000000000000000000000062
:103E6000000000180C00000000000000000000002E
:103E70000000000000000000000000000000000042
:103E80000000000000000000000000000000000032
:103E90000000000000000000000000000000000022
:103EA00000000021F805014210864064F8150181E8
:103EB000F8050143518E21000000000000000000C1
:103EC00000000000000000000000000000000000F2
:103ED00000000000000000000000000000000000E2
:103EE00000000000000000000000000000000000D2
:103EF00000000000000000000000000000000000C2
:103F000000000000000000000000000000000000B1
:103F100000000000000000000000000000000000A1
:103F20000000000000000000000000000000000091
:103F30000000000000000000000000000000000081
:103F40000000000000000000000000000000000071
:103F50000000000000000000000000000000000061
:103F60000000000000000000000000000000000051
:103F70000000000000000000000000000000000041
:103F80000000000000000000000000000000000031
:103F90000000000000000000000000000000000021
:103FA000000000516D5B005A285B00200240400079
:103FB0005110001000515000100051F0001001008D
:103FC000000E80010F0001000114000800014000F4
:103FD0000A00014C0002000150000020010E800880
:103FE000038000800111213141615363730809018D
:063FF000010507070404AF
:00000001FF
